{
	"StorageMemoryCalldata.sol": {
		"PagadbaII": {
			"abi": [
				{
					"inputs": [
						{
							"internalType": "uint256",
							"name": "",
							"type": "uint256"
						}
					],
					"name": "donatorji",
					"outputs": [
						{
							"internalType": "uint256",
							"name": "",
							"type": "uint256"
						}
					],
					"stateMutability": "view",
					"type": "function"
				},
				{
					"inputs": [
						{
							"internalType": "string",
							"name": "donator",
							"type": "string"
						},
						{
							"internalType": "uint256",
							"name": "vsota",
							"type": "uint256"
						}
					],
					"name": "donatorjiAdd",
					"outputs": [],
					"stateMutability": "view",
					"type": "function"
				},
				{
					"inputs": [
						{
							"internalType": "string",
							"name": "donatorji",
							"type": "string"
						}
					],
					"name": "prispevali",
					"outputs": [
						{
							"internalType": "uint256",
							"name": "cifra",
							"type": "uint256"
						}
					],
					"stateMutability": "view",
					"type": "function"
				},
				{
					"inputs": [],
					"name": "useMemoryCallData",
					"outputs": [
						{
							"internalType": "string",
							"name": "donator",
							"type": "string"
						},
						{
							"internalType": "uint256",
							"name": "cifra",
							"type": "uint256"
						}
					],
					"stateMutability": "pure",
					"type": "function"
				}
			],
			"devdoc": {
				"kind": "dev",
				"methods": {},
				"version": 1
			},
			"evm": {
				"assembly": "    /* \"StorageMemoryCalldata.sol\":60:566  contract PagadbaII {... */\n  mstore(0x40, 0x80)\n    /* \"StorageMemoryCalldata.sol\":124:147  0x000000000000000000000 */\n  0x00\n    /* \"StorageMemoryCalldata.sol\":86:148  address internal  mujNaslov = address(0x000000000000000000000) */\n  dup1\n  exp(0x0100, 0x00)\n  dup2\n  sload\n  dup2\n  0xffffffffffffffffffffffffffffffffffffffff\n  mul\n  not\n  and\n  swap1\n  dup4\n  0xffffffffffffffffffffffffffffffffffffffff\n  and\n  mul\n  or\n  swap1\n  sstore\n  pop\n    /* \"StorageMemoryCalldata.sol\":60:566  contract PagadbaII {... */\n  callvalue\n  dup1\n  iszero\n  tag_1\n  jumpi\n  0x00\n  dup1\n  revert\ntag_1:\n  pop\n  dataSize(sub_0)\n  dup1\n  dataOffset(sub_0)\n  0x00\n  codecopy\n  0x00\n  return\nstop\n\nsub_0: assembly {\n        /* \"StorageMemoryCalldata.sol\":60:566  contract PagadbaII {... */\n      mstore(0x40, 0x80)\n      callvalue\n      dup1\n      iszero\n      tag_1\n      jumpi\n      0x00\n      dup1\n      revert\n    tag_1:\n      pop\n      jumpi(tag_2, lt(calldatasize, 0x04))\n      shr(0xe0, calldataload(0x00))\n      dup1\n      0x3449f57c\n      eq\n      tag_3\n      jumpi\n      dup1\n      0x5d797206\n      eq\n      tag_4\n      jumpi\n      dup1\n      0x84e09428\n      eq\n      tag_5\n      jumpi\n      dup1\n      0xbd11e01c\n      eq\n      tag_6\n      jumpi\n    tag_2:\n      0x00\n      dup1\n      revert\n        /* \"StorageMemoryCalldata.sol\":211:272  mapping( string  donatorji=> uint256 cifra) public prispevali */\n    tag_3:\n      tag_7\n      0x04\n      dup1\n      calldatasize\n      sub\n      dup2\n      add\n      swap1\n      tag_8\n      swap2\n      swap1\n      tag_9\n      jump\t// in\n    tag_8:\n      tag_10\n      jump\t// in\n    tag_7:\n      mload(0x40)\n      tag_11\n      swap2\n      swap1\n      tag_12\n      jump\t// in\n    tag_11:\n      mload(0x40)\n      dup1\n      swap2\n      sub\n      swap1\n      return\n        /* \"StorageMemoryCalldata.sol\":283:421  function  donatorjiAdd (string memory donator, uint256 vsota) public view  {... */\n    tag_4:\n      tag_13\n      0x04\n      dup1\n      calldatasize\n      sub\n      dup2\n      add\n      swap1\n      tag_14\n      swap2\n      swap1\n      tag_15\n      jump\t// in\n    tag_14:\n      tag_16\n      jump\t// in\n    tag_13:\n      stop\n        /* \"StorageMemoryCalldata.sol\":431:563  function useMemoryCallData () public pure returns (string memory donator,uint256 cifra )   {... */\n    tag_5:\n      tag_17\n      tag_18\n      jump\t// in\n    tag_17:\n      mload(0x40)\n      tag_19\n      swap3\n      swap2\n      swap1\n      tag_20\n      jump\t// in\n    tag_19:\n      mload(0x40)\n      dup1\n      swap2\n      sub\n      swap1\n      return\n        /* \"StorageMemoryCalldata.sol\":165:192  uint256 [] public donatorji */\n    tag_6:\n      tag_21\n      0x04\n      dup1\n      calldatasize\n      sub\n      dup2\n      add\n      swap1\n      tag_22\n      swap2\n      swap1\n      tag_23\n      jump\t// in\n    tag_22:\n      tag_24\n      jump\t// in\n    tag_21:\n      mload(0x40)\n      tag_25\n      swap2\n      swap1\n      tag_12\n      jump\t// in\n    tag_25:\n      mload(0x40)\n      dup1\n      swap2\n      sub\n      swap1\n      return\n        /* \"StorageMemoryCalldata.sol\":211:272  mapping( string  donatorji=> uint256 cifra) public prispevali */\n    tag_10:\n      0x02\n      dup2\n      dup1\n      mload\n      0x20\n      dup2\n      add\n      dup3\n      add\n      dup1\n      mload\n      dup5\n      dup3\n      mstore\n      0x20\n      dup4\n      add\n      0x20\n      dup6\n      add\n      keccak256\n      dup2\n      dup4\n      mstore\n      dup1\n      swap6\n      pop\n      pop\n      pop\n      pop\n      pop\n      pop\n      0x00\n      swap2\n      pop\n      swap1\n      pop\n      sload\n      dup2\n      jump\t// out\n        /* \"StorageMemoryCalldata.sol\":283:421  function  donatorjiAdd (string memory donator, uint256 vsota) public view  {... */\n    tag_16:\n      pop\n      pop\n      jump\t// out\n        /* \"StorageMemoryCalldata.sol\":431:563  function useMemoryCallData () public pure returns (string memory donator,uint256 cifra )   {... */\n    tag_18:\n        /* \"StorageMemoryCalldata.sol\":482:503  string memory donator */\n      0x60\n        /* \"StorageMemoryCalldata.sol\":504:517  uint256 cifra */\n      0x00\n        /* \"StorageMemoryCalldata.sol\":431:563  function useMemoryCallData () public pure returns (string memory donator,uint256 cifra )   {... */\n      swap1\n      swap2\n      jump\t// out\n        /* \"StorageMemoryCalldata.sol\":165:192  uint256 [] public donatorji */\n    tag_24:\n      0x01\n      dup2\n      dup2\n      sload\n      dup2\n      lt\n      tag_28\n      jumpi\n      0x00\n      dup1\n      revert\n    tag_28:\n      swap1\n      0x00\n      mstore\n      keccak256(0x00, 0x20)\n      add\n      0x00\n      swap2\n      pop\n      swap1\n      pop\n      sload\n      dup2\n      jump\t// out\n        /* \"#utility.yul\":7:82   */\n    tag_30:\n        /* \"#utility.yul\":40:46   */\n      0x00\n        /* \"#utility.yul\":73:75   */\n      0x40\n        /* \"#utility.yul\":67:76   */\n      mload\n        /* \"#utility.yul\":57:76   */\n      swap1\n      pop\n        /* \"#utility.yul\":7:82   */\n      swap1\n      jump\t// out\n        /* \"#utility.yul\":88:205   */\n    tag_31:\n        /* \"#utility.yul\":197:198   */\n      0x00\n        /* \"#utility.yul\":194:195   */\n      dup1\n        /* \"#utility.yul\":187:199   */\n      revert\n        /* \"#utility.yul\":211:328   */\n    tag_32:\n        /* \"#utility.yul\":320:321   */\n      0x00\n        /* \"#utility.yul\":317:318   */\n      dup1\n        /* \"#utility.yul\":310:322   */\n      revert\n        /* \"#utility.yul\":334:451   */\n    tag_33:\n        /* \"#utility.yul\":443:444   */\n      0x00\n        /* \"#utility.yul\":440:441   */\n      dup1\n        /* \"#utility.yul\":433:445   */\n      revert\n        /* \"#utility.yul\":457:574   */\n    tag_34:\n        /* \"#utility.yul\":566:567   */\n      0x00\n        /* \"#utility.yul\":563:564   */\n      dup1\n        /* \"#utility.yul\":556:568   */\n      revert\n        /* \"#utility.yul\":580:682   */\n    tag_35:\n        /* \"#utility.yul\":621:627   */\n      0x00\n        /* \"#utility.yul\":672:674   */\n      0x1f\n        /* \"#utility.yul\":668:675   */\n      not\n        /* \"#utility.yul\":663:665   */\n      0x1f\n        /* \"#utility.yul\":656:661   */\n      dup4\n        /* \"#utility.yul\":652:666   */\n      add\n        /* \"#utility.yul\":648:676   */\n      and\n        /* \"#utility.yul\":638:676   */\n      swap1\n      pop\n        /* \"#utility.yul\":580:682   */\n      swap2\n      swap1\n      pop\n      jump\t// out\n        /* \"#utility.yul\":688:868   */\n    tag_36:\n        /* \"#utility.yul\":736:813   */\n      0x4e487b7100000000000000000000000000000000000000000000000000000000\n        /* \"#utility.yul\":733:734   */\n      0x00\n        /* \"#utility.yul\":726:814   */\n      mstore\n        /* \"#utility.yul\":833:837   */\n      0x41\n        /* \"#utility.yul\":830:831   */\n      0x04\n        /* \"#utility.yul\":823:838   */\n      mstore\n        /* \"#utility.yul\":857:861   */\n      0x24\n        /* \"#utility.yul\":854:855   */\n      0x00\n        /* \"#utility.yul\":847:862   */\n      revert\n        /* \"#utility.yul\":874:1155   */\n    tag_37:\n        /* \"#utility.yul\":957:984   */\n      tag_60\n        /* \"#utility.yul\":979:983   */\n      dup3\n        /* \"#utility.yul\":957:984   */\n      tag_35\n      jump\t// in\n    tag_60:\n        /* \"#utility.yul\":949:955   */\n      dup2\n        /* \"#utility.yul\":945:985   */\n      add\n        /* \"#utility.yul\":1087:1093   */\n      dup2\n        /* \"#utility.yul\":1075:1085   */\n      dup2\n        /* \"#utility.yul\":1072:1094   */\n      lt\n        /* \"#utility.yul\":1051:1069   */\n      0xffffffffffffffff\n        /* \"#utility.yul\":1039:1049   */\n      dup3\n        /* \"#utility.yul\":1036:1070   */\n      gt\n        /* \"#utility.yul\":1033:1095   */\n      or\n        /* \"#utility.yul\":1030:1118   */\n      iszero\n      tag_61\n      jumpi\n        /* \"#utility.yul\":1098:1116   */\n      tag_62\n      tag_36\n      jump\t// in\n    tag_62:\n        /* \"#utility.yul\":1030:1118   */\n    tag_61:\n        /* \"#utility.yul\":1138:1148   */\n      dup1\n        /* \"#utility.yul\":1134:1136   */\n      0x40\n        /* \"#utility.yul\":1127:1149   */\n      mstore\n        /* \"#utility.yul\":917:1155   */\n      pop\n        /* \"#utility.yul\":874:1155   */\n      pop\n      pop\n      jump\t// out\n        /* \"#utility.yul\":1161:1290   */\n    tag_38:\n        /* \"#utility.yul\":1195:1201   */\n      0x00\n        /* \"#utility.yul\":1222:1242   */\n      tag_64\n      tag_30\n      jump\t// in\n    tag_64:\n        /* \"#utility.yul\":1212:1242   */\n      swap1\n      pop\n        /* \"#utility.yul\":1251:1284   */\n      tag_65\n        /* \"#utility.yul\":1279:1283   */\n      dup3\n        /* \"#utility.yul\":1271:1277   */\n      dup3\n        /* \"#utility.yul\":1251:1284   */\n      tag_37\n      jump\t// in\n    tag_65:\n        /* \"#utility.yul\":1161:1290   */\n      swap2\n      swap1\n      pop\n      jump\t// out\n        /* \"#utility.yul\":1296:1604   */\n    tag_39:\n        /* \"#utility.yul\":1358:1362   */\n      0x00\n        /* \"#utility.yul\":1448:1466   */\n      0xffffffffffffffff\n        /* \"#utility.yul\":1440:1446   */\n      dup3\n        /* \"#utility.yul\":1437:1467   */\n      gt\n        /* \"#utility.yul\":1434:1490   */\n      iszero\n      tag_67\n      jumpi\n        /* \"#utility.yul\":1470:1488   */\n      tag_68\n      tag_36\n      jump\t// in\n    tag_68:\n        /* \"#utility.yul\":1434:1490   */\n    tag_67:\n        /* \"#utility.yul\":1508:1537   */\n      tag_69\n        /* \"#utility.yul\":1530:1536   */\n      dup3\n        /* \"#utility.yul\":1508:1537   */\n      tag_35\n      jump\t// in\n    tag_69:\n        /* \"#utility.yul\":1500:1537   */\n      swap1\n      pop\n        /* \"#utility.yul\":1592:1596   */\n      0x20\n        /* \"#utility.yul\":1586:1590   */\n      dup2\n        /* \"#utility.yul\":1582:1597   */\n      add\n        /* \"#utility.yul\":1574:1597   */\n      swap1\n      pop\n        /* \"#utility.yul\":1296:1604   */\n      swap2\n      swap1\n      pop\n      jump\t// out\n        /* \"#utility.yul\":1610:1758   */\n    tag_40:\n        /* \"#utility.yul\":1708:1714   */\n      dup3\n        /* \"#utility.yul\":1703:1706   */\n      dup2\n        /* \"#utility.yul\":1698:1701   */\n      dup4\n        /* \"#utility.yul\":1685:1715   */\n      calldatacopy\n        /* \"#utility.yul\":1749:1750   */\n      0x00\n        /* \"#utility.yul\":1740:1746   */\n      dup4\n        /* \"#utility.yul\":1735:1738   */\n      dup4\n        /* \"#utility.yul\":1731:1747   */\n      add\n        /* \"#utility.yul\":1724:1751   */\n      mstore\n        /* \"#utility.yul\":1610:1758   */\n      pop\n      pop\n      pop\n      jump\t// out\n        /* \"#utility.yul\":1764:2189   */\n    tag_41:\n        /* \"#utility.yul\":1842:1847   */\n      0x00\n        /* \"#utility.yul\":1867:1933   */\n      tag_72\n        /* \"#utility.yul\":1883:1932   */\n      tag_73\n        /* \"#utility.yul\":1925:1931   */\n      dup5\n        /* \"#utility.yul\":1883:1932   */\n      tag_39\n      jump\t// in\n    tag_73:\n        /* \"#utility.yul\":1867:1933   */\n      tag_38\n      jump\t// in\n    tag_72:\n        /* \"#utility.yul\":1858:1933   */\n      swap1\n      pop\n        /* \"#utility.yul\":1956:1962   */\n      dup3\n        /* \"#utility.yul\":1949:1954   */\n      dup2\n        /* \"#utility.yul\":1942:1963   */\n      mstore\n        /* \"#utility.yul\":1994:1998   */\n      0x20\n        /* \"#utility.yul\":1987:1992   */\n      dup2\n        /* \"#utility.yul\":1983:1999   */\n      add\n        /* \"#utility.yul\":2032:2035   */\n      dup5\n        /* \"#utility.yul\":2023:2029   */\n      dup5\n        /* \"#utility.yul\":2018:2021   */\n      dup5\n        /* \"#utility.yul\":2014:2030   */\n      add\n        /* \"#utility.yul\":2011:2036   */\n      gt\n        /* \"#utility.yul\":2008:2120   */\n      iszero\n      tag_74\n      jumpi\n        /* \"#utility.yul\":2039:2118   */\n      tag_75\n      tag_34\n      jump\t// in\n    tag_75:\n        /* \"#utility.yul\":2008:2120   */\n    tag_74:\n        /* \"#utility.yul\":2129:2183   */\n      tag_76\n        /* \"#utility.yul\":2176:2182   */\n      dup5\n        /* \"#utility.yul\":2171:2174   */\n      dup3\n        /* \"#utility.yul\":2166:2169   */\n      dup6\n        /* \"#utility.yul\":2129:2183   */\n      tag_40\n      jump\t// in\n    tag_76:\n        /* \"#utility.yul\":1848:2189   */\n      pop\n        /* \"#utility.yul\":1764:2189   */\n      swap4\n      swap3\n      pop\n      pop\n      pop\n      jump\t// out\n        /* \"#utility.yul\":2209:2549   */\n    tag_42:\n        /* \"#utility.yul\":2265:2270   */\n      0x00\n        /* \"#utility.yul\":2314:2317   */\n      dup3\n        /* \"#utility.yul\":2307:2311   */\n      0x1f\n        /* \"#utility.yul\":2299:2305   */\n      dup4\n        /* \"#utility.yul\":2295:2312   */\n      add\n        /* \"#utility.yul\":2291:2318   */\n      slt\n        /* \"#utility.yul\":2281:2403   */\n      tag_78\n      jumpi\n        /* \"#utility.yul\":2322:2401   */\n      tag_79\n      tag_33\n      jump\t// in\n    tag_79:\n        /* \"#utility.yul\":2281:2403   */\n    tag_78:\n        /* \"#utility.yul\":2439:2445   */\n      dup2\n        /* \"#utility.yul\":2426:2446   */\n      calldataload\n        /* \"#utility.yul\":2464:2543   */\n      tag_80\n        /* \"#utility.yul\":2539:2542   */\n      dup5\n        /* \"#utility.yul\":2531:2537   */\n      dup3\n        /* \"#utility.yul\":2524:2528   */\n      0x20\n        /* \"#utility.yul\":2516:2522   */\n      dup7\n        /* \"#utility.yul\":2512:2529   */\n      add\n        /* \"#utility.yul\":2464:2543   */\n      tag_41\n      jump\t// in\n    tag_80:\n        /* \"#utility.yul\":2455:2543   */\n      swap2\n      pop\n        /* \"#utility.yul\":2271:2549   */\n      pop\n        /* \"#utility.yul\":2209:2549   */\n      swap3\n      swap2\n      pop\n      pop\n      jump\t// out\n        /* \"#utility.yul\":2555:3064   */\n    tag_9:\n        /* \"#utility.yul\":2624:2630   */\n      0x00\n        /* \"#utility.yul\":2673:2675   */\n      0x20\n        /* \"#utility.yul\":2661:2670   */\n      dup3\n        /* \"#utility.yul\":2652:2659   */\n      dup5\n        /* \"#utility.yul\":2648:2671   */\n      sub\n        /* \"#utility.yul\":2644:2676   */\n      slt\n        /* \"#utility.yul\":2641:2760   */\n      iszero\n      tag_82\n      jumpi\n        /* \"#utility.yul\":2679:2758   */\n      tag_83\n      tag_31\n      jump\t// in\n    tag_83:\n        /* \"#utility.yul\":2641:2760   */\n    tag_82:\n        /* \"#utility.yul\":2827:2828   */\n      0x00\n        /* \"#utility.yul\":2816:2825   */\n      dup3\n        /* \"#utility.yul\":2812:2829   */\n      add\n        /* \"#utility.yul\":2799:2830   */\n      calldataload\n        /* \"#utility.yul\":2857:2875   */\n      0xffffffffffffffff\n        /* \"#utility.yul\":2849:2855   */\n      dup2\n        /* \"#utility.yul\":2846:2876   */\n      gt\n        /* \"#utility.yul\":2843:2960   */\n      iszero\n      tag_84\n      jumpi\n        /* \"#utility.yul\":2879:2958   */\n      tag_85\n      tag_32\n      jump\t// in\n    tag_85:\n        /* \"#utility.yul\":2843:2960   */\n    tag_84:\n        /* \"#utility.yul\":2984:3047   */\n      tag_86\n        /* \"#utility.yul\":3039:3046   */\n      dup5\n        /* \"#utility.yul\":3030:3036   */\n      dup3\n        /* \"#utility.yul\":3019:3028   */\n      dup6\n        /* \"#utility.yul\":3015:3037   */\n      add\n        /* \"#utility.yul\":2984:3047   */\n      tag_42\n      jump\t// in\n    tag_86:\n        /* \"#utility.yul\":2974:3047   */\n      swap2\n      pop\n        /* \"#utility.yul\":2770:3057   */\n      pop\n        /* \"#utility.yul\":2555:3064   */\n      swap3\n      swap2\n      pop\n      pop\n      jump\t// out\n        /* \"#utility.yul\":3070:3147   */\n    tag_43:\n        /* \"#utility.yul\":3107:3114   */\n      0x00\n        /* \"#utility.yul\":3136:3141   */\n      dup2\n        /* \"#utility.yul\":3125:3141   */\n      swap1\n      pop\n        /* \"#utility.yul\":3070:3147   */\n      swap2\n      swap1\n      pop\n      jump\t// out\n        /* \"#utility.yul\":3153:3271   */\n    tag_44:\n        /* \"#utility.yul\":3240:3264   */\n      tag_89\n        /* \"#utility.yul\":3258:3263   */\n      dup2\n        /* \"#utility.yul\":3240:3264   */\n      tag_43\n      jump\t// in\n    tag_89:\n        /* \"#utility.yul\":3235:3238   */\n      dup3\n        /* \"#utility.yul\":3228:3265   */\n      mstore\n        /* \"#utility.yul\":3153:3271   */\n      pop\n      pop\n      jump\t// out\n        /* \"#utility.yul\":3277:3499   */\n    tag_12:\n        /* \"#utility.yul\":3370:3374   */\n      0x00\n        /* \"#utility.yul\":3408:3410   */\n      0x20\n        /* \"#utility.yul\":3397:3406   */\n      dup3\n        /* \"#utility.yul\":3393:3411   */\n      add\n        /* \"#utility.yul\":3385:3411   */\n      swap1\n      pop\n        /* \"#utility.yul\":3421:3492   */\n      tag_91\n        /* \"#utility.yul\":3489:3490   */\n      0x00\n        /* \"#utility.yul\":3478:3487   */\n      dup4\n        /* \"#utility.yul\":3474:3491   */\n      add\n        /* \"#utility.yul\":3465:3471   */\n      dup5\n        /* \"#utility.yul\":3421:3492   */\n      tag_44\n      jump\t// in\n    tag_91:\n        /* \"#utility.yul\":3277:3499   */\n      swap3\n      swap2\n      pop\n      pop\n      jump\t// out\n        /* \"#utility.yul\":3505:3627   */\n    tag_45:\n        /* \"#utility.yul\":3578:3602   */\n      tag_93\n        /* \"#utility.yul\":3596:3601   */\n      dup2\n        /* \"#utility.yul\":3578:3602   */\n      tag_43\n      jump\t// in\n    tag_93:\n        /* \"#utility.yul\":3571:3576   */\n      dup2\n        /* \"#utility.yul\":3568:3603   */\n      eq\n        /* \"#utility.yul\":3558:3621   */\n      tag_94\n      jumpi\n        /* \"#utility.yul\":3617:3618   */\n      0x00\n        /* \"#utility.yul\":3614:3615   */\n      dup1\n        /* \"#utility.yul\":3607:3619   */\n      revert\n        /* \"#utility.yul\":3558:3621   */\n    tag_94:\n        /* \"#utility.yul\":3505:3627   */\n      pop\n      jump\t// out\n        /* \"#utility.yul\":3633:3772   */\n    tag_46:\n        /* \"#utility.yul\":3679:3684   */\n      0x00\n        /* \"#utility.yul\":3717:3723   */\n      dup2\n        /* \"#utility.yul\":3704:3724   */\n      calldataload\n        /* \"#utility.yul\":3695:3724   */\n      swap1\n      pop\n        /* \"#utility.yul\":3733:3766   */\n      tag_96\n        /* \"#utility.yul\":3760:3765   */\n      dup2\n        /* \"#utility.yul\":3733:3766   */\n      tag_45\n      jump\t// in\n    tag_96:\n        /* \"#utility.yul\":3633:3772   */\n      swap3\n      swap2\n      pop\n      pop\n      jump\t// out\n        /* \"#utility.yul\":3778:4432   */\n    tag_15:\n        /* \"#utility.yul\":3856:3862   */\n      0x00\n        /* \"#utility.yul\":3864:3870   */\n      dup1\n        /* \"#utility.yul\":3913:3915   */\n      0x40\n        /* \"#utility.yul\":3901:3910   */\n      dup4\n        /* \"#utility.yul\":3892:3899   */\n      dup6\n        /* \"#utility.yul\":3888:3911   */\n      sub\n        /* \"#utility.yul\":3884:3916   */\n      slt\n        /* \"#utility.yul\":3881:4000   */\n      iszero\n      tag_98\n      jumpi\n        /* \"#utility.yul\":3919:3998   */\n      tag_99\n      tag_31\n      jump\t// in\n    tag_99:\n        /* \"#utility.yul\":3881:4000   */\n    tag_98:\n        /* \"#utility.yul\":4067:4068   */\n      0x00\n        /* \"#utility.yul\":4056:4065   */\n      dup4\n        /* \"#utility.yul\":4052:4069   */\n      add\n        /* \"#utility.yul\":4039:4070   */\n      calldataload\n        /* \"#utility.yul\":4097:4115   */\n      0xffffffffffffffff\n        /* \"#utility.yul\":4089:4095   */\n      dup2\n        /* \"#utility.yul\":4086:4116   */\n      gt\n        /* \"#utility.yul\":4083:4200   */\n      iszero\n      tag_100\n      jumpi\n        /* \"#utility.yul\":4119:4198   */\n      tag_101\n      tag_32\n      jump\t// in\n    tag_101:\n        /* \"#utility.yul\":4083:4200   */\n    tag_100:\n        /* \"#utility.yul\":4224:4287   */\n      tag_102\n        /* \"#utility.yul\":4279:4286   */\n      dup6\n        /* \"#utility.yul\":4270:4276   */\n      dup3\n        /* \"#utility.yul\":4259:4268   */\n      dup7\n        /* \"#utility.yul\":4255:4277   */\n      add\n        /* \"#utility.yul\":4224:4287   */\n      tag_42\n      jump\t// in\n    tag_102:\n        /* \"#utility.yul\":4214:4287   */\n      swap3\n      pop\n        /* \"#utility.yul\":4010:4297   */\n      pop\n        /* \"#utility.yul\":4336:4338   */\n      0x20\n        /* \"#utility.yul\":4362:4415   */\n      tag_103\n        /* \"#utility.yul\":4407:4414   */\n      dup6\n        /* \"#utility.yul\":4398:4404   */\n      dup3\n        /* \"#utility.yul\":4387:4396   */\n      dup7\n        /* \"#utility.yul\":4383:4405   */\n      add\n        /* \"#utility.yul\":4362:4415   */\n      tag_46\n      jump\t// in\n    tag_103:\n        /* \"#utility.yul\":4352:4415   */\n      swap2\n      pop\n        /* \"#utility.yul\":4307:4425   */\n      pop\n        /* \"#utility.yul\":3778:4432   */\n      swap3\n      pop\n      swap3\n      swap1\n      pop\n      jump\t// out\n        /* \"#utility.yul\":4438:4537   */\n    tag_47:\n        /* \"#utility.yul\":4490:4496   */\n      0x00\n        /* \"#utility.yul\":4524:4529   */\n      dup2\n        /* \"#utility.yul\":4518:4530   */\n      mload\n        /* \"#utility.yul\":4508:4530   */\n      swap1\n      pop\n        /* \"#utility.yul\":4438:4537   */\n      swap2\n      swap1\n      pop\n      jump\t// out\n        /* \"#utility.yul\":4543:4712   */\n    tag_48:\n        /* \"#utility.yul\":4627:4638   */\n      0x00\n        /* \"#utility.yul\":4661:4667   */\n      dup3\n        /* \"#utility.yul\":4656:4659   */\n      dup3\n        /* \"#utility.yul\":4649:4668   */\n      mstore\n        /* \"#utility.yul\":4701:4705   */\n      0x20\n        /* \"#utility.yul\":4696:4699   */\n      dup3\n        /* \"#utility.yul\":4692:4706   */\n      add\n        /* \"#utility.yul\":4677:4706   */\n      swap1\n      pop\n        /* \"#utility.yul\":4543:4712   */\n      swap3\n      swap2\n      pop\n      pop\n      jump\t// out\n        /* \"#utility.yul\":4718:4857   */\n    tag_49:\n        /* \"#utility.yul\":4807:4813   */\n      dup3\n        /* \"#utility.yul\":4802:4805   */\n      dup2\n        /* \"#utility.yul\":4797:4800   */\n      dup4\n        /* \"#utility.yul\":4791:4814   */\n      mcopy\n        /* \"#utility.yul\":4848:4849   */\n      0x00\n        /* \"#utility.yul\":4839:4845   */\n      dup4\n        /* \"#utility.yul\":4834:4837   */\n      dup4\n        /* \"#utility.yul\":4830:4846   */\n      add\n        /* \"#utility.yul\":4823:4850   */\n      mstore\n        /* \"#utility.yul\":4718:4857   */\n      pop\n      pop\n      pop\n      jump\t// out\n        /* \"#utility.yul\":4863:5240   */\n    tag_50:\n        /* \"#utility.yul\":4951:4954   */\n      0x00\n        /* \"#utility.yul\":4979:5018   */\n      tag_108\n        /* \"#utility.yul\":5012:5017   */\n      dup3\n        /* \"#utility.yul\":4979:5018   */\n      tag_47\n      jump\t// in\n    tag_108:\n        /* \"#utility.yul\":5034:5105   */\n      tag_109\n        /* \"#utility.yul\":5098:5104   */\n      dup2\n        /* \"#utility.yul\":5093:5096   */\n      dup6\n        /* \"#utility.yul\":5034:5105   */\n      tag_48\n      jump\t// in\n    tag_109:\n        /* \"#utility.yul\":5027:5105   */\n      swap4\n      pop\n        /* \"#utility.yul\":5114:5179   */\n      tag_110\n        /* \"#utility.yul\":5172:5178   */\n      dup2\n        /* \"#utility.yul\":5167:5170   */\n      dup6\n        /* \"#utility.yul\":5160:5164   */\n      0x20\n        /* \"#utility.yul\":5153:5158   */\n      dup7\n        /* \"#utility.yul\":5149:5165   */\n      add\n        /* \"#utility.yul\":5114:5179   */\n      tag_49\n      jump\t// in\n    tag_110:\n        /* \"#utility.yul\":5204:5233   */\n      tag_111\n        /* \"#utility.yul\":5226:5232   */\n      dup2\n        /* \"#utility.yul\":5204:5233   */\n      tag_35\n      jump\t// in\n    tag_111:\n        /* \"#utility.yul\":5199:5202   */\n      dup5\n        /* \"#utility.yul\":5195:5234   */\n      add\n        /* \"#utility.yul\":5188:5234   */\n      swap2\n      pop\n        /* \"#utility.yul\":4955:5240   */\n      pop\n        /* \"#utility.yul\":4863:5240   */\n      swap3\n      swap2\n      pop\n      pop\n      jump\t// out\n        /* \"#utility.yul\":5246:5669   */\n    tag_20:\n        /* \"#utility.yul\":5387:5391   */\n      0x00\n        /* \"#utility.yul\":5425:5427   */\n      0x40\n        /* \"#utility.yul\":5414:5423   */\n      dup3\n        /* \"#utility.yul\":5410:5428   */\n      add\n        /* \"#utility.yul\":5402:5428   */\n      swap1\n      pop\n        /* \"#utility.yul\":5474:5483   */\n      dup2\n        /* \"#utility.yul\":5468:5472   */\n      dup2\n        /* \"#utility.yul\":5464:5484   */\n      sub\n        /* \"#utility.yul\":5460:5461   */\n      0x00\n        /* \"#utility.yul\":5449:5458   */\n      dup4\n        /* \"#utility.yul\":5445:5462   */\n      add\n        /* \"#utility.yul\":5438:5485   */\n      mstore\n        /* \"#utility.yul\":5502:5580   */\n      tag_113\n        /* \"#utility.yul\":5575:5579   */\n      dup2\n        /* \"#utility.yul\":5566:5572   */\n      dup6\n        /* \"#utility.yul\":5502:5580   */\n      tag_50\n      jump\t// in\n    tag_113:\n        /* \"#utility.yul\":5494:5580   */\n      swap1\n      pop\n        /* \"#utility.yul\":5590:5662   */\n      tag_114\n        /* \"#utility.yul\":5658:5660   */\n      0x20\n        /* \"#utility.yul\":5647:5656   */\n      dup4\n        /* \"#utility.yul\":5643:5661   */\n      add\n        /* \"#utility.yul\":5634:5640   */\n      dup5\n        /* \"#utility.yul\":5590:5662   */\n      tag_44\n      jump\t// in\n    tag_114:\n        /* \"#utility.yul\":5246:5669   */\n      swap4\n      swap3\n      pop\n      pop\n      pop\n      jump\t// out\n        /* \"#utility.yul\":5675:6004   */\n    tag_23:\n        /* \"#utility.yul\":5734:5740   */\n      0x00\n        /* \"#utility.yul\":5783:5785   */\n      0x20\n        /* \"#utility.yul\":5771:5780   */\n      dup3\n        /* \"#utility.yul\":5762:5769   */\n      dup5\n        /* \"#utility.yul\":5758:5781   */\n      sub\n        /* \"#utility.yul\":5754:5786   */\n      slt\n        /* \"#utility.yul\":5751:5870   */\n      iszero\n      tag_116\n      jumpi\n        /* \"#utility.yul\":5789:5868   */\n      tag_117\n      tag_31\n      jump\t// in\n    tag_117:\n        /* \"#utility.yul\":5751:5870   */\n    tag_116:\n        /* \"#utility.yul\":5909:5910   */\n      0x00\n        /* \"#utility.yul\":5934:5987   */\n      tag_118\n        /* \"#utility.yul\":5979:5986   */\n      dup5\n        /* \"#utility.yul\":5970:5976   */\n      dup3\n        /* \"#utility.yul\":5959:5968   */\n      dup6\n        /* \"#utility.yul\":5955:5977   */\n      add\n        /* \"#utility.yul\":5934:5987   */\n      tag_46\n      jump\t// in\n    tag_118:\n        /* \"#utility.yul\":5924:5987   */\n      swap2\n      pop\n        /* \"#utility.yul\":5880:5997   */\n      pop\n        /* \"#utility.yul\":5675:6004   */\n      swap3\n      swap2\n      pop\n      pop\n      jump\t// out\n\n    auxdata: 0xa264697066735822122049878a712ceb45f9bf6e1b07bd00afe766c1501b155e045a4ac88771d6ce81f164736f6c634300081a0033\n}\n",
				"bytecode": {
					"linkReferences": {},
					"object": "60806040525f805f6101000a81548173ffffffffffffffffffffffffffffffffffffffff021916908373ffffffffffffffffffffffffffffffffffffffff160217905550348015604d575f80fd5b506104798061005b5f395ff3fe608060405234801561000f575f80fd5b506004361061004a575f3560e01c80633449f57c1461004e5780635d7972061461007e57806384e094281461009a578063bd11e01c146100b9575b5f80fd5b6100686004803603810190610063919061028e565b6100e9565b60405161007591906102ed565b60405180910390f35b61009860048036038101906100939190610330565b610116565b005b6100a261011a565b6040516100b09291906103ea565b60405180910390f35b6100d360048036038101906100ce9190610418565b610121565b6040516100e091906102ed565b60405180910390f35b6002818051602081018201805184825260208301602085012081835280955050505050505f915090505481565b5050565b60605f9091565b60018181548110610130575f80fd5b905f5260205f20015f915090505481565b5f604051905090565b5f80fd5b5f80fd5b5f80fd5b5f80fd5b5f601f19601f8301169050919050565b7f4e487b71000000000000000000000000000000000000000000000000000000005f52604160045260245ffd5b6101a08261015a565b810181811067ffffffffffffffff821117156101bf576101be61016a565b5b80604052505050565b5f6101d1610141565b90506101dd8282610197565b919050565b5f67ffffffffffffffff8211156101fc576101fb61016a565b5b6102058261015a565b9050602081019050919050565b828183375f83830152505050565b5f61023261022d846101e2565b6101c8565b90508281526020810184848401111561024e5761024d610156565b5b610259848285610212565b509392505050565b5f82601f83011261027557610274610152565b5b8135610285848260208601610220565b91505092915050565b5f602082840312156102a3576102a261014a565b5b5f82013567ffffffffffffffff8111156102c0576102bf61014e565b5b6102cc84828501610261565b91505092915050565b5f819050919050565b6102e7816102d5565b82525050565b5f6020820190506103005f8301846102de565b92915050565b61030f816102d5565b8114610319575f80fd5b50565b5f8135905061032a81610306565b92915050565b5f80604083850312156103465761034561014a565b5b5f83013567ffffffffffffffff8111156103635761036261014e565b5b61036f85828601610261565b92505060206103808582860161031c565b9150509250929050565b5f81519050919050565b5f82825260208201905092915050565b8281835e5f83830152505050565b5f6103bc8261038a565b6103c68185610394565b93506103d68185602086016103a4565b6103df8161015a565b840191505092915050565b5f6040820190508181035f83015261040281856103b2565b905061041160208301846102de565b9392505050565b5f6020828403121561042d5761042c61014a565b5b5f61043a8482850161031c565b9150509291505056fea264697066735822122049878a712ceb45f9bf6e1b07bd00afe766c1501b155e045a4ac88771d6ce81f164736f6c634300081a0033",
					"opcodes": "PUSH1 0x80 PUSH1 0x40 MSTORE PUSH0 DUP1 PUSH0 PUSH2 0x100 EXP DUP2 SLOAD DUP2 PUSH20 0xFFFFFFFFFFFFFFFFFFFFFFFFFFFFFFFFFFFFFFFF MUL NOT AND SWAP1 DUP4 PUSH20 0xFFFFFFFFFFFFFFFFFFFFFFFFFFFFFFFFFFFFFFFF AND MUL OR SWAP1 SSTORE POP CALLVALUE DUP1 ISZERO PUSH1 0x4D JUMPI PUSH0 DUP1 REVERT JUMPDEST POP PUSH2 0x479 DUP1 PUSH2 0x5B PUSH0 CODECOPY PUSH0 RETURN INVALID PUSH1 0x80 PUSH1 0x40 MSTORE CALLVALUE DUP1 ISZERO PUSH2 0xF JUMPI PUSH0 DUP1 REVERT JUMPDEST POP PUSH1 0x4 CALLDATASIZE LT PUSH2 0x4A JUMPI PUSH0 CALLDATALOAD PUSH1 0xE0 SHR DUP1 PUSH4 0x3449F57C EQ PUSH2 0x4E JUMPI DUP1 PUSH4 0x5D797206 EQ PUSH2 0x7E JUMPI DUP1 PUSH4 0x84E09428 EQ PUSH2 0x9A JUMPI DUP1 PUSH4 0xBD11E01C EQ PUSH2 0xB9 JUMPI JUMPDEST PUSH0 DUP1 REVERT JUMPDEST PUSH2 0x68 PUSH1 0x4 DUP1 CALLDATASIZE SUB DUP2 ADD SWAP1 PUSH2 0x63 SWAP2 SWAP1 PUSH2 0x28E JUMP JUMPDEST PUSH2 0xE9 JUMP JUMPDEST PUSH1 0x40 MLOAD PUSH2 0x75 SWAP2 SWAP1 PUSH2 0x2ED JUMP JUMPDEST PUSH1 0x40 MLOAD DUP1 SWAP2 SUB SWAP1 RETURN JUMPDEST PUSH2 0x98 PUSH1 0x4 DUP1 CALLDATASIZE SUB DUP2 ADD SWAP1 PUSH2 0x93 SWAP2 SWAP1 PUSH2 0x330 JUMP JUMPDEST PUSH2 0x116 JUMP JUMPDEST STOP JUMPDEST PUSH2 0xA2 PUSH2 0x11A JUMP JUMPDEST PUSH1 0x40 MLOAD PUSH2 0xB0 SWAP3 SWAP2 SWAP1 PUSH2 0x3EA JUMP JUMPDEST PUSH1 0x40 MLOAD DUP1 SWAP2 SUB SWAP1 RETURN JUMPDEST PUSH2 0xD3 PUSH1 0x4 DUP1 CALLDATASIZE SUB DUP2 ADD SWAP1 PUSH2 0xCE SWAP2 SWAP1 PUSH2 0x418 JUMP JUMPDEST PUSH2 0x121 JUMP JUMPDEST PUSH1 0x40 MLOAD PUSH2 0xE0 SWAP2 SWAP1 PUSH2 0x2ED JUMP JUMPDEST PUSH1 0x40 MLOAD DUP1 SWAP2 SUB SWAP1 RETURN JUMPDEST PUSH1 0x2 DUP2 DUP1 MLOAD PUSH1 0x20 DUP2 ADD DUP3 ADD DUP1 MLOAD DUP5 DUP3 MSTORE PUSH1 0x20 DUP4 ADD PUSH1 0x20 DUP6 ADD KECCAK256 DUP2 DUP4 MSTORE DUP1 SWAP6 POP POP POP POP POP POP PUSH0 SWAP2 POP SWAP1 POP SLOAD DUP2 JUMP JUMPDEST POP POP JUMP JUMPDEST PUSH1 0x60 PUSH0 SWAP1 SWAP2 JUMP JUMPDEST PUSH1 0x1 DUP2 DUP2 SLOAD DUP2 LT PUSH2 0x130 JUMPI PUSH0 DUP1 REVERT JUMPDEST SWAP1 PUSH0 MSTORE PUSH1 0x20 PUSH0 KECCAK256 ADD PUSH0 SWAP2 POP SWAP1 POP SLOAD DUP2 JUMP JUMPDEST PUSH0 PUSH1 0x40 MLOAD SWAP1 POP SWAP1 JUMP JUMPDEST PUSH0 DUP1 REVERT JUMPDEST PUSH0 DUP1 REVERT JUMPDEST PUSH0 DUP1 REVERT JUMPDEST PUSH0 DUP1 REVERT JUMPDEST PUSH0 PUSH1 0x1F NOT PUSH1 0x1F DUP4 ADD AND SWAP1 POP SWAP2 SWAP1 POP JUMP JUMPDEST PUSH32 0x4E487B7100000000000000000000000000000000000000000000000000000000 PUSH0 MSTORE PUSH1 0x41 PUSH1 0x4 MSTORE PUSH1 0x24 PUSH0 REVERT JUMPDEST PUSH2 0x1A0 DUP3 PUSH2 0x15A JUMP JUMPDEST DUP2 ADD DUP2 DUP2 LT PUSH8 0xFFFFFFFFFFFFFFFF DUP3 GT OR ISZERO PUSH2 0x1BF JUMPI PUSH2 0x1BE PUSH2 0x16A JUMP JUMPDEST JUMPDEST DUP1 PUSH1 0x40 MSTORE POP POP POP JUMP JUMPDEST PUSH0 PUSH2 0x1D1 PUSH2 0x141 JUMP JUMPDEST SWAP1 POP PUSH2 0x1DD DUP3 DUP3 PUSH2 0x197 JUMP JUMPDEST SWAP2 SWAP1 POP JUMP JUMPDEST PUSH0 PUSH8 0xFFFFFFFFFFFFFFFF DUP3 GT ISZERO PUSH2 0x1FC JUMPI PUSH2 0x1FB PUSH2 0x16A JUMP JUMPDEST JUMPDEST PUSH2 0x205 DUP3 PUSH2 0x15A JUMP JUMPDEST SWAP1 POP PUSH1 0x20 DUP2 ADD SWAP1 POP SWAP2 SWAP1 POP JUMP JUMPDEST DUP3 DUP2 DUP4 CALLDATACOPY PUSH0 DUP4 DUP4 ADD MSTORE POP POP POP JUMP JUMPDEST PUSH0 PUSH2 0x232 PUSH2 0x22D DUP5 PUSH2 0x1E2 JUMP JUMPDEST PUSH2 0x1C8 JUMP JUMPDEST SWAP1 POP DUP3 DUP2 MSTORE PUSH1 0x20 DUP2 ADD DUP5 DUP5 DUP5 ADD GT ISZERO PUSH2 0x24E JUMPI PUSH2 0x24D PUSH2 0x156 JUMP JUMPDEST JUMPDEST PUSH2 0x259 DUP5 DUP3 DUP6 PUSH2 0x212 JUMP JUMPDEST POP SWAP4 SWAP3 POP POP POP JUMP JUMPDEST PUSH0 DUP3 PUSH1 0x1F DUP4 ADD SLT PUSH2 0x275 JUMPI PUSH2 0x274 PUSH2 0x152 JUMP JUMPDEST JUMPDEST DUP2 CALLDATALOAD PUSH2 0x285 DUP5 DUP3 PUSH1 0x20 DUP7 ADD PUSH2 0x220 JUMP JUMPDEST SWAP2 POP POP SWAP3 SWAP2 POP POP JUMP JUMPDEST PUSH0 PUSH1 0x20 DUP3 DUP5 SUB SLT ISZERO PUSH2 0x2A3 JUMPI PUSH2 0x2A2 PUSH2 0x14A JUMP JUMPDEST JUMPDEST PUSH0 DUP3 ADD CALLDATALOAD PUSH8 0xFFFFFFFFFFFFFFFF DUP2 GT ISZERO PUSH2 0x2C0 JUMPI PUSH2 0x2BF PUSH2 0x14E JUMP JUMPDEST JUMPDEST PUSH2 0x2CC DUP5 DUP3 DUP6 ADD PUSH2 0x261 JUMP JUMPDEST SWAP2 POP POP SWAP3 SWAP2 POP POP JUMP JUMPDEST PUSH0 DUP2 SWAP1 POP SWAP2 SWAP1 POP JUMP JUMPDEST PUSH2 0x2E7 DUP2 PUSH2 0x2D5 JUMP JUMPDEST DUP3 MSTORE POP POP JUMP JUMPDEST PUSH0 PUSH1 0x20 DUP3 ADD SWAP1 POP PUSH2 0x300 PUSH0 DUP4 ADD DUP5 PUSH2 0x2DE JUMP JUMPDEST SWAP3 SWAP2 POP POP JUMP JUMPDEST PUSH2 0x30F DUP2 PUSH2 0x2D5 JUMP JUMPDEST DUP2 EQ PUSH2 0x319 JUMPI PUSH0 DUP1 REVERT JUMPDEST POP JUMP JUMPDEST PUSH0 DUP2 CALLDATALOAD SWAP1 POP PUSH2 0x32A DUP2 PUSH2 0x306 JUMP JUMPDEST SWAP3 SWAP2 POP POP JUMP JUMPDEST PUSH0 DUP1 PUSH1 0x40 DUP4 DUP6 SUB SLT ISZERO PUSH2 0x346 JUMPI PUSH2 0x345 PUSH2 0x14A JUMP JUMPDEST JUMPDEST PUSH0 DUP4 ADD CALLDATALOAD PUSH8 0xFFFFFFFFFFFFFFFF DUP2 GT ISZERO PUSH2 0x363 JUMPI PUSH2 0x362 PUSH2 0x14E JUMP JUMPDEST JUMPDEST PUSH2 0x36F DUP6 DUP3 DUP7 ADD PUSH2 0x261 JUMP JUMPDEST SWAP3 POP POP PUSH1 0x20 PUSH2 0x380 DUP6 DUP3 DUP7 ADD PUSH2 0x31C JUMP JUMPDEST SWAP2 POP POP SWAP3 POP SWAP3 SWAP1 POP JUMP JUMPDEST PUSH0 DUP2 MLOAD SWAP1 POP SWAP2 SWAP1 POP JUMP JUMPDEST PUSH0 DUP3 DUP3 MSTORE PUSH1 0x20 DUP3 ADD SWAP1 POP SWAP3 SWAP2 POP POP JUMP JUMPDEST DUP3 DUP2 DUP4 MCOPY PUSH0 DUP4 DUP4 ADD MSTORE POP POP POP JUMP JUMPDEST PUSH0 PUSH2 0x3BC DUP3 PUSH2 0x38A JUMP JUMPDEST PUSH2 0x3C6 DUP2 DUP6 PUSH2 0x394 JUMP JUMPDEST SWAP4 POP PUSH2 0x3D6 DUP2 DUP6 PUSH1 0x20 DUP7 ADD PUSH2 0x3A4 JUMP JUMPDEST PUSH2 0x3DF DUP2 PUSH2 0x15A JUMP JUMPDEST DUP5 ADD SWAP2 POP POP SWAP3 SWAP2 POP POP JUMP JUMPDEST PUSH0 PUSH1 0x40 DUP3 ADD SWAP1 POP DUP2 DUP2 SUB PUSH0 DUP4 ADD MSTORE PUSH2 0x402 DUP2 DUP6 PUSH2 0x3B2 JUMP JUMPDEST SWAP1 POP PUSH2 0x411 PUSH1 0x20 DUP4 ADD DUP5 PUSH2 0x2DE JUMP JUMPDEST SWAP4 SWAP3 POP POP POP JUMP JUMPDEST PUSH0 PUSH1 0x20 DUP3 DUP5 SUB SLT ISZERO PUSH2 0x42D JUMPI PUSH2 0x42C PUSH2 0x14A JUMP JUMPDEST JUMPDEST PUSH0 PUSH2 0x43A DUP5 DUP3 DUP6 ADD PUSH2 0x31C JUMP JUMPDEST SWAP2 POP POP SWAP3 SWAP2 POP POP JUMP INVALID LOG2 PUSH5 0x6970667358 0x22 SLT KECCAK256 BLOBHASH DUP8 DUP11 PUSH18 0x2CEB45F9BF6E1B07BD00AFE766C1501B155E DIV GAS BLOBBASEFEE 0xC8 DUP8 PUSH18 0xD6CE81F164736F6C634300081A0033000000 "
				},
				"gasEstimates": {
					"creation": {
						"codeDepositCost": "229000",
						"executionCost": "24532",
						"totalCost": "253532"
					},
					"external": {
						"donatorji(uint256)": "infinite",
						"donatorjiAdd(string,uint256)": "infinite",
						"prispevali(string)": "infinite",
						"useMemoryCallData()": "infinite"
					}
				},
				"methodIdentifiers": {
					"donatorji(uint256)": "bd11e01c",
					"donatorjiAdd(string,uint256)": "5d797206",
					"prispevali(string)": "3449f57c",
					"useMemoryCallData()": "84e09428"
				}
			},
			"storageLayout": {
				"storage": [
					{
						"astId": 7,
						"contract": "StorageMemoryCalldata.sol:PagadbaII",
						"label": "mujNaslov",
						"offset": 0,
						"slot": "0",
						"type": "t_address"
					},
					{
						"astId": 10,
						"contract": "StorageMemoryCalldata.sol:PagadbaII",
						"label": "donatorji",
						"offset": 0,
						"slot": "1",
						"type": "t_array(t_uint256)dyn_storage"
					},
					{
						"astId": 14,
						"contract": "StorageMemoryCalldata.sol:PagadbaII",
						"label": "prispevali",
						"offset": 0,
						"slot": "2",
						"type": "t_mapping(t_string_memory_ptr,t_uint256)"
					}
				],
				"types": {
					"t_address": {
						"encoding": "inplace",
						"label": "address",
						"numberOfBytes": "20"
					},
					"t_array(t_uint256)dyn_storage": {
						"base": "t_uint256",
						"encoding": "dynamic_array",
						"label": "uint256[]",
						"numberOfBytes": "32"
					},
					"t_mapping(t_string_memory_ptr,t_uint256)": {
						"encoding": "mapping",
						"key": "t_string_memory_ptr",
						"label": "mapping(string => uint256)",
						"numberOfBytes": "32",
						"value": "t_uint256"
					},
					"t_string_memory_ptr": {
						"encoding": "bytes",
						"label": "string",
						"numberOfBytes": "32"
					},
					"t_uint256": {
						"encoding": "inplace",
						"label": "uint256",
						"numberOfBytes": "32"
					}
				}
			},
			"userdoc": {
				"kind": "user",
				"methods": {},
				"version": 1
			}
		}
	}
}