{
	"donacije.sol": {
		"Fundacija": {
			"abi": [
				{
					"inputs": [
						{
							"internalType": "uint256",
							"name": "_donacija",
							"type": "uint256"
						}
					],
					"name": "addDonator",
					"outputs": [],
					"stateMutability": "nonpayable",
					"type": "function"
				},
				{
					"inputs": [],
					"name": "addPrispevek",
					"outputs": [],
					"stateMutability": "payable",
					"type": "function"
				},
				{
					"inputs": [
						{
							"internalType": "uint256",
							"name": "",
							"type": "uint256"
						}
					],
					"name": "donatorsList",
					"outputs": [
						{
							"internalType": "address",
							"name": "donatorAdress",
							"type": "address"
						},
						{
							"internalType": "uint256",
							"name": "donacija",
							"type": "uint256"
						}
					],
					"stateMutability": "view",
					"type": "function"
				},
				{
					"inputs": [],
					"name": "viewDonator",
					"outputs": [
						{
							"components": [
								{
									"internalType": "address",
									"name": "donatorAdress",
									"type": "address"
								},
								{
									"internalType": "uint256",
									"name": "donacija",
									"type": "uint256"
								}
							],
							"internalType": "struct Fundacija.Donator[]",
							"name": "",
							"type": "tuple[]"
						}
					],
					"stateMutability": "view",
					"type": "function"
				}
			],
			"devdoc": {
				"kind": "dev",
				"methods": {},
				"version": 1
			},
			"evm": {
				"assembly": "    /* \"donacije.sol\":61:1240  contract Fundacija {... */\n  mstore(0x40, 0x80)\n  callvalue\n  dup1\n  iszero\n  tag_1\n  jumpi\n  0x00\n  dup1\n  revert\ntag_1:\n  pop\n  dataSize(sub_0)\n  dup1\n  dataOffset(sub_0)\n  0x00\n  codecopy\n  0x00\n  return\nstop\n\nsub_0: assembly {\n        /* \"donacije.sol\":61:1240  contract Fundacija {... */\n      mstore(0x40, 0x80)\n      jumpi(tag_1, lt(calldatasize, 0x04))\n      shr(0xe0, calldataload(0x00))\n      dup1\n      0x1761bfc9\n      eq\n      tag_2\n      jumpi\n      dup1\n      0x57ba44c1\n      eq\n      tag_3\n      jumpi\n      dup1\n      0x73e596bb\n      eq\n      tag_4\n      jumpi\n      dup1\n      0xd1a0ef70\n      eq\n      tag_5\n      jumpi\n    tag_1:\n      0x00\n      dup1\n      revert\n        /* \"donacije.sol\":1112:1237  function addPrispevek() external payable {... */\n    tag_2:\n      tag_6\n      tag_7\n      jump\t// in\n    tag_6:\n      stop\n        /* \"donacije.sol\":402:501  function viewDonator() public view returns (Donator[] memory) {... */\n    tag_3:\n      callvalue\n      dup1\n      iszero\n      tag_8\n      jumpi\n      0x00\n      dup1\n      revert\n    tag_8:\n      pop\n      tag_9\n      tag_10\n      jump\t// in\n    tag_9:\n      mload(0x40)\n      tag_11\n      swap2\n      swap1\n      tag_12\n      jump\t// in\n    tag_11:\n      mload(0x40)\n      dup1\n      swap2\n      sub\n      swap1\n      return\n        /* \"donacije.sol\":278:394  function addDonator(uint256 _donacija) public   {... */\n    tag_4:\n      callvalue\n      dup1\n      iszero\n      tag_13\n      jumpi\n      0x00\n      dup1\n      revert\n    tag_13:\n      pop\n      tag_14\n      0x04\n      dup1\n      calldatasize\n      sub\n      dup2\n      add\n      swap1\n      tag_15\n      swap2\n      swap1\n      tag_16\n      jump\t// in\n    tag_15:\n      tag_17\n      jump\t// in\n    tag_14:\n      stop\n        /* \"donacije.sol\":180:210  Donator[] public  donatorsList */\n    tag_5:\n      callvalue\n      dup1\n      iszero\n      tag_18\n      jumpi\n      0x00\n      dup1\n      revert\n    tag_18:\n      pop\n      tag_19\n      0x04\n      dup1\n      calldatasize\n      sub\n      dup2\n      add\n      swap1\n      tag_20\n      swap2\n      swap1\n      tag_16\n      jump\t// in\n    tag_20:\n      tag_21\n      jump\t// in\n    tag_19:\n      mload(0x40)\n      tag_22\n      swap3\n      swap2\n      swap1\n      tag_23\n      jump\t// in\n    tag_22:\n      mload(0x40)\n      dup1\n      swap2\n      sub\n      swap1\n      return\n        /* \"donacije.sol\":1112:1237  function addPrispevek() external payable {... */\n    tag_7:\n        /* \"donacije.sol\":1182:1187  10000 */\n      0x2710\n        /* \"donacije.sol\":1172:1181  msg.value */\n      callvalue\n        /* \"donacije.sol\":1172:1187  msg.value>10000 */\n      gt\n        /* \"donacije.sol\":1164:1229  require(msg.value>10000,'Prispevek je ni\\u017Eji od minimalnega') */\n      tag_25\n      jumpi\n      mload(0x40)\n      0x08c379a000000000000000000000000000000000000000000000000000000000\n      dup2\n      mstore\n      0x04\n      add\n      tag_26\n      swap1\n      tag_27\n      jump\t// in\n    tag_26:\n      mload(0x40)\n      dup1\n      swap2\n      sub\n      swap1\n      revert\n    tag_25:\n        /* \"donacije.sol\":1112:1237  function addPrispevek() external payable {... */\n      jump\t// out\n        /* \"donacije.sol\":402:501  function viewDonator() public view returns (Donator[] memory) {... */\n    tag_10:\n        /* \"donacije.sol\":446:462  Donator[] memory */\n      0x60\n        /* \"donacije.sol\":481:493  donatorsList */\n      0x00\n        /* \"donacije.sol\":474:493  return donatorsList */\n      dup1\n      sload\n      dup1\n      0x20\n      mul\n      0x20\n      add\n      mload(0x40)\n      swap1\n      dup2\n      add\n      0x40\n      mstore\n      dup1\n      swap3\n      swap2\n      swap1\n      dup2\n      dup2\n      mstore\n      0x20\n      add\n      0x00\n      swap1\n    tag_29:\n      dup3\n      dup3\n      lt\n      iszero\n      tag_30\n      jumpi\n      dup4\n      dup3\n      swap1\n      0x00\n      mstore\n      keccak256(0x00, 0x20)\n      swap1\n      0x02\n      mul\n      add\n      mload(0x40)\n      dup1\n      0x40\n      add\n      0x40\n      mstore\n      swap1\n      dup2\n      0x00\n      dup3\n      add\n      0x00\n      swap1\n      sload\n      swap1\n      0x0100\n      exp\n      swap1\n      div\n      0xffffffffffffffffffffffffffffffffffffffff\n      and\n      0xffffffffffffffffffffffffffffffffffffffff\n      and\n      0xffffffffffffffffffffffffffffffffffffffff\n      and\n      dup2\n      mstore\n      0x20\n      add\n      0x01\n      dup3\n      add\n      sload\n      dup2\n      mstore\n      pop\n      pop\n      dup2\n      mstore\n      0x20\n      add\n      swap1\n      0x01\n      add\n      swap1\n      jump(tag_29)\n    tag_30:\n      pop\n      pop\n      pop\n      pop\n      swap1\n      pop\n        /* \"donacije.sol\":402:501  function viewDonator() public view returns (Donator[] memory) {... */\n      swap1\n      jump\t// out\n        /* \"donacije.sol\":278:394  function addDonator(uint256 _donacija) public   {... */\n    tag_17:\n        /* \"donacije.sol\":337:349  donatorsList */\n      0x00\n        /* \"donacije.sol\":355:385  Donator(msg.sender, _donacija) */\n      mload(0x40)\n      dup1\n      0x40\n      add\n      0x40\n      mstore\n      dup1\n        /* \"donacije.sol\":363:373  msg.sender */\n      caller\n        /* \"donacije.sol\":355:385  Donator(msg.sender, _donacija) */\n      0xffffffffffffffffffffffffffffffffffffffff\n      and\n      dup2\n      mstore\n      0x20\n      add\n        /* \"donacije.sol\":375:384  _donacija */\n      dup4\n        /* \"donacije.sol\":355:385  Donator(msg.sender, _donacija) */\n      dup2\n      mstore\n      pop\n        /* \"donacije.sol\":337:386  donatorsList.push(Donator(msg.sender, _donacija)) */\n      swap1\n      dup1\n      0x01\n      dup2\n      sload\n      add\n      dup1\n      dup3\n      sstore\n      dup1\n      swap2\n      pop\n      pop\n      0x01\n      swap1\n      sub\n      swap1\n      0x00\n      mstore\n      keccak256(0x00, 0x20)\n      swap1\n      0x02\n      mul\n      add\n      0x00\n      swap1\n      swap2\n      swap1\n      swap2\n      swap1\n      swap2\n      pop\n      0x00\n      dup3\n      add\n      mload\n      dup2\n      0x00\n      add\n      exp(0x0100, 0x00)\n      dup2\n      sload\n      dup2\n      0xffffffffffffffffffffffffffffffffffffffff\n      mul\n      not\n      and\n      swap1\n      dup4\n      0xffffffffffffffffffffffffffffffffffffffff\n      and\n      mul\n      or\n      swap1\n      sstore\n      pop\n      0x20\n      dup3\n      add\n      mload\n      dup2\n      0x01\n      add\n      sstore\n      pop\n      pop\n        /* \"donacije.sol\":278:394  function addDonator(uint256 _donacija) public   {... */\n      pop\n      jump\t// out\n        /* \"donacije.sol\":180:210  Donator[] public  donatorsList */\n    tag_21:\n      0x00\n      dup2\n      dup2\n      sload\n      dup2\n      lt\n      tag_34\n      jumpi\n      0x00\n      dup1\n      revert\n    tag_34:\n      swap1\n      0x00\n      mstore\n      keccak256(0x00, 0x20)\n      swap1\n      0x02\n      mul\n      add\n      0x00\n      swap2\n      pop\n      swap1\n      pop\n      dup1\n      0x00\n      add\n      0x00\n      swap1\n      sload\n      swap1\n      0x0100\n      exp\n      swap1\n      div\n      0xffffffffffffffffffffffffffffffffffffffff\n      and\n      swap1\n      dup1\n      0x01\n      add\n      sload\n      swap1\n      pop\n      dup3\n      jump\t// out\n        /* \"#utility.yul\":7:143   */\n    tag_36:\n        /* \"#utility.yul\":96:102   */\n      0x00\n        /* \"#utility.yul\":130:135   */\n      dup2\n        /* \"#utility.yul\":124:136   */\n      mload\n        /* \"#utility.yul\":114:136   */\n      swap1\n      pop\n        /* \"#utility.yul\":7:143   */\n      swap2\n      swap1\n      pop\n      jump\t// out\n        /* \"#utility.yul\":149:355   */\n    tag_37:\n        /* \"#utility.yul\":270:281   */\n      0x00\n        /* \"#utility.yul\":304:310   */\n      dup3\n        /* \"#utility.yul\":299:302   */\n      dup3\n        /* \"#utility.yul\":292:311   */\n      mstore\n        /* \"#utility.yul\":344:348   */\n      0x20\n        /* \"#utility.yul\":339:342   */\n      dup3\n        /* \"#utility.yul\":335:349   */\n      add\n        /* \"#utility.yul\":320:349   */\n      swap1\n      pop\n        /* \"#utility.yul\":149:355   */\n      swap3\n      swap2\n      pop\n      pop\n      jump\t// out\n        /* \"#utility.yul\":361:515   */\n    tag_38:\n        /* \"#utility.yul\":450:454   */\n      0x00\n        /* \"#utility.yul\":473:476   */\n      dup2\n        /* \"#utility.yul\":465:476   */\n      swap1\n      pop\n        /* \"#utility.yul\":503:507   */\n      0x20\n        /* \"#utility.yul\":498:501   */\n      dup3\n        /* \"#utility.yul\":494:508   */\n      add\n        /* \"#utility.yul\":486:508   */\n      swap1\n      pop\n        /* \"#utility.yul\":361:515   */\n      swap2\n      swap1\n      pop\n      jump\t// out\n        /* \"#utility.yul\":521:647   */\n    tag_39:\n        /* \"#utility.yul\":558:565   */\n      0x00\n        /* \"#utility.yul\":598:640   */\n      0xffffffffffffffffffffffffffffffffffffffff\n        /* \"#utility.yul\":591:596   */\n      dup3\n        /* \"#utility.yul\":587:641   */\n      and\n        /* \"#utility.yul\":576:641   */\n      swap1\n      pop\n        /* \"#utility.yul\":521:647   */\n      swap2\n      swap1\n      pop\n      jump\t// out\n        /* \"#utility.yul\":653:749   */\n    tag_40:\n        /* \"#utility.yul\":690:697   */\n      0x00\n        /* \"#utility.yul\":719:743   */\n      tag_64\n        /* \"#utility.yul\":737:742   */\n      dup3\n        /* \"#utility.yul\":719:743   */\n      tag_39\n      jump\t// in\n    tag_64:\n        /* \"#utility.yul\":708:743   */\n      swap1\n      pop\n        /* \"#utility.yul\":653:749   */\n      swap2\n      swap1\n      pop\n      jump\t// out\n        /* \"#utility.yul\":755:863   */\n    tag_41:\n        /* \"#utility.yul\":832:856   */\n      tag_66\n        /* \"#utility.yul\":850:855   */\n      dup2\n        /* \"#utility.yul\":832:856   */\n      tag_40\n      jump\t// in\n    tag_66:\n        /* \"#utility.yul\":827:830   */\n      dup3\n        /* \"#utility.yul\":820:857   */\n      mstore\n        /* \"#utility.yul\":755:863   */\n      pop\n      pop\n      jump\t// out\n        /* \"#utility.yul\":869:946   */\n    tag_42:\n        /* \"#utility.yul\":906:913   */\n      0x00\n        /* \"#utility.yul\":935:940   */\n      dup2\n        /* \"#utility.yul\":924:940   */\n      swap1\n      pop\n        /* \"#utility.yul\":869:946   */\n      swap2\n      swap1\n      pop\n      jump\t// out\n        /* \"#utility.yul\":952:1060   */\n    tag_43:\n        /* \"#utility.yul\":1029:1053   */\n      tag_69\n        /* \"#utility.yul\":1047:1052   */\n      dup2\n        /* \"#utility.yul\":1029:1053   */\n      tag_42\n      jump\t// in\n    tag_69:\n        /* \"#utility.yul\":1024:1027   */\n      dup3\n        /* \"#utility.yul\":1017:1054   */\n      mstore\n        /* \"#utility.yul\":952:1060   */\n      pop\n      pop\n      jump\t// out\n        /* \"#utility.yul\":1126:1630   */\n    tag_44:\n        /* \"#utility.yul\":1257:1261   */\n      0x40\n        /* \"#utility.yul\":1252:1255   */\n      dup3\n        /* \"#utility.yul\":1248:1262   */\n      add\n        /* \"#utility.yul\":1353:1357   */\n      0x00\n        /* \"#utility.yul\":1346:1351   */\n      dup3\n        /* \"#utility.yul\":1342:1358   */\n      add\n        /* \"#utility.yul\":1336:1359   */\n      mload\n        /* \"#utility.yul\":1372:1435   */\n      tag_71\n        /* \"#utility.yul\":1429:1433   */\n      0x00\n        /* \"#utility.yul\":1424:1427   */\n      dup6\n        /* \"#utility.yul\":1420:1434   */\n      add\n        /* \"#utility.yul\":1406:1418   */\n      dup3\n        /* \"#utility.yul\":1372:1435   */\n      tag_41\n      jump\t// in\n    tag_71:\n        /* \"#utility.yul\":1272:1445   */\n      pop\n        /* \"#utility.yul\":1531:1535   */\n      0x20\n        /* \"#utility.yul\":1524:1529   */\n      dup3\n        /* \"#utility.yul\":1520:1536   */\n      add\n        /* \"#utility.yul\":1514:1537   */\n      mload\n        /* \"#utility.yul\":1550:1613   */\n      tag_72\n        /* \"#utility.yul\":1607:1611   */\n      0x20\n        /* \"#utility.yul\":1602:1605   */\n      dup6\n        /* \"#utility.yul\":1598:1612   */\n      add\n        /* \"#utility.yul\":1584:1596   */\n      dup3\n        /* \"#utility.yul\":1550:1613   */\n      tag_43\n      jump\t// in\n    tag_72:\n        /* \"#utility.yul\":1455:1623   */\n      pop\n        /* \"#utility.yul\":1226:1630   */\n      pop\n        /* \"#utility.yul\":1126:1630   */\n      pop\n      pop\n      jump\t// out\n        /* \"#utility.yul\":1636:1903   */\n    tag_45:\n        /* \"#utility.yul\":1749:1759   */\n      0x00\n        /* \"#utility.yul\":1770:1860   */\n      tag_74\n        /* \"#utility.yul\":1856:1859   */\n      dup4\n        /* \"#utility.yul\":1848:1854   */\n      dup4\n        /* \"#utility.yul\":1770:1860   */\n      tag_44\n      jump\t// in\n    tag_74:\n        /* \"#utility.yul\":1892:1896   */\n      0x40\n        /* \"#utility.yul\":1887:1890   */\n      dup4\n        /* \"#utility.yul\":1883:1897   */\n      add\n        /* \"#utility.yul\":1869:1897   */\n      swap1\n      pop\n        /* \"#utility.yul\":1636:1903   */\n      swap3\n      swap2\n      pop\n      pop\n      jump\t// out\n        /* \"#utility.yul\":1909:2044   */\n    tag_46:\n        /* \"#utility.yul\":2001:2005   */\n      0x00\n        /* \"#utility.yul\":2033:2037   */\n      0x20\n        /* \"#utility.yul\":2028:2031   */\n      dup3\n        /* \"#utility.yul\":2024:2038   */\n      add\n        /* \"#utility.yul\":2016:2038   */\n      swap1\n      pop\n        /* \"#utility.yul\":1909:2044   */\n      swap2\n      swap1\n      pop\n      jump\t// out\n        /* \"#utility.yul\":2114:3022   */\n    tag_47:\n        /* \"#utility.yul\":2277:2280   */\n      0x00\n        /* \"#utility.yul\":2306:2382   */\n      tag_77\n        /* \"#utility.yul\":2376:2381   */\n      dup3\n        /* \"#utility.yul\":2306:2382   */\n      tag_36\n      jump\t// in\n    tag_77:\n        /* \"#utility.yul\":2398:2506   */\n      tag_78\n        /* \"#utility.yul\":2499:2505   */\n      dup2\n        /* \"#utility.yul\":2494:2497   */\n      dup6\n        /* \"#utility.yul\":2398:2506   */\n      tag_37\n      jump\t// in\n    tag_78:\n        /* \"#utility.yul\":2391:2506   */\n      swap4\n      pop\n        /* \"#utility.yul\":2530:2608   */\n      tag_79\n        /* \"#utility.yul\":2602:2607   */\n      dup4\n        /* \"#utility.yul\":2530:2608   */\n      tag_38\n      jump\t// in\n    tag_79:\n        /* \"#utility.yul\":2631:2638   */\n      dup1\n        /* \"#utility.yul\":2662:2663   */\n      0x00\n        /* \"#utility.yul\":2647:2997   */\n    tag_80:\n        /* \"#utility.yul\":2672:2678   */\n      dup4\n        /* \"#utility.yul\":2669:2670   */\n      dup2\n        /* \"#utility.yul\":2666:2679   */\n      lt\n        /* \"#utility.yul\":2647:2997   */\n      iszero\n      tag_82\n      jumpi\n        /* \"#utility.yul\":2748:2754   */\n      dup2\n        /* \"#utility.yul\":2742:2755   */\n      mload\n        /* \"#utility.yul\":2775:2882   */\n      tag_83\n        /* \"#utility.yul\":2878:2881   */\n      dup9\n        /* \"#utility.yul\":2863:2876   */\n      dup3\n        /* \"#utility.yul\":2775:2882   */\n      tag_45\n      jump\t// in\n    tag_83:\n        /* \"#utility.yul\":2768:2882   */\n      swap8\n      pop\n        /* \"#utility.yul\":2905:2987   */\n      tag_84\n        /* \"#utility.yul\":2980:2986   */\n      dup4\n        /* \"#utility.yul\":2905:2987   */\n      tag_46\n      jump\t// in\n    tag_84:\n        /* \"#utility.yul\":2895:2987   */\n      swap3\n      pop\n        /* \"#utility.yul\":2707:2997   */\n      pop\n        /* \"#utility.yul\":2694:2695   */\n      0x01\n        /* \"#utility.yul\":2691:2692   */\n      dup2\n        /* \"#utility.yul\":2687:2696   */\n      add\n        /* \"#utility.yul\":2682:2696   */\n      swap1\n      pop\n        /* \"#utility.yul\":2647:2997   */\n      jump(tag_80)\n    tag_82:\n        /* \"#utility.yul\":2651:2665   */\n      pop\n        /* \"#utility.yul\":3013:3016   */\n      dup6\n        /* \"#utility.yul\":3006:3016   */\n      swap4\n      pop\n        /* \"#utility.yul\":2282:3022   */\n      pop\n      pop\n      pop\n        /* \"#utility.yul\":2114:3022   */\n      swap3\n      swap2\n      pop\n      pop\n      jump\t// out\n        /* \"#utility.yul\":3028:3489   */\n    tag_12:\n        /* \"#utility.yul\":3215:3219   */\n      0x00\n        /* \"#utility.yul\":3253:3255   */\n      0x20\n        /* \"#utility.yul\":3242:3251   */\n      dup3\n        /* \"#utility.yul\":3238:3256   */\n      add\n        /* \"#utility.yul\":3230:3256   */\n      swap1\n      pop\n        /* \"#utility.yul\":3302:3311   */\n      dup2\n        /* \"#utility.yul\":3296:3300   */\n      dup2\n        /* \"#utility.yul\":3292:3312   */\n      sub\n        /* \"#utility.yul\":3288:3289   */\n      0x00\n        /* \"#utility.yul\":3277:3286   */\n      dup4\n        /* \"#utility.yul\":3273:3290   */\n      add\n        /* \"#utility.yul\":3266:3313   */\n      mstore\n        /* \"#utility.yul\":3330:3482   */\n      tag_86\n        /* \"#utility.yul\":3477:3481   */\n      dup2\n        /* \"#utility.yul\":3468:3474   */\n      dup5\n        /* \"#utility.yul\":3330:3482   */\n      tag_47\n      jump\t// in\n    tag_86:\n        /* \"#utility.yul\":3322:3482   */\n      swap1\n      pop\n        /* \"#utility.yul\":3028:3489   */\n      swap3\n      swap2\n      pop\n      pop\n      jump\t// out\n        /* \"#utility.yul\":3576:3693   */\n    tag_49:\n        /* \"#utility.yul\":3685:3686   */\n      0x00\n        /* \"#utility.yul\":3682:3683   */\n      dup1\n        /* \"#utility.yul\":3675:3687   */\n      revert\n        /* \"#utility.yul\":3822:3944   */\n    tag_51:\n        /* \"#utility.yul\":3895:3919   */\n      tag_91\n        /* \"#utility.yul\":3913:3918   */\n      dup2\n        /* \"#utility.yul\":3895:3919   */\n      tag_42\n      jump\t// in\n    tag_91:\n        /* \"#utility.yul\":3888:3893   */\n      dup2\n        /* \"#utility.yul\":3885:3920   */\n      eq\n        /* \"#utility.yul\":3875:3938   */\n      tag_92\n      jumpi\n        /* \"#utility.yul\":3934:3935   */\n      0x00\n        /* \"#utility.yul\":3931:3932   */\n      dup1\n        /* \"#utility.yul\":3924:3936   */\n      revert\n        /* \"#utility.yul\":3875:3938   */\n    tag_92:\n        /* \"#utility.yul\":3822:3944   */\n      pop\n      jump\t// out\n        /* \"#utility.yul\":3950:4089   */\n    tag_52:\n        /* \"#utility.yul\":3996:4001   */\n      0x00\n        /* \"#utility.yul\":4034:4040   */\n      dup2\n        /* \"#utility.yul\":4021:4041   */\n      calldataload\n        /* \"#utility.yul\":4012:4041   */\n      swap1\n      pop\n        /* \"#utility.yul\":4050:4083   */\n      tag_94\n        /* \"#utility.yul\":4077:4082   */\n      dup2\n        /* \"#utility.yul\":4050:4083   */\n      tag_51\n      jump\t// in\n    tag_94:\n        /* \"#utility.yul\":3950:4089   */\n      swap3\n      swap2\n      pop\n      pop\n      jump\t// out\n        /* \"#utility.yul\":4095:4424   */\n    tag_16:\n        /* \"#utility.yul\":4154:4160   */\n      0x00\n        /* \"#utility.yul\":4203:4205   */\n      0x20\n        /* \"#utility.yul\":4191:4200   */\n      dup3\n        /* \"#utility.yul\":4182:4189   */\n      dup5\n        /* \"#utility.yul\":4178:4201   */\n      sub\n        /* \"#utility.yul\":4174:4206   */\n      slt\n        /* \"#utility.yul\":4171:4290   */\n      iszero\n      tag_96\n      jumpi\n        /* \"#utility.yul\":4209:4288   */\n      tag_97\n      tag_49\n      jump\t// in\n    tag_97:\n        /* \"#utility.yul\":4171:4290   */\n    tag_96:\n        /* \"#utility.yul\":4329:4330   */\n      0x00\n        /* \"#utility.yul\":4354:4407   */\n      tag_98\n        /* \"#utility.yul\":4399:4406   */\n      dup5\n        /* \"#utility.yul\":4390:4396   */\n      dup3\n        /* \"#utility.yul\":4379:4388   */\n      dup6\n        /* \"#utility.yul\":4375:4397   */\n      add\n        /* \"#utility.yul\":4354:4407   */\n      tag_52\n      jump\t// in\n    tag_98:\n        /* \"#utility.yul\":4344:4407   */\n      swap2\n      pop\n        /* \"#utility.yul\":4300:4417   */\n      pop\n        /* \"#utility.yul\":4095:4424   */\n      swap3\n      swap2\n      pop\n      pop\n      jump\t// out\n        /* \"#utility.yul\":4430:4548   */\n    tag_53:\n        /* \"#utility.yul\":4517:4541   */\n      tag_100\n        /* \"#utility.yul\":4535:4540   */\n      dup2\n        /* \"#utility.yul\":4517:4541   */\n      tag_40\n      jump\t// in\n    tag_100:\n        /* \"#utility.yul\":4512:4515   */\n      dup3\n        /* \"#utility.yul\":4505:4542   */\n      mstore\n        /* \"#utility.yul\":4430:4548   */\n      pop\n      pop\n      jump\t// out\n        /* \"#utility.yul\":4554:4672   */\n    tag_54:\n        /* \"#utility.yul\":4641:4665   */\n      tag_102\n        /* \"#utility.yul\":4659:4664   */\n      dup2\n        /* \"#utility.yul\":4641:4665   */\n      tag_42\n      jump\t// in\n    tag_102:\n        /* \"#utility.yul\":4636:4639   */\n      dup3\n        /* \"#utility.yul\":4629:4666   */\n      mstore\n        /* \"#utility.yul\":4554:4672   */\n      pop\n      pop\n      jump\t// out\n        /* \"#utility.yul\":4678:5010   */\n    tag_23:\n        /* \"#utility.yul\":4799:4803   */\n      0x00\n        /* \"#utility.yul\":4837:4839   */\n      0x40\n        /* \"#utility.yul\":4826:4835   */\n      dup3\n        /* \"#utility.yul\":4822:4840   */\n      add\n        /* \"#utility.yul\":4814:4840   */\n      swap1\n      pop\n        /* \"#utility.yul\":4850:4921   */\n      tag_104\n        /* \"#utility.yul\":4918:4919   */\n      0x00\n        /* \"#utility.yul\":4907:4916   */\n      dup4\n        /* \"#utility.yul\":4903:4920   */\n      add\n        /* \"#utility.yul\":4894:4900   */\n      dup6\n        /* \"#utility.yul\":4850:4921   */\n      tag_53\n      jump\t// in\n    tag_104:\n        /* \"#utility.yul\":4931:5003   */\n      tag_105\n        /* \"#utility.yul\":4999:5001   */\n      0x20\n        /* \"#utility.yul\":4988:4997   */\n      dup4\n        /* \"#utility.yul\":4984:5002   */\n      add\n        /* \"#utility.yul\":4975:4981   */\n      dup5\n        /* \"#utility.yul\":4931:5003   */\n      tag_54\n      jump\t// in\n    tag_105:\n        /* \"#utility.yul\":4678:5010   */\n      swap4\n      swap3\n      pop\n      pop\n      pop\n      jump\t// out\n        /* \"#utility.yul\":5016:5185   */\n    tag_55:\n        /* \"#utility.yul\":5100:5111   */\n      0x00\n        /* \"#utility.yul\":5134:5140   */\n      dup3\n        /* \"#utility.yul\":5129:5132   */\n      dup3\n        /* \"#utility.yul\":5122:5141   */\n      mstore\n        /* \"#utility.yul\":5174:5178   */\n      0x20\n        /* \"#utility.yul\":5169:5172   */\n      dup3\n        /* \"#utility.yul\":5165:5179   */\n      add\n        /* \"#utility.yul\":5150:5179   */\n      swap1\n      pop\n        /* \"#utility.yul\":5016:5185   */\n      swap3\n      swap2\n      pop\n      pop\n      jump\t// out\n        /* \"#utility.yul\":5191:5444   */\n    tag_56:\n        /* \"#utility.yul\":5331:5397   */\n      0x50726973706576656b206a65206e69c5be6a69206f64206d696e696d616c6e65\n        /* \"#utility.yul\":5327:5328   */\n      0x00\n        /* \"#utility.yul\":5319:5325   */\n      dup3\n        /* \"#utility.yul\":5315:5329   */\n      add\n        /* \"#utility.yul\":5308:5398   */\n      mstore\n        /* \"#utility.yul\":5432:5436   */\n      0x6761000000000000000000000000000000000000000000000000000000000000\n        /* \"#utility.yul\":5427:5429   */\n      0x20\n        /* \"#utility.yul\":5419:5425   */\n      dup3\n        /* \"#utility.yul\":5415:5430   */\n      add\n        /* \"#utility.yul\":5408:5437   */\n      mstore\n        /* \"#utility.yul\":5191:5444   */\n      pop\n      jump\t// out\n        /* \"#utility.yul\":5450:5816   */\n    tag_57:\n        /* \"#utility.yul\":5592:5595   */\n      0x00\n        /* \"#utility.yul\":5613:5680   */\n      tag_109\n        /* \"#utility.yul\":5677:5679   */\n      0x22\n        /* \"#utility.yul\":5672:5675   */\n      dup4\n        /* \"#utility.yul\":5613:5680   */\n      tag_55\n      jump\t// in\n    tag_109:\n        /* \"#utility.yul\":5606:5680   */\n      swap2\n      pop\n        /* \"#utility.yul\":5689:5782   */\n      tag_110\n        /* \"#utility.yul\":5778:5781   */\n      dup3\n        /* \"#utility.yul\":5689:5782   */\n      tag_56\n      jump\t// in\n    tag_110:\n        /* \"#utility.yul\":5807:5809   */\n      0x40\n        /* \"#utility.yul\":5802:5805   */\n      dup3\n        /* \"#utility.yul\":5798:5810   */\n      add\n        /* \"#utility.yul\":5791:5810   */\n      swap1\n      pop\n        /* \"#utility.yul\":5450:5816   */\n      swap2\n      swap1\n      pop\n      jump\t// out\n        /* \"#utility.yul\":5822:6241   */\n    tag_27:\n        /* \"#utility.yul\":5988:5992   */\n      0x00\n        /* \"#utility.yul\":6026:6028   */\n      0x20\n        /* \"#utility.yul\":6015:6024   */\n      dup3\n        /* \"#utility.yul\":6011:6029   */\n      add\n        /* \"#utility.yul\":6003:6029   */\n      swap1\n      pop\n        /* \"#utility.yul\":6075:6084   */\n      dup2\n        /* \"#utility.yul\":6069:6073   */\n      dup2\n        /* \"#utility.yul\":6065:6085   */\n      sub\n        /* \"#utility.yul\":6061:6062   */\n      0x00\n        /* \"#utility.yul\":6050:6059   */\n      dup4\n        /* \"#utility.yul\":6046:6063   */\n      add\n        /* \"#utility.yul\":6039:6086   */\n      mstore\n        /* \"#utility.yul\":6103:6234   */\n      tag_112\n        /* \"#utility.yul\":6229:6233   */\n      dup2\n        /* \"#utility.yul\":6103:6234   */\n      tag_57\n      jump\t// in\n    tag_112:\n        /* \"#utility.yul\":6095:6234   */\n      swap1\n      pop\n        /* \"#utility.yul\":5822:6241   */\n      swap2\n      swap1\n      pop\n      jump\t// out\n\n    auxdata: 0xa2646970667358221220a7effe0afda4da1a254af722cc22058a11e05a8876891b6676091137c12eefbe64736f6c634300081a0033\n}\n",
				"bytecode": {
					"linkReferences": {},
					"object": "6080604052348015600e575f80fd5b5061058a8061001c5f395ff3fe60806040526004361061003e575f3560e01c80631761bfc91461004257806357ba44c11461004c57806373e596bb14610076578063d1a0ef701461009e575b5f80fd5b61004a6100db565b005b348015610057575f80fd5b50610060610121565b60405161006d91906103f8565b60405180910390f35b348015610081575f80fd5b5061009c60048036038101906100979190610446565b6101da565b005b3480156100a9575f80fd5b506100c460048036038101906100bf9190610446565b61027f565b6040516100d292919061048f565b60405180910390f35b612710341161011f576040517f08c379a000000000000000000000000000000000000000000000000000000000815260040161011690610536565b60405180910390fd5b565b60605f805480602002602001604051908101604052809291908181526020015f905b828210156101d1578382905f5260205f2090600202016040518060400160405290815f82015f9054906101000a900473ffffffffffffffffffffffffffffffffffffffff1673ffffffffffffffffffffffffffffffffffffffff1673ffffffffffffffffffffffffffffffffffffffff16815260200160018201548152505081526020019060010190610143565b50505050905090565b5f60405180604001604052803373ffffffffffffffffffffffffffffffffffffffff16815260200183815250908060018154018082558091505060019003905f5260205f2090600202015f909190919091505f820151815f015f6101000a81548173ffffffffffffffffffffffffffffffffffffffff021916908373ffffffffffffffffffffffffffffffffffffffff16021790555060208201518160010155505050565b5f818154811061028d575f80fd5b905f5260205f2090600202015f91509050805f015f9054906101000a900473ffffffffffffffffffffffffffffffffffffffff16908060010154905082565b5f81519050919050565b5f82825260208201905092915050565b5f819050602082019050919050565b5f73ffffffffffffffffffffffffffffffffffffffff82169050919050565b5f61031e826102f5565b9050919050565b61032e81610314565b82525050565b5f819050919050565b61034681610334565b82525050565b604082015f8201516103605f850182610325565b506020820151610373602085018261033d565b50505050565b5f610384838361034c565b60408301905092915050565b5f602082019050919050565b5f6103a6826102cc565b6103b081856102d6565b93506103bb836102e6565b805f5b838110156103eb5781516103d28882610379565b97506103dd83610390565b9250506001810190506103be565b5085935050505092915050565b5f6020820190508181035f830152610410818461039c565b905092915050565b5f80fd5b61042581610334565b811461042f575f80fd5b50565b5f813590506104408161041c565b92915050565b5f6020828403121561045b5761045a610418565b5b5f61046884828501610432565b91505092915050565b61047a81610314565b82525050565b61048981610334565b82525050565b5f6040820190506104a25f830185610471565b6104af6020830184610480565b9392505050565b5f82825260208201905092915050565b7f50726973706576656b206a65206e69c5be6a69206f64206d696e696d616c6e655f8201527f6761000000000000000000000000000000000000000000000000000000000000602082015250565b5f6105206022836104b6565b915061052b826104c6565b604082019050919050565b5f6020820190508181035f83015261054d81610514565b905091905056fea2646970667358221220a7effe0afda4da1a254af722cc22058a11e05a8876891b6676091137c12eefbe64736f6c634300081a0033",
					"opcodes": "PUSH1 0x80 PUSH1 0x40 MSTORE CALLVALUE DUP1 ISZERO PUSH1 0xE JUMPI PUSH0 DUP1 REVERT JUMPDEST POP PUSH2 0x58A DUP1 PUSH2 0x1C PUSH0 CODECOPY PUSH0 RETURN INVALID PUSH1 0x80 PUSH1 0x40 MSTORE PUSH1 0x4 CALLDATASIZE LT PUSH2 0x3E JUMPI PUSH0 CALLDATALOAD PUSH1 0xE0 SHR DUP1 PUSH4 0x1761BFC9 EQ PUSH2 0x42 JUMPI DUP1 PUSH4 0x57BA44C1 EQ PUSH2 0x4C JUMPI DUP1 PUSH4 0x73E596BB EQ PUSH2 0x76 JUMPI DUP1 PUSH4 0xD1A0EF70 EQ PUSH2 0x9E JUMPI JUMPDEST PUSH0 DUP1 REVERT JUMPDEST PUSH2 0x4A PUSH2 0xDB JUMP JUMPDEST STOP JUMPDEST CALLVALUE DUP1 ISZERO PUSH2 0x57 JUMPI PUSH0 DUP1 REVERT JUMPDEST POP PUSH2 0x60 PUSH2 0x121 JUMP JUMPDEST PUSH1 0x40 MLOAD PUSH2 0x6D SWAP2 SWAP1 PUSH2 0x3F8 JUMP JUMPDEST PUSH1 0x40 MLOAD DUP1 SWAP2 SUB SWAP1 RETURN JUMPDEST CALLVALUE DUP1 ISZERO PUSH2 0x81 JUMPI PUSH0 DUP1 REVERT JUMPDEST POP PUSH2 0x9C PUSH1 0x4 DUP1 CALLDATASIZE SUB DUP2 ADD SWAP1 PUSH2 0x97 SWAP2 SWAP1 PUSH2 0x446 JUMP JUMPDEST PUSH2 0x1DA JUMP JUMPDEST STOP JUMPDEST CALLVALUE DUP1 ISZERO PUSH2 0xA9 JUMPI PUSH0 DUP1 REVERT JUMPDEST POP PUSH2 0xC4 PUSH1 0x4 DUP1 CALLDATASIZE SUB DUP2 ADD SWAP1 PUSH2 0xBF SWAP2 SWAP1 PUSH2 0x446 JUMP JUMPDEST PUSH2 0x27F JUMP JUMPDEST PUSH1 0x40 MLOAD PUSH2 0xD2 SWAP3 SWAP2 SWAP1 PUSH2 0x48F JUMP JUMPDEST PUSH1 0x40 MLOAD DUP1 SWAP2 SUB SWAP1 RETURN JUMPDEST PUSH2 0x2710 CALLVALUE GT PUSH2 0x11F JUMPI PUSH1 0x40 MLOAD PUSH32 0x8C379A000000000000000000000000000000000000000000000000000000000 DUP2 MSTORE PUSH1 0x4 ADD PUSH2 0x116 SWAP1 PUSH2 0x536 JUMP JUMPDEST PUSH1 0x40 MLOAD DUP1 SWAP2 SUB SWAP1 REVERT JUMPDEST JUMP JUMPDEST PUSH1 0x60 PUSH0 DUP1 SLOAD DUP1 PUSH1 0x20 MUL PUSH1 0x20 ADD PUSH1 0x40 MLOAD SWAP1 DUP2 ADD PUSH1 0x40 MSTORE DUP1 SWAP3 SWAP2 SWAP1 DUP2 DUP2 MSTORE PUSH1 0x20 ADD PUSH0 SWAP1 JUMPDEST DUP3 DUP3 LT ISZERO PUSH2 0x1D1 JUMPI DUP4 DUP3 SWAP1 PUSH0 MSTORE PUSH1 0x20 PUSH0 KECCAK256 SWAP1 PUSH1 0x2 MUL ADD PUSH1 0x40 MLOAD DUP1 PUSH1 0x40 ADD PUSH1 0x40 MSTORE SWAP1 DUP2 PUSH0 DUP3 ADD PUSH0 SWAP1 SLOAD SWAP1 PUSH2 0x100 EXP SWAP1 DIV PUSH20 0xFFFFFFFFFFFFFFFFFFFFFFFFFFFFFFFFFFFFFFFF AND PUSH20 0xFFFFFFFFFFFFFFFFFFFFFFFFFFFFFFFFFFFFFFFF AND PUSH20 0xFFFFFFFFFFFFFFFFFFFFFFFFFFFFFFFFFFFFFFFF AND DUP2 MSTORE PUSH1 0x20 ADD PUSH1 0x1 DUP3 ADD SLOAD DUP2 MSTORE POP POP DUP2 MSTORE PUSH1 0x20 ADD SWAP1 PUSH1 0x1 ADD SWAP1 PUSH2 0x143 JUMP JUMPDEST POP POP POP POP SWAP1 POP SWAP1 JUMP JUMPDEST PUSH0 PUSH1 0x40 MLOAD DUP1 PUSH1 0x40 ADD PUSH1 0x40 MSTORE DUP1 CALLER PUSH20 0xFFFFFFFFFFFFFFFFFFFFFFFFFFFFFFFFFFFFFFFF AND DUP2 MSTORE PUSH1 0x20 ADD DUP4 DUP2 MSTORE POP SWAP1 DUP1 PUSH1 0x1 DUP2 SLOAD ADD DUP1 DUP3 SSTORE DUP1 SWAP2 POP POP PUSH1 0x1 SWAP1 SUB SWAP1 PUSH0 MSTORE PUSH1 0x20 PUSH0 KECCAK256 SWAP1 PUSH1 0x2 MUL ADD PUSH0 SWAP1 SWAP2 SWAP1 SWAP2 SWAP1 SWAP2 POP PUSH0 DUP3 ADD MLOAD DUP2 PUSH0 ADD PUSH0 PUSH2 0x100 EXP DUP2 SLOAD DUP2 PUSH20 0xFFFFFFFFFFFFFFFFFFFFFFFFFFFFFFFFFFFFFFFF MUL NOT AND SWAP1 DUP4 PUSH20 0xFFFFFFFFFFFFFFFFFFFFFFFFFFFFFFFFFFFFFFFF AND MUL OR SWAP1 SSTORE POP PUSH1 0x20 DUP3 ADD MLOAD DUP2 PUSH1 0x1 ADD SSTORE POP POP POP JUMP JUMPDEST PUSH0 DUP2 DUP2 SLOAD DUP2 LT PUSH2 0x28D JUMPI PUSH0 DUP1 REVERT JUMPDEST SWAP1 PUSH0 MSTORE PUSH1 0x20 PUSH0 KECCAK256 SWAP1 PUSH1 0x2 MUL ADD PUSH0 SWAP2 POP SWAP1 POP DUP1 PUSH0 ADD PUSH0 SWAP1 SLOAD SWAP1 PUSH2 0x100 EXP SWAP1 DIV PUSH20 0xFFFFFFFFFFFFFFFFFFFFFFFFFFFFFFFFFFFFFFFF AND SWAP1 DUP1 PUSH1 0x1 ADD SLOAD SWAP1 POP DUP3 JUMP JUMPDEST PUSH0 DUP2 MLOAD SWAP1 POP SWAP2 SWAP1 POP JUMP JUMPDEST PUSH0 DUP3 DUP3 MSTORE PUSH1 0x20 DUP3 ADD SWAP1 POP SWAP3 SWAP2 POP POP JUMP JUMPDEST PUSH0 DUP2 SWAP1 POP PUSH1 0x20 DUP3 ADD SWAP1 POP SWAP2 SWAP1 POP JUMP JUMPDEST PUSH0 PUSH20 0xFFFFFFFFFFFFFFFFFFFFFFFFFFFFFFFFFFFFFFFF DUP3 AND SWAP1 POP SWAP2 SWAP1 POP JUMP JUMPDEST PUSH0 PUSH2 0x31E DUP3 PUSH2 0x2F5 JUMP JUMPDEST SWAP1 POP SWAP2 SWAP1 POP JUMP JUMPDEST PUSH2 0x32E DUP2 PUSH2 0x314 JUMP JUMPDEST DUP3 MSTORE POP POP JUMP JUMPDEST PUSH0 DUP2 SWAP1 POP SWAP2 SWAP1 POP JUMP JUMPDEST PUSH2 0x346 DUP2 PUSH2 0x334 JUMP JUMPDEST DUP3 MSTORE POP POP JUMP JUMPDEST PUSH1 0x40 DUP3 ADD PUSH0 DUP3 ADD MLOAD PUSH2 0x360 PUSH0 DUP6 ADD DUP3 PUSH2 0x325 JUMP JUMPDEST POP PUSH1 0x20 DUP3 ADD MLOAD PUSH2 0x373 PUSH1 0x20 DUP6 ADD DUP3 PUSH2 0x33D JUMP JUMPDEST POP POP POP POP JUMP JUMPDEST PUSH0 PUSH2 0x384 DUP4 DUP4 PUSH2 0x34C JUMP JUMPDEST PUSH1 0x40 DUP4 ADD SWAP1 POP SWAP3 SWAP2 POP POP JUMP JUMPDEST PUSH0 PUSH1 0x20 DUP3 ADD SWAP1 POP SWAP2 SWAP1 POP JUMP JUMPDEST PUSH0 PUSH2 0x3A6 DUP3 PUSH2 0x2CC JUMP JUMPDEST PUSH2 0x3B0 DUP2 DUP6 PUSH2 0x2D6 JUMP JUMPDEST SWAP4 POP PUSH2 0x3BB DUP4 PUSH2 0x2E6 JUMP JUMPDEST DUP1 PUSH0 JUMPDEST DUP4 DUP2 LT ISZERO PUSH2 0x3EB JUMPI DUP2 MLOAD PUSH2 0x3D2 DUP9 DUP3 PUSH2 0x379 JUMP JUMPDEST SWAP8 POP PUSH2 0x3DD DUP4 PUSH2 0x390 JUMP JUMPDEST SWAP3 POP POP PUSH1 0x1 DUP2 ADD SWAP1 POP PUSH2 0x3BE JUMP JUMPDEST POP DUP6 SWAP4 POP POP POP POP SWAP3 SWAP2 POP POP JUMP JUMPDEST PUSH0 PUSH1 0x20 DUP3 ADD SWAP1 POP DUP2 DUP2 SUB PUSH0 DUP4 ADD MSTORE PUSH2 0x410 DUP2 DUP5 PUSH2 0x39C JUMP JUMPDEST SWAP1 POP SWAP3 SWAP2 POP POP JUMP JUMPDEST PUSH0 DUP1 REVERT JUMPDEST PUSH2 0x425 DUP2 PUSH2 0x334 JUMP JUMPDEST DUP2 EQ PUSH2 0x42F JUMPI PUSH0 DUP1 REVERT JUMPDEST POP JUMP JUMPDEST PUSH0 DUP2 CALLDATALOAD SWAP1 POP PUSH2 0x440 DUP2 PUSH2 0x41C JUMP JUMPDEST SWAP3 SWAP2 POP POP JUMP JUMPDEST PUSH0 PUSH1 0x20 DUP3 DUP5 SUB SLT ISZERO PUSH2 0x45B JUMPI PUSH2 0x45A PUSH2 0x418 JUMP JUMPDEST JUMPDEST PUSH0 PUSH2 0x468 DUP5 DUP3 DUP6 ADD PUSH2 0x432 JUMP JUMPDEST SWAP2 POP POP SWAP3 SWAP2 POP POP JUMP JUMPDEST PUSH2 0x47A DUP2 PUSH2 0x314 JUMP JUMPDEST DUP3 MSTORE POP POP JUMP JUMPDEST PUSH2 0x489 DUP2 PUSH2 0x334 JUMP JUMPDEST DUP3 MSTORE POP POP JUMP JUMPDEST PUSH0 PUSH1 0x40 DUP3 ADD SWAP1 POP PUSH2 0x4A2 PUSH0 DUP4 ADD DUP6 PUSH2 0x471 JUMP JUMPDEST PUSH2 0x4AF PUSH1 0x20 DUP4 ADD DUP5 PUSH2 0x480 JUMP JUMPDEST SWAP4 SWAP3 POP POP POP JUMP JUMPDEST PUSH0 DUP3 DUP3 MSTORE PUSH1 0x20 DUP3 ADD SWAP1 POP SWAP3 SWAP2 POP POP JUMP JUMPDEST PUSH32 0x50726973706576656B206A65206E69C5BE6A69206F64206D696E696D616C6E65 PUSH0 DUP3 ADD MSTORE PUSH32 0x6761000000000000000000000000000000000000000000000000000000000000 PUSH1 0x20 DUP3 ADD MSTORE POP JUMP JUMPDEST PUSH0 PUSH2 0x520 PUSH1 0x22 DUP4 PUSH2 0x4B6 JUMP JUMPDEST SWAP2 POP PUSH2 0x52B DUP3 PUSH2 0x4C6 JUMP JUMPDEST PUSH1 0x40 DUP3 ADD SWAP1 POP SWAP2 SWAP1 POP JUMP JUMPDEST PUSH0 PUSH1 0x20 DUP3 ADD SWAP1 POP DUP2 DUP2 SUB PUSH0 DUP4 ADD MSTORE PUSH2 0x54D DUP2 PUSH2 0x514 JUMP JUMPDEST SWAP1 POP SWAP2 SWAP1 POP JUMP INVALID LOG2 PUSH5 0x6970667358 0x22 SLT KECCAK256 0xA7 0xEF INVALID EXP REVERT LOG4 0xDA BYTE 0x25 BLOBBASEFEE 0xF7 0x22 0xCC 0x22 SDIV DUP11 GT 0xE0 GAS DUP9 PUSH23 0x891B6676091137C12EEFBE64736F6C634300081A003300 "
				},
				"gasEstimates": {
					"creation": {
						"codeDepositCost": "283600",
						"executionCost": "322",
						"totalCost": "283922"
					},
					"external": {
						"addDonator(uint256)": "71218",
						"addPrispevek()": "421",
						"donatorsList(uint256)": "infinite",
						"viewDonator()": "infinite"
					}
				},
				"methodIdentifiers": {
					"addDonator(uint256)": "73e596bb",
					"addPrispevek()": "1761bfc9",
					"donatorsList(uint256)": "d1a0ef70",
					"viewDonator()": "57ba44c1"
				}
			},
			"storageLayout": {
				"storage": [
					{
						"astId": 10,
						"contract": "donacije.sol:Fundacija",
						"label": "donatorsList",
						"offset": 0,
						"slot": "0",
						"type": "t_array(t_struct(Donator)6_storage)dyn_storage"
					}
				],
				"types": {
					"t_address": {
						"encoding": "inplace",
						"label": "address",
						"numberOfBytes": "20"
					},
					"t_array(t_struct(Donator)6_storage)dyn_storage": {
						"base": "t_struct(Donator)6_storage",
						"encoding": "dynamic_array",
						"label": "struct Fundacija.Donator[]",
						"numberOfBytes": "32"
					},
					"t_struct(Donator)6_storage": {
						"encoding": "inplace",
						"label": "struct Fundacija.Donator",
						"members": [
							{
								"astId": 3,
								"contract": "donacije.sol:Fundacija",
								"label": "donatorAdress",
								"offset": 0,
								"slot": "0",
								"type": "t_address"
							},
							{
								"astId": 5,
								"contract": "donacije.sol:Fundacija",
								"label": "donacija",
								"offset": 0,
								"slot": "1",
								"type": "t_uint256"
							}
						],
						"numberOfBytes": "64"
					},
					"t_uint256": {
						"encoding": "inplace",
						"label": "uint256",
						"numberOfBytes": "32"
					}
				}
			},
			"userdoc": {
				"kind": "user",
				"methods": {
					"addPrispevek()": {
						"notice": "getter"
					}
				},
				"version": 1
			}
		}
	}
}