{
	"igrackanjeDva.sol": {
		"Pagadba": {
			"abi": [
				{
					"inputs": [],
					"stateMutability": "nonpayable",
					"type": "constructor"
				},
				{
					"inputs": [
						{
							"internalType": "uint256",
							"name": "indeks",
							"type": "uint256"
						}
					],
					"name": "getPliskoByIndex",
					"outputs": [
						{
							"internalType": "string",
							"name": "",
							"type": "string"
						},
						{
							"internalType": "uint256",
							"name": "",
							"type": "uint256"
						},
						{
							"internalType": "bool",
							"name": "",
							"type": "bool"
						}
					],
					"stateMutability": "view",
					"type": "function"
				},
				{
					"inputs": [
						{
							"internalType": "string",
							"name": "_ime",
							"type": "string"
						}
					],
					"name": "getPliskoByName",
					"outputs": [
						{
							"internalType": "string",
							"name": "",
							"type": "string"
						},
						{
							"internalType": "uint256",
							"name": "",
							"type": "uint256"
						},
						{
							"internalType": "bool",
							"name": "",
							"type": "bool"
						}
					],
					"stateMutability": "view",
					"type": "function"
				},
				{
					"inputs": [
						{
							"internalType": "string",
							"name": "_ime",
							"type": "string"
						},
						{
							"internalType": "uint256",
							"name": "_starost",
							"type": "uint256"
						},
						{
							"internalType": "bool",
							"name": "_vZvezi",
							"type": "bool"
						}
					],
					"name": "pliskoAdd",
					"outputs": [],
					"stateMutability": "nonpayable",
					"type": "function"
				},
				{
					"inputs": [
						{
							"internalType": "uint256",
							"name": "",
							"type": "uint256"
						}
					],
					"name": "pliskoti",
					"outputs": [
						{
							"internalType": "string",
							"name": "ime",
							"type": "string"
						},
						{
							"internalType": "uint256",
							"name": "starost",
							"type": "uint256"
						},
						{
							"internalType": "bool",
							"name": "vZvezi",
							"type": "bool"
						}
					],
					"stateMutability": "view",
					"type": "function"
				}
			],
			"devdoc": {
				"kind": "dev",
				"methods": {},
				"version": 1
			},
			"evm": {
				"assembly": "    /* \"igrackanjeDva.sol\":151:2257  contract Pagadba {... */\n  mstore(0x40, 0x80)\n    /* \"igrackanjeDva.sol\":797:1006  constructor() {... */\n  callvalue\n  dup1\n  iszero\n  tag_1\n  jumpi\n  0x00\n  dup1\n  revert\ntag_1:\n  pop\n    /* \"igrackanjeDva.sol\":858:866  pliskoti */\n  0x00\n    /* \"igrackanjeDva.sol\":872:897  Plisko(\"Opica\", 10, true) */\n  mload(0x40)\n  dup1\n  0x60\n  add\n  0x40\n  mstore\n  dup1\n  mload(0x40)\n  dup1\n  0x40\n  add\n  0x40\n  mstore\n  dup1\n  0x05\n  dup2\n  mstore\n  0x20\n  add\n  0x4f70696361000000000000000000000000000000000000000000000000000000\n  dup2\n  mstore\n  pop\n  dup2\n  mstore\n  0x20\n  add\n    /* \"igrackanjeDva.sol\":888:890  10 */\n  0x0a\n    /* \"igrackanjeDva.sol\":872:897  Plisko(\"Opica\", 10, true) */\n  dup2\n  mstore\n  0x20\n  add\n    /* \"igrackanjeDva.sol\":892:896  true */\n  0x01\n    /* \"igrackanjeDva.sol\":872:897  Plisko(\"Opica\", 10, true) */\n  iszero\n  iszero\n  dup2\n  mstore\n  pop\n    /* \"igrackanjeDva.sol\":858:898  pliskoti.push(Plisko(\"Opica\", 10, true)) */\n  swap1\n  dup1\n  0x01\n  dup2\n  sload\n  add\n  dup1\n  dup3\n  sstore\n  dup1\n  swap2\n  pop\n  pop\n  0x01\n  swap1\n  sub\n  swap1\n  0x00\n  mstore\n  keccak256(0x00, 0x20)\n  swap1\n  0x03\n  mul\n  add\n  0x00\n  swap1\n  swap2\n  swap1\n  swap2\n  swap1\n  swap2\n  pop\n  0x00\n  dup3\n  add\n  mload\n  dup2\n  0x00\n  add\n  swap1\n  dup2\n  tag_5\n  swap2\n  swap1\n  tag_6\n  jump\t// in\ntag_5:\n  pop\n  0x20\n  dup3\n  add\n  mload\n  dup2\n  0x01\n  add\n  sstore\n  0x40\n  dup3\n  add\n  mload\n  dup2\n  0x02\n  add\n  exp(0x0100, 0x00)\n  dup2\n  sload\n  dup2\n  0xff\n  mul\n  not\n  and\n  swap1\n  dup4\n  iszero\n  iszero\n  mul\n  or\n  swap1\n  sstore\n  pop\n  pop\n  pop\n    /* \"igrackanjeDva.sol\":909:917  pliskoti */\n  0x00\n    /* \"igrackanjeDva.sol\":923:947  Plisko(\"Medo\", 13, true) */\n  mload(0x40)\n  dup1\n  0x60\n  add\n  0x40\n  mstore\n  dup1\n  mload(0x40)\n  dup1\n  0x40\n  add\n  0x40\n  mstore\n  dup1\n  0x04\n  dup2\n  mstore\n  0x20\n  add\n  0x4d65646f00000000000000000000000000000000000000000000000000000000\n  dup2\n  mstore\n  pop\n  dup2\n  mstore\n  0x20\n  add\n    /* \"igrackanjeDva.sol\":938:940  13 */\n  0x0d\n    /* \"igrackanjeDva.sol\":923:947  Plisko(\"Medo\", 13, true) */\n  dup2\n  mstore\n  0x20\n  add\n    /* \"igrackanjeDva.sol\":942:946  true */\n  0x01\n    /* \"igrackanjeDva.sol\":923:947  Plisko(\"Medo\", 13, true) */\n  iszero\n  iszero\n  dup2\n  mstore\n  pop\n    /* \"igrackanjeDva.sol\":909:948  pliskoti.push(Plisko(\"Medo\", 13, true)) */\n  swap1\n  dup1\n  0x01\n  dup2\n  sload\n  add\n  dup1\n  dup3\n  sstore\n  dup1\n  swap2\n  pop\n  pop\n  0x01\n  swap1\n  sub\n  swap1\n  0x00\n  mstore\n  keccak256(0x00, 0x20)\n  swap1\n  0x03\n  mul\n  add\n  0x00\n  swap1\n  swap2\n  swap1\n  swap2\n  swap1\n  swap2\n  pop\n  0x00\n  dup3\n  add\n  mload\n  dup2\n  0x00\n  add\n  swap1\n  dup2\n  tag_8\n  swap2\n  swap1\n  tag_6\n  jump\t// in\ntag_8:\n  pop\n  0x20\n  dup3\n  add\n  mload\n  dup2\n  0x01\n  add\n  sstore\n  0x40\n  dup3\n  add\n  mload\n  dup2\n  0x02\n  add\n  exp(0x0100, 0x00)\n  dup2\n  sload\n  dup2\n  0xff\n  mul\n  not\n  and\n  swap1\n  dup4\n  iszero\n  iszero\n  mul\n  or\n  swap1\n  sstore\n  pop\n  pop\n  pop\n    /* \"igrackanjeDva.sol\":959:967  pliskoti */\n  0x00\n    /* \"igrackanjeDva.sol\":973:997  Plisko(\"Rino\", 8, false) */\n  mload(0x40)\n  dup1\n  0x60\n  add\n  0x40\n  mstore\n  dup1\n  mload(0x40)\n  dup1\n  0x40\n  add\n  0x40\n  mstore\n  dup1\n  0x04\n  dup2\n  mstore\n  0x20\n  add\n  0x52696e6f00000000000000000000000000000000000000000000000000000000\n  dup2\n  mstore\n  pop\n  dup2\n  mstore\n  0x20\n  add\n    /* \"igrackanjeDva.sol\":988:989  8 */\n  0x08\n    /* \"igrackanjeDva.sol\":973:997  Plisko(\"Rino\", 8, false) */\n  dup2\n  mstore\n  0x20\n  add\n    /* \"igrackanjeDva.sol\":991:996  false */\n  0x00\n    /* \"igrackanjeDva.sol\":973:997  Plisko(\"Rino\", 8, false) */\n  iszero\n  iszero\n  dup2\n  mstore\n  pop\n    /* \"igrackanjeDva.sol\":959:998  pliskoti.push(Plisko(\"Rino\", 8, false)) */\n  swap1\n  dup1\n  0x01\n  dup2\n  sload\n  add\n  dup1\n  dup3\n  sstore\n  dup1\n  swap2\n  pop\n  pop\n  0x01\n  swap1\n  sub\n  swap1\n  0x00\n  mstore\n  keccak256(0x00, 0x20)\n  swap1\n  0x03\n  mul\n  add\n  0x00\n  swap1\n  swap2\n  swap1\n  swap2\n  swap1\n  swap2\n  pop\n  0x00\n  dup3\n  add\n  mload\n  dup2\n  0x00\n  add\n  swap1\n  dup2\n  tag_10\n  swap2\n  swap1\n  tag_6\n  jump\t// in\ntag_10:\n  pop\n  0x20\n  dup3\n  add\n  mload\n  dup2\n  0x01\n  add\n  sstore\n  0x40\n  dup3\n  add\n  mload\n  dup2\n  0x02\n  add\n  exp(0x0100, 0x00)\n  dup2\n  sload\n  dup2\n  0xff\n  mul\n  not\n  and\n  swap1\n  dup4\n  iszero\n  iszero\n  mul\n  or\n  swap1\n  sstore\n  pop\n  pop\n  pop\n    /* \"igrackanjeDva.sol\":151:2257  contract Pagadba {... */\n  jump(tag_11)\n    /* \"#utility.yul\":7:106   */\ntag_12:\n    /* \"#utility.yul\":59:65   */\n  0x00\n    /* \"#utility.yul\":93:98   */\n  dup2\n    /* \"#utility.yul\":87:99   */\n  mload\n    /* \"#utility.yul\":77:99   */\n  swap1\n  pop\n    /* \"#utility.yul\":7:106   */\n  swap2\n  swap1\n  pop\n  jump\t// out\n    /* \"#utility.yul\":112:292   */\ntag_13:\n    /* \"#utility.yul\":160:237   */\n  0x4e487b7100000000000000000000000000000000000000000000000000000000\n    /* \"#utility.yul\":157:158   */\n  0x00\n    /* \"#utility.yul\":150:238   */\n  mstore\n    /* \"#utility.yul\":257:261   */\n  0x41\n    /* \"#utility.yul\":254:255   */\n  0x04\n    /* \"#utility.yul\":247:262   */\n  mstore\n    /* \"#utility.yul\":281:285   */\n  0x24\n    /* \"#utility.yul\":278:279   */\n  0x00\n    /* \"#utility.yul\":271:286   */\n  revert\n    /* \"#utility.yul\":298:478   */\ntag_14:\n    /* \"#utility.yul\":346:423   */\n  0x4e487b7100000000000000000000000000000000000000000000000000000000\n    /* \"#utility.yul\":343:344   */\n  0x00\n    /* \"#utility.yul\":336:424   */\n  mstore\n    /* \"#utility.yul\":443:447   */\n  0x22\n    /* \"#utility.yul\":440:441   */\n  0x04\n    /* \"#utility.yul\":433:448   */\n  mstore\n    /* \"#utility.yul\":467:471   */\n  0x24\n    /* \"#utility.yul\":464:465   */\n  0x00\n    /* \"#utility.yul\":457:472   */\n  revert\n    /* \"#utility.yul\":484:804   */\ntag_15:\n    /* \"#utility.yul\":528:534   */\n  0x00\n    /* \"#utility.yul\":565:566   */\n  0x02\n    /* \"#utility.yul\":559:563   */\n  dup3\n    /* \"#utility.yul\":555:567   */\n  div\n    /* \"#utility.yul\":545:567   */\n  swap1\n  pop\n    /* \"#utility.yul\":612:613   */\n  0x01\n    /* \"#utility.yul\":606:610   */\n  dup3\n    /* \"#utility.yul\":602:614   */\n  and\n    /* \"#utility.yul\":633:651   */\n  dup1\n    /* \"#utility.yul\":623:704   */\n  tag_37\n  jumpi\n    /* \"#utility.yul\":689:693   */\n  0x7f\n    /* \"#utility.yul\":681:687   */\n  dup3\n    /* \"#utility.yul\":677:694   */\n  and\n    /* \"#utility.yul\":667:694   */\n  swap2\n  pop\n    /* \"#utility.yul\":623:704   */\ntag_37:\n    /* \"#utility.yul\":751:753   */\n  0x20\n    /* \"#utility.yul\":743:749   */\n  dup3\n    /* \"#utility.yul\":740:754   */\n  lt\n    /* \"#utility.yul\":720:738   */\n  dup2\n    /* \"#utility.yul\":717:755   */\n  sub\n    /* \"#utility.yul\":714:798   */\n  tag_38\n  jumpi\n    /* \"#utility.yul\":770:788   */\n  tag_39\n  tag_14\n  jump\t// in\ntag_39:\n    /* \"#utility.yul\":714:798   */\ntag_38:\n    /* \"#utility.yul\":535:804   */\n  pop\n    /* \"#utility.yul\":484:804   */\n  swap2\n  swap1\n  pop\n  jump\t// out\n    /* \"#utility.yul\":810:951   */\ntag_16:\n    /* \"#utility.yul\":859:863   */\n  0x00\n    /* \"#utility.yul\":882:885   */\n  dup2\n    /* \"#utility.yul\":874:885   */\n  swap1\n  pop\n    /* \"#utility.yul\":905:908   */\n  dup2\n    /* \"#utility.yul\":902:903   */\n  0x00\n    /* \"#utility.yul\":895:909   */\n  mstore\n    /* \"#utility.yul\":939:943   */\n  0x20\n    /* \"#utility.yul\":936:937   */\n  0x00\n    /* \"#utility.yul\":926:944   */\n  keccak256\n    /* \"#utility.yul\":918:944   */\n  swap1\n  pop\n    /* \"#utility.yul\":810:951   */\n  swap2\n  swap1\n  pop\n  jump\t// out\n    /* \"#utility.yul\":957:1050   */\ntag_17:\n    /* \"#utility.yul\":994:1000   */\n  0x00\n    /* \"#utility.yul\":1041:1043   */\n  0x20\n    /* \"#utility.yul\":1036:1038   */\n  0x1f\n    /* \"#utility.yul\":1029:1034   */\n  dup4\n    /* \"#utility.yul\":1025:1039   */\n  add\n    /* \"#utility.yul\":1021:1044   */\n  div\n    /* \"#utility.yul\":1011:1044   */\n  swap1\n  pop\n    /* \"#utility.yul\":957:1050   */\n  swap2\n  swap1\n  pop\n  jump\t// out\n    /* \"#utility.yul\":1056:1163   */\ntag_18:\n    /* \"#utility.yul\":1100:1108   */\n  0x00\n    /* \"#utility.yul\":1150:1155   */\n  dup3\n    /* \"#utility.yul\":1144:1148   */\n  dup3\n    /* \"#utility.yul\":1140:1156   */\n  shl\n    /* \"#utility.yul\":1119:1156   */\n  swap1\n  pop\n    /* \"#utility.yul\":1056:1163   */\n  swap3\n  swap2\n  pop\n  pop\n  jump\t// out\n    /* \"#utility.yul\":1169:1562   */\ntag_19:\n    /* \"#utility.yul\":1238:1244   */\n  0x00\n    /* \"#utility.yul\":1288:1289   */\n  0x08\n    /* \"#utility.yul\":1276:1286   */\n  dup4\n    /* \"#utility.yul\":1272:1290   */\n  mul\n    /* \"#utility.yul\":1311:1408   */\n  tag_44\n    /* \"#utility.yul\":1341:1407   */\n  0xffffffffffffffffffffffffffffffffffffffffffffffffffffffffffffffff\n    /* \"#utility.yul\":1330:1339   */\n  dup3\n    /* \"#utility.yul\":1311:1408   */\n  tag_18\n  jump\t// in\ntag_44:\n    /* \"#utility.yul\":1429:1468   */\n  tag_45\n    /* \"#utility.yul\":1459:1467   */\n  dup7\n    /* \"#utility.yul\":1448:1457   */\n  dup4\n    /* \"#utility.yul\":1429:1468   */\n  tag_18\n  jump\t// in\ntag_45:\n    /* \"#utility.yul\":1417:1468   */\n  swap6\n  pop\n    /* \"#utility.yul\":1501:1505   */\n  dup1\n    /* \"#utility.yul\":1497:1506   */\n  not\n    /* \"#utility.yul\":1490:1495   */\n  dup5\n    /* \"#utility.yul\":1486:1507   */\n  and\n    /* \"#utility.yul\":1477:1507   */\n  swap4\n  pop\n    /* \"#utility.yul\":1550:1554   */\n  dup1\n    /* \"#utility.yul\":1540:1548   */\n  dup7\n    /* \"#utility.yul\":1536:1555   */\n  and\n    /* \"#utility.yul\":1529:1534   */\n  dup5\n    /* \"#utility.yul\":1526:1556   */\n  or\n    /* \"#utility.yul\":1516:1556   */\n  swap3\n  pop\n    /* \"#utility.yul\":1245:1562   */\n  pop\n  pop\n    /* \"#utility.yul\":1169:1562   */\n  swap4\n  swap3\n  pop\n  pop\n  pop\n  jump\t// out\n    /* \"#utility.yul\":1568:1645   */\ntag_20:\n    /* \"#utility.yul\":1605:1612   */\n  0x00\n    /* \"#utility.yul\":1634:1639   */\n  dup2\n    /* \"#utility.yul\":1623:1639   */\n  swap1\n  pop\n    /* \"#utility.yul\":1568:1645   */\n  swap2\n  swap1\n  pop\n  jump\t// out\n    /* \"#utility.yul\":1651:1711   */\ntag_21:\n    /* \"#utility.yul\":1679:1682   */\n  0x00\n    /* \"#utility.yul\":1700:1705   */\n  dup2\n    /* \"#utility.yul\":1693:1705   */\n  swap1\n  pop\n    /* \"#utility.yul\":1651:1711   */\n  swap2\n  swap1\n  pop\n  jump\t// out\n    /* \"#utility.yul\":1717:1859   */\ntag_22:\n    /* \"#utility.yul\":1767:1776   */\n  0x00\n    /* \"#utility.yul\":1800:1853   */\n  tag_49\n    /* \"#utility.yul\":1818:1852   */\n  tag_50\n    /* \"#utility.yul\":1827:1851   */\n  tag_51\n    /* \"#utility.yul\":1845:1850   */\n  dup5\n    /* \"#utility.yul\":1827:1851   */\n  tag_20\n  jump\t// in\ntag_51:\n    /* \"#utility.yul\":1818:1852   */\n  tag_21\n  jump\t// in\ntag_50:\n    /* \"#utility.yul\":1800:1853   */\n  tag_20\n  jump\t// in\ntag_49:\n    /* \"#utility.yul\":1787:1853   */\n  swap1\n  pop\n    /* \"#utility.yul\":1717:1859   */\n  swap2\n  swap1\n  pop\n  jump\t// out\n    /* \"#utility.yul\":1865:1940   */\ntag_23:\n    /* \"#utility.yul\":1908:1911   */\n  0x00\n    /* \"#utility.yul\":1929:1934   */\n  dup2\n    /* \"#utility.yul\":1922:1934   */\n  swap1\n  pop\n    /* \"#utility.yul\":1865:1940   */\n  swap2\n  swap1\n  pop\n  jump\t// out\n    /* \"#utility.yul\":1946:2215   */\ntag_24:\n    /* \"#utility.yul\":2056:2095   */\n  tag_54\n    /* \"#utility.yul\":2087:2094   */\n  dup4\n    /* \"#utility.yul\":2056:2095   */\n  tag_22\n  jump\t// in\ntag_54:\n    /* \"#utility.yul\":2117:2208   */\n  tag_55\n    /* \"#utility.yul\":2166:2207   */\n  tag_56\n    /* \"#utility.yul\":2190:2206   */\n  dup3\n    /* \"#utility.yul\":2166:2207   */\n  tag_23\n  jump\t// in\ntag_56:\n    /* \"#utility.yul\":2158:2164   */\n  dup5\n    /* \"#utility.yul\":2151:2155   */\n  dup5\n    /* \"#utility.yul\":2145:2156   */\n  sload\n    /* \"#utility.yul\":2117:2208   */\n  tag_19\n  jump\t// in\ntag_55:\n    /* \"#utility.yul\":2111:2115   */\n  dup3\n    /* \"#utility.yul\":2104:2209   */\n  sstore\n    /* \"#utility.yul\":2022:2215   */\n  pop\n    /* \"#utility.yul\":1946:2215   */\n  pop\n  pop\n  pop\n  jump\t// out\n    /* \"#utility.yul\":2221:2294   */\ntag_25:\n    /* \"#utility.yul\":2266:2269   */\n  0x00\n    /* \"#utility.yul\":2221:2294   */\n  swap1\n  jump\t// out\n    /* \"#utility.yul\":2300:2489   */\ntag_26:\n    /* \"#utility.yul\":2377:2409   */\n  tag_59\n  tag_25\n  jump\t// in\ntag_59:\n    /* \"#utility.yul\":2418:2483   */\n  tag_60\n    /* \"#utility.yul\":2476:2482   */\n  dup2\n    /* \"#utility.yul\":2468:2474   */\n  dup5\n    /* \"#utility.yul\":2462:2466   */\n  dup5\n    /* \"#utility.yul\":2418:2483   */\n  tag_24\n  jump\t// in\ntag_60:\n    /* \"#utility.yul\":2353:2489   */\n  pop\n    /* \"#utility.yul\":2300:2489   */\n  pop\n  pop\n  jump\t// out\n    /* \"#utility.yul\":2495:2681   */\ntag_27:\n    /* \"#utility.yul\":2555:2675   */\ntag_62:\n    /* \"#utility.yul\":2572:2575   */\n  dup2\n    /* \"#utility.yul\":2565:2570   */\n  dup2\n    /* \"#utility.yul\":2562:2576   */\n  lt\n    /* \"#utility.yul\":2555:2675   */\n  iszero\n  tag_64\n  jumpi\n    /* \"#utility.yul\":2626:2665   */\n  tag_65\n    /* \"#utility.yul\":2663:2664   */\n  0x00\n    /* \"#utility.yul\":2656:2661   */\n  dup3\n    /* \"#utility.yul\":2626:2665   */\n  tag_26\n  jump\t// in\ntag_65:\n    /* \"#utility.yul\":2599:2600   */\n  0x01\n    /* \"#utility.yul\":2592:2597   */\n  dup2\n    /* \"#utility.yul\":2588:2601   */\n  add\n    /* \"#utility.yul\":2579:2601   */\n  swap1\n  pop\n    /* \"#utility.yul\":2555:2675   */\n  jump(tag_62)\ntag_64:\n    /* \"#utility.yul\":2495:2681   */\n  pop\n  pop\n  jump\t// out\n    /* \"#utility.yul\":2687:3230   */\ntag_28:\n    /* \"#utility.yul\":2788:2790   */\n  0x1f\n    /* \"#utility.yul\":2783:2786   */\n  dup3\n    /* \"#utility.yul\":2780:2791   */\n  gt\n    /* \"#utility.yul\":2777:3223   */\n  iszero\n  tag_67\n  jumpi\n    /* \"#utility.yul\":2822:2860   */\n  tag_68\n    /* \"#utility.yul\":2854:2859   */\n  dup2\n    /* \"#utility.yul\":2822:2860   */\n  tag_16\n  jump\t// in\ntag_68:\n    /* \"#utility.yul\":2906:2935   */\n  tag_69\n    /* \"#utility.yul\":2924:2934   */\n  dup5\n    /* \"#utility.yul\":2906:2935   */\n  tag_17\n  jump\t// in\ntag_69:\n    /* \"#utility.yul\":2896:2904   */\n  dup2\n    /* \"#utility.yul\":2892:2936   */\n  add\n    /* \"#utility.yul\":3089:3091   */\n  0x20\n    /* \"#utility.yul\":3077:3087   */\n  dup6\n    /* \"#utility.yul\":3074:3092   */\n  lt\n    /* \"#utility.yul\":3071:3120   */\n  iszero\n  tag_70\n  jumpi\n    /* \"#utility.yul\":3110:3118   */\n  dup2\n    /* \"#utility.yul\":3095:3118   */\n  swap1\n  pop\n    /* \"#utility.yul\":3071:3120   */\ntag_70:\n    /* \"#utility.yul\":3133:3213   */\n  tag_71\n    /* \"#utility.yul\":3189:3211   */\n  tag_72\n    /* \"#utility.yul\":3207:3210   */\n  dup6\n    /* \"#utility.yul\":3189:3211   */\n  tag_17\n  jump\t// in\ntag_72:\n    /* \"#utility.yul\":3179:3187   */\n  dup4\n    /* \"#utility.yul\":3175:3212   */\n  add\n    /* \"#utility.yul\":3162:3173   */\n  dup3\n    /* \"#utility.yul\":3133:3213   */\n  tag_27\n  jump\t// in\ntag_71:\n    /* \"#utility.yul\":2792:3223   */\n  pop\n  pop\n    /* \"#utility.yul\":2777:3223   */\ntag_67:\n    /* \"#utility.yul\":2687:3230   */\n  pop\n  pop\n  pop\n  jump\t// out\n    /* \"#utility.yul\":3236:3353   */\ntag_29:\n    /* \"#utility.yul\":3290:3298   */\n  0x00\n    /* \"#utility.yul\":3340:3345   */\n  dup3\n    /* \"#utility.yul\":3334:3338   */\n  dup3\n    /* \"#utility.yul\":3330:3346   */\n  shr\n    /* \"#utility.yul\":3309:3346   */\n  swap1\n  pop\n    /* \"#utility.yul\":3236:3353   */\n  swap3\n  swap2\n  pop\n  pop\n  jump\t// out\n    /* \"#utility.yul\":3359:3528   */\ntag_30:\n    /* \"#utility.yul\":3403:3409   */\n  0x00\n    /* \"#utility.yul\":3436:3487   */\n  tag_75\n    /* \"#utility.yul\":3484:3485   */\n  0x00\n    /* \"#utility.yul\":3480:3486   */\n  not\n    /* \"#utility.yul\":3472:3477   */\n  dup5\n    /* \"#utility.yul\":3469:3470   */\n  0x08\n    /* \"#utility.yul\":3465:3478   */\n  mul\n    /* \"#utility.yul\":3436:3487   */\n  tag_29\n  jump\t// in\ntag_75:\n    /* \"#utility.yul\":3432:3488   */\n  not\n    /* \"#utility.yul\":3517:3521   */\n  dup1\n    /* \"#utility.yul\":3511:3515   */\n  dup4\n    /* \"#utility.yul\":3507:3522   */\n  and\n    /* \"#utility.yul\":3497:3522   */\n  swap2\n  pop\n    /* \"#utility.yul\":3410:3528   */\n  pop\n    /* \"#utility.yul\":3359:3528   */\n  swap3\n  swap2\n  pop\n  pop\n  jump\t// out\n    /* \"#utility.yul\":3533:3828   */\ntag_31:\n    /* \"#utility.yul\":3609:3613   */\n  0x00\n    /* \"#utility.yul\":3755:3784   */\n  tag_77\n    /* \"#utility.yul\":3780:3783   */\n  dup4\n    /* \"#utility.yul\":3774:3778   */\n  dup4\n    /* \"#utility.yul\":3755:3784   */\n  tag_30\n  jump\t// in\ntag_77:\n    /* \"#utility.yul\":3747:3784   */\n  swap2\n  pop\n    /* \"#utility.yul\":3817:3820   */\n  dup3\n    /* \"#utility.yul\":3814:3815   */\n  0x02\n    /* \"#utility.yul\":3810:3821   */\n  mul\n    /* \"#utility.yul\":3804:3808   */\n  dup3\n    /* \"#utility.yul\":3801:3822   */\n  or\n    /* \"#utility.yul\":3793:3822   */\n  swap1\n  pop\n    /* \"#utility.yul\":3533:3828   */\n  swap3\n  swap2\n  pop\n  pop\n  jump\t// out\n    /* \"#utility.yul\":3833:5228   */\ntag_6:\n    /* \"#utility.yul\":3950:3987   */\n  tag_79\n    /* \"#utility.yul\":3983:3986   */\n  dup3\n    /* \"#utility.yul\":3950:3987   */\n  tag_12\n  jump\t// in\ntag_79:\n    /* \"#utility.yul\":4052:4070   */\n  0xffffffffffffffff\n    /* \"#utility.yul\":4044:4050   */\n  dup2\n    /* \"#utility.yul\":4041:4071   */\n  gt\n    /* \"#utility.yul\":4038:4094   */\n  iszero\n  tag_80\n  jumpi\n    /* \"#utility.yul\":4074:4092   */\n  tag_81\n  tag_13\n  jump\t// in\ntag_81:\n    /* \"#utility.yul\":4038:4094   */\ntag_80:\n    /* \"#utility.yul\":4118:4156   */\n  tag_82\n    /* \"#utility.yul\":4150:4154   */\n  dup3\n    /* \"#utility.yul\":4144:4155   */\n  sload\n    /* \"#utility.yul\":4118:4156   */\n  tag_15\n  jump\t// in\ntag_82:\n    /* \"#utility.yul\":4203:4270   */\n  tag_83\n    /* \"#utility.yul\":4263:4269   */\n  dup3\n    /* \"#utility.yul\":4255:4261   */\n  dup3\n    /* \"#utility.yul\":4249:4253   */\n  dup6\n    /* \"#utility.yul\":4203:4270   */\n  tag_28\n  jump\t// in\ntag_83:\n    /* \"#utility.yul\":4297:4298   */\n  0x00\n    /* \"#utility.yul\":4321:4325   */\n  0x20\n    /* \"#utility.yul\":4308:4325   */\n  swap1\n  pop\n    /* \"#utility.yul\":4353:4355   */\n  0x1f\n    /* \"#utility.yul\":4345:4351   */\n  dup4\n    /* \"#utility.yul\":4342:4356   */\n  gt\n    /* \"#utility.yul\":4370:4371   */\n  0x01\n    /* \"#utility.yul\":4365:4983   */\n  dup2\n  eq\n  tag_85\n  jumpi\n    /* \"#utility.yul\":5027:5028   */\n  0x00\n    /* \"#utility.yul\":5044:5050   */\n  dup5\n    /* \"#utility.yul\":5041:5118   */\n  iszero\n  tag_86\n  jumpi\n    /* \"#utility.yul\":5093:5102   */\n  dup3\n    /* \"#utility.yul\":5088:5091   */\n  dup8\n    /* \"#utility.yul\":5084:5103   */\n  add\n    /* \"#utility.yul\":5078:5104   */\n  mload\n    /* \"#utility.yul\":5069:5104   */\n  swap1\n  pop\n    /* \"#utility.yul\":5041:5118   */\ntag_86:\n    /* \"#utility.yul\":5144:5211   */\n  tag_87\n    /* \"#utility.yul\":5204:5210   */\n  dup6\n    /* \"#utility.yul\":5197:5202   */\n  dup3\n    /* \"#utility.yul\":5144:5211   */\n  tag_31\n  jump\t// in\ntag_87:\n    /* \"#utility.yul\":5138:5142   */\n  dup7\n    /* \"#utility.yul\":5131:5212   */\n  sstore\n    /* \"#utility.yul\":5000:5222   */\n  pop\n    /* \"#utility.yul\":4335:5222   */\n  jump(tag_84)\n    /* \"#utility.yul\":4365:4983   */\ntag_85:\n    /* \"#utility.yul\":4417:4421   */\n  0x1f\n    /* \"#utility.yul\":4413:4422   */\n  not\n    /* \"#utility.yul\":4405:4411   */\n  dup5\n    /* \"#utility.yul\":4401:4423   */\n  and\n    /* \"#utility.yul\":4451:4488   */\n  tag_88\n    /* \"#utility.yul\":4483:4487   */\n  dup7\n    /* \"#utility.yul\":4451:4488   */\n  tag_16\n  jump\t// in\ntag_88:\n    /* \"#utility.yul\":4510:4511   */\n  0x00\n    /* \"#utility.yul\":4524:4732   */\ntag_89:\n    /* \"#utility.yul\":4538:4545   */\n  dup3\n    /* \"#utility.yul\":4535:4536   */\n  dup2\n    /* \"#utility.yul\":4532:4546   */\n  lt\n    /* \"#utility.yul\":4524:4732   */\n  iszero\n  tag_91\n  jumpi\n    /* \"#utility.yul\":4617:4626   */\n  dup5\n    /* \"#utility.yul\":4612:4615   */\n  dup10\n    /* \"#utility.yul\":4608:4627   */\n  add\n    /* \"#utility.yul\":4602:4628   */\n  mload\n    /* \"#utility.yul\":4594:4600   */\n  dup3\n    /* \"#utility.yul\":4587:4629   */\n  sstore\n    /* \"#utility.yul\":4668:4669   */\n  0x01\n    /* \"#utility.yul\":4660:4666   */\n  dup3\n    /* \"#utility.yul\":4656:4670   */\n  add\n    /* \"#utility.yul\":4646:4670   */\n  swap2\n  pop\n    /* \"#utility.yul\":4715:4717   */\n  0x20\n    /* \"#utility.yul\":4704:4713   */\n  dup6\n    /* \"#utility.yul\":4700:4718   */\n  add\n    /* \"#utility.yul\":4687:4718   */\n  swap5\n  pop\n    /* \"#utility.yul\":4561:4565   */\n  0x20\n    /* \"#utility.yul\":4558:4559   */\n  dup2\n    /* \"#utility.yul\":4554:4566   */\n  add\n    /* \"#utility.yul\":4549:4566   */\n  swap1\n  pop\n    /* \"#utility.yul\":4524:4732   */\n  jump(tag_89)\ntag_91:\n    /* \"#utility.yul\":4760:4766   */\n  dup7\n    /* \"#utility.yul\":4751:4758   */\n  dup4\n    /* \"#utility.yul\":4748:4767   */\n  lt\n    /* \"#utility.yul\":4745:4924   */\n  iszero\n  tag_92\n  jumpi\n    /* \"#utility.yul\":4818:4827   */\n  dup5\n    /* \"#utility.yul\":4813:4816   */\n  dup10\n    /* \"#utility.yul\":4809:4828   */\n  add\n    /* \"#utility.yul\":4803:4829   */\n  mload\n    /* \"#utility.yul\":4861:4909   */\n  tag_93\n    /* \"#utility.yul\":4903:4907   */\n  0x1f\n    /* \"#utility.yul\":4895:4901   */\n  dup10\n    /* \"#utility.yul\":4891:4908   */\n  and\n    /* \"#utility.yul\":4880:4889   */\n  dup3\n    /* \"#utility.yul\":4861:4909   */\n  tag_30\n  jump\t// in\ntag_93:\n    /* \"#utility.yul\":4853:4859   */\n  dup4\n    /* \"#utility.yul\":4846:4910   */\n  sstore\n    /* \"#utility.yul\":4768:4924   */\n  pop\n    /* \"#utility.yul\":4745:4924   */\ntag_92:\n    /* \"#utility.yul\":4970:4971   */\n  0x01\n    /* \"#utility.yul\":4966:4967   */\n  0x02\n    /* \"#utility.yul\":4958:4964   */\n  dup9\n    /* \"#utility.yul\":4954:4968   */\n  mul\n    /* \"#utility.yul\":4950:4972   */\n  add\n    /* \"#utility.yul\":4944:4948   */\n  dup9\n    /* \"#utility.yul\":4937:4973   */\n  sstore\n    /* \"#utility.yul\":4372:4983   */\n  pop\n  pop\n  pop\n    /* \"#utility.yul\":4335:5222   */\ntag_84:\n  pop\n    /* \"#utility.yul\":3925:5228   */\n  pop\n  pop\n  pop\n    /* \"#utility.yul\":3833:5228   */\n  pop\n  pop\n  jump\t// out\n    /* \"igrackanjeDva.sol\":151:2257  contract Pagadba {... */\ntag_11:\n  dataSize(sub_0)\n  dup1\n  dataOffset(sub_0)\n  0x00\n  codecopy\n  0x00\n  return\nstop\n\nsub_0: assembly {\n        /* \"igrackanjeDva.sol\":151:2257  contract Pagadba {... */\n      mstore(0x40, 0x80)\n      callvalue\n      dup1\n      iszero\n      tag_1\n      jumpi\n      0x00\n      dup1\n      revert\n    tag_1:\n      pop\n      jumpi(tag_2, lt(calldatasize, 0x04))\n      shr(0xe0, calldataload(0x00))\n      dup1\n      0x2ad0e369\n      eq\n      tag_3\n      jumpi\n      dup1\n      0x2cfefd8d\n      eq\n      tag_4\n      jumpi\n      dup1\n      0x3f17a3b2\n      eq\n      tag_5\n      jumpi\n      dup1\n      0x6898c126\n      eq\n      tag_6\n      jumpi\n    tag_2:\n      0x00\n      dup1\n      revert\n        /* \"igrackanjeDva.sol\":1789:2106  function pliskoAdd(string memory _ime,uint256 _starost,bool _vZvezi  ) public {... */\n    tag_3:\n      tag_7\n      0x04\n      dup1\n      calldatasize\n      sub\n      dup2\n      add\n      swap1\n      tag_8\n      swap2\n      swap1\n      tag_9\n      jump\t// in\n    tag_8:\n      tag_10\n      jump\t// in\n    tag_7:\n      stop\n        /* \"igrackanjeDva.sol\":1012:1310  function getPliskoByIndex(uint256 indeks)  public view  returns (string memory,uint256, bool) {... */\n    tag_4:\n      tag_11\n      0x04\n      dup1\n      calldatasize\n      sub\n      dup2\n      add\n      swap1\n      tag_12\n      swap2\n      swap1\n      tag_13\n      jump\t// in\n    tag_12:\n      tag_14\n      jump\t// in\n    tag_11:\n      mload(0x40)\n      tag_15\n      swap4\n      swap3\n      swap2\n      swap1\n      tag_16\n      jump\t// in\n    tag_15:\n      mload(0x40)\n      dup1\n      swap2\n      sub\n      swap1\n      return\n        /* \"igrackanjeDva.sol\":1320:1743  function getPliskoByName(string memory _ime) public view returns (string memory, uint256, bool) {... */\n    tag_5:\n      tag_17\n      0x04\n      dup1\n      calldatasize\n      sub\n      dup2\n      add\n      swap1\n      tag_18\n      swap2\n      swap1\n      tag_19\n      jump\t// in\n    tag_18:\n      tag_20\n      jump\t// in\n    tag_17:\n      mload(0x40)\n      tag_21\n      swap4\n      swap3\n      swap2\n      swap1\n      tag_16\n      jump\t// in\n    tag_21:\n      mload(0x40)\n      dup1\n      swap2\n      sub\n      swap1\n      return\n        /* \"igrackanjeDva.sol\":654:678  Plisko[] public pliskoti */\n    tag_6:\n      tag_22\n      0x04\n      dup1\n      calldatasize\n      sub\n      dup2\n      add\n      swap1\n      tag_23\n      swap2\n      swap1\n      tag_13\n      jump\t// in\n    tag_23:\n      tag_24\n      jump\t// in\n    tag_22:\n      mload(0x40)\n      tag_25\n      swap4\n      swap3\n      swap2\n      swap1\n      tag_16\n      jump\t// in\n    tag_25:\n      mload(0x40)\n      dup1\n      swap2\n      sub\n      swap1\n      return\n        /* \"igrackanjeDva.sol\":1789:2106  function pliskoAdd(string memory _ime,uint256 _starost,bool _vZvezi  ) public {... */\n    tag_10:\n        /* \"igrackanjeDva.sol\":1906:1907  0 */\n      0x00\n        /* \"igrackanjeDva.sol\":1891:1895  _ime */\n      dup4\n        /* \"igrackanjeDva.sol\":1885:1903  bytes(_ime).length */\n      mload\n        /* \"igrackanjeDva.sol\":1885:1907  bytes(_ime).length > 0 */\n      gt\n        /* \"igrackanjeDva.sol\":1877:1969  require(bytes(_ime).length > 0, \"Ime mora biti podano med narekovaji in ne sme biti prazno\") */\n      tag_27\n      jumpi\n      mload(0x40)\n      0x08c379a000000000000000000000000000000000000000000000000000000000\n      dup2\n      mstore\n      0x04\n      add\n      tag_28\n      swap1\n      tag_29\n      jump\t// in\n    tag_28:\n      mload(0x40)\n      dup1\n      swap2\n      sub\n      swap1\n      revert\n    tag_27:\n        /* \"igrackanjeDva.sol\":1998:1999  0 */\n      0x00\n        /* \"igrackanjeDva.sol\":1987:1995  _starost */\n      dup3\n        /* \"igrackanjeDva.sol\":1987:1999  _starost > 0 */\n      gt\n        /* \"igrackanjeDva.sol\":1979:2039  require(_starost > 0, \"Starost mora biti pozitivno stevilo\") */\n      tag_30\n      jumpi\n      mload(0x40)\n      0x08c379a000000000000000000000000000000000000000000000000000000000\n      dup2\n      mstore\n      0x04\n      add\n      tag_31\n      swap1\n      tag_32\n      jump\t// in\n    tag_31:\n      mload(0x40)\n      dup1\n      swap2\n      sub\n      swap1\n      revert\n    tag_30:\n        /* \"igrackanjeDva.sol\":2049:2057  pliskoti */\n      0x00\n        /* \"igrackanjeDva.sol\":2063:2092  Plisko(_ime,_starost,_vZvezi) */\n      mload(0x40)\n      dup1\n      0x60\n      add\n      0x40\n      mstore\n      dup1\n        /* \"igrackanjeDva.sol\":2070:2074  _ime */\n      dup6\n        /* \"igrackanjeDva.sol\":2063:2092  Plisko(_ime,_starost,_vZvezi) */\n      dup2\n      mstore\n      0x20\n      add\n        /* \"igrackanjeDva.sol\":2075:2083  _starost */\n      dup5\n        /* \"igrackanjeDva.sol\":2063:2092  Plisko(_ime,_starost,_vZvezi) */\n      dup2\n      mstore\n      0x20\n      add\n        /* \"igrackanjeDva.sol\":2084:2091  _vZvezi */\n      dup4\n        /* \"igrackanjeDva.sol\":2063:2092  Plisko(_ime,_starost,_vZvezi) */\n      iszero\n      iszero\n      dup2\n      mstore\n      pop\n        /* \"igrackanjeDva.sol\":2049:2093  pliskoti.push(Plisko(_ime,_starost,_vZvezi)) */\n      swap1\n      dup1\n      0x01\n      dup2\n      sload\n      add\n      dup1\n      dup3\n      sstore\n      dup1\n      swap2\n      pop\n      pop\n      0x01\n      swap1\n      sub\n      swap1\n      0x00\n      mstore\n      keccak256(0x00, 0x20)\n      swap1\n      0x03\n      mul\n      add\n      0x00\n      swap1\n      swap2\n      swap1\n      swap2\n      swap1\n      swap2\n      pop\n      0x00\n      dup3\n      add\n      mload\n      dup2\n      0x00\n      add\n      swap1\n      dup2\n      tag_34\n      swap2\n      swap1\n      tag_35\n      jump\t// in\n    tag_34:\n      pop\n      0x20\n      dup3\n      add\n      mload\n      dup2\n      0x01\n      add\n      sstore\n      0x40\n      dup3\n      add\n      mload\n      dup2\n      0x02\n      add\n      exp(0x0100, 0x00)\n      dup2\n      sload\n      dup2\n      0xff\n      mul\n      not\n      and\n      swap1\n      dup4\n      iszero\n      iszero\n      mul\n      or\n      swap1\n      sstore\n      pop\n      pop\n      pop\n        /* \"igrackanjeDva.sol\":1789:2106  function pliskoAdd(string memory _ime,uint256 _starost,bool _vZvezi  ) public {... */\n      pop\n      pop\n      pop\n      jump\t// out\n        /* \"igrackanjeDva.sol\":1012:1310  function getPliskoByIndex(uint256 indeks)  public view  returns (string memory,uint256, bool) {... */\n    tag_14:\n        /* \"igrackanjeDva.sol\":1077:1090  string memory */\n      0x60\n        /* \"igrackanjeDva.sol\":1091:1098  uint256 */\n      0x00\n        /* \"igrackanjeDva.sol\":1100:1104  bool */\n      dup1\n        /* \"igrackanjeDva.sol\":1148:1149  1 */\n      0x01\n        /* \"igrackanjeDva.sol\":1132:1140  pliskoti */\n      0x00\n        /* \"igrackanjeDva.sol\":1132:1147  pliskoti.length */\n      dup1\n      sload\n      swap1\n      pop\n        /* \"igrackanjeDva.sol\":1132:1149  pliskoti.length-1 */\n      tag_37\n      swap2\n      swap1\n      tag_38\n      jump\t// in\n    tag_37:\n        /* \"igrackanjeDva.sol\":1123:1129  indeks */\n      dup5\n        /* \"igrackanjeDva.sol\":1123:1149  indeks<= pliskoti.length-1 */\n      gt\n      iszero\n        /* \"igrackanjeDva.sol\":1115:1194  require(indeks<= pliskoti.length-1,\"pod tem indeksom \\u0161e ni pli\\u0161kota\") */\n      tag_39\n      jumpi\n      mload(0x40)\n      0x08c379a000000000000000000000000000000000000000000000000000000000\n      dup2\n      mstore\n      0x04\n      add\n      tag_40\n      swap1\n      tag_41\n      jump\t// in\n    tag_40:\n      mload(0x40)\n      dup1\n      swap2\n      sub\n      swap1\n      revert\n    tag_39:\n        /* \"igrackanjeDva.sol\":1203:1223  Plisko memory plisko */\n      0x00\n        /* \"igrackanjeDva.sol\":1226:1234  pliskoti */\n      dup1\n        /* \"igrackanjeDva.sol\":1235:1241  indeks */\n      dup6\n        /* \"igrackanjeDva.sol\":1226:1242  pliskoti[indeks] */\n      dup2\n      sload\n      dup2\n      lt\n      tag_42\n      jumpi\n      tag_43\n      tag_44\n      jump\t// in\n    tag_43:\n    tag_42:\n      swap1\n      0x00\n      mstore\n      keccak256(0x00, 0x20)\n      swap1\n      0x03\n      mul\n      add\n        /* \"igrackanjeDva.sol\":1203:1242  Plisko memory plisko = pliskoti[indeks] */\n      mload(0x40)\n      dup1\n      0x60\n      add\n      0x40\n      mstore\n      swap1\n      dup2\n      0x00\n      dup3\n      add\n      dup1\n      sload\n      tag_46\n      swap1\n      tag_47\n      jump\t// in\n    tag_46:\n      dup1\n      0x1f\n      add\n      0x20\n      dup1\n      swap2\n      div\n      mul\n      0x20\n      add\n      mload(0x40)\n      swap1\n      dup2\n      add\n      0x40\n      mstore\n      dup1\n      swap3\n      swap2\n      swap1\n      dup2\n      dup2\n      mstore\n      0x20\n      add\n      dup3\n      dup1\n      sload\n      tag_48\n      swap1\n      tag_47\n      jump\t// in\n    tag_48:\n      dup1\n      iszero\n      tag_49\n      jumpi\n      dup1\n      0x1f\n      lt\n      tag_50\n      jumpi\n      0x0100\n      dup1\n      dup4\n      sload\n      div\n      mul\n      dup4\n      mstore\n      swap2\n      0x20\n      add\n      swap2\n      jump(tag_49)\n    tag_50:\n      dup3\n      add\n      swap2\n      swap1\n      0x00\n      mstore\n      keccak256(0x00, 0x20)\n      swap1\n    tag_51:\n      dup2\n      sload\n      dup2\n      mstore\n      swap1\n      0x01\n      add\n      swap1\n      0x20\n      add\n      dup1\n      dup4\n      gt\n      tag_51\n      jumpi\n      dup3\n      swap1\n      sub\n      0x1f\n      and\n      dup3\n      add\n      swap2\n    tag_49:\n      pop\n      pop\n      pop\n      pop\n      pop\n      dup2\n      mstore\n      0x20\n      add\n      0x01\n      dup3\n      add\n      sload\n      dup2\n      mstore\n      0x20\n      add\n      0x02\n      dup3\n      add\n      0x00\n      swap1\n      sload\n      swap1\n      0x0100\n      exp\n      swap1\n      div\n      0xff\n      and\n      iszero\n      iszero\n      iszero\n      iszero\n      dup2\n      mstore\n      pop\n      pop\n      swap1\n      pop\n        /* \"igrackanjeDva.sol\":1259:1265  plisko */\n      dup1\n        /* \"igrackanjeDva.sol\":1259:1269  plisko.ime */\n      0x00\n      add\n      mload\n        /* \"igrackanjeDva.sol\":1271:1277  plisko */\n      dup2\n        /* \"igrackanjeDva.sol\":1271:1285  plisko.starost */\n      0x20\n      add\n      mload\n        /* \"igrackanjeDva.sol\":1288:1294  plisko */\n      dup3\n        /* \"igrackanjeDva.sol\":1288:1301  plisko.vZvezi */\n      0x40\n      add\n      mload\n        /* \"igrackanjeDva.sol\":1251:1302  return (plisko.ime, plisko.starost , plisko.vZvezi) */\n      swap4\n      pop\n      swap4\n      pop\n      swap4\n      pop\n      pop\n        /* \"igrackanjeDva.sol\":1012:1310  function getPliskoByIndex(uint256 indeks)  public view  returns (string memory,uint256, bool) {... */\n      swap2\n      swap4\n      swap1\n      swap3\n      pop\n      jump\t// out\n        /* \"igrackanjeDva.sol\":1320:1743  function getPliskoByName(string memory _ime) public view returns (string memory, uint256, bool) {... */\n    tag_20:\n        /* \"igrackanjeDva.sol\":1386:1399  string memory */\n      0x60\n        /* \"igrackanjeDva.sol\":1401:1408  uint256 */\n      0x00\n        /* \"igrackanjeDva.sol\":1410:1414  bool */\n      dup1\n        /* \"igrackanjeDva.sol\":1432:1441  uint256 i */\n      0x00\n        /* \"igrackanjeDva.sol\":1427:1686  for (uint256 i = 0; i < pliskoti.length; i++) {... */\n    tag_53:\n        /* \"igrackanjeDva.sol\":1451:1459  pliskoti */\n      0x00\n        /* \"igrackanjeDva.sol\":1451:1466  pliskoti.length */\n      dup1\n      sload\n      swap1\n      pop\n        /* \"igrackanjeDva.sol\":1447:1448  i */\n      dup2\n        /* \"igrackanjeDva.sol\":1447:1466  i < pliskoti.length */\n      lt\n        /* \"igrackanjeDva.sol\":1427:1686  for (uint256 i = 0; i < pliskoti.length; i++) {... */\n      iszero\n      tag_54\n      jumpi\n        /* \"igrackanjeDva.sol\":1567:1571  _ime */\n      dup5\n        /* \"igrackanjeDva.sol\":1550:1572  abi.encodePacked(_ime) */\n      add(0x20, mload(0x40))\n      tag_56\n      swap2\n      swap1\n      tag_57\n      jump\t// in\n    tag_56:\n      mload(0x40)\n      0x20\n      dup2\n      dup4\n      sub\n      sub\n      dup2\n      mstore\n      swap1\n      0x40\n      mstore\n        /* \"igrackanjeDva.sol\":1540:1573  keccak256(abi.encodePacked(_ime)) */\n      dup1\n      mload\n      swap1\n      0x20\n      add\n      keccak256\n        /* \"igrackanjeDva.sol\":1519:1527  pliskoti */\n      0x00\n        /* \"igrackanjeDva.sol\":1528:1529  i */\n      dup3\n        /* \"igrackanjeDva.sol\":1519:1530  pliskoti[i] */\n      dup2\n      sload\n      dup2\n      lt\n      tag_58\n      jumpi\n      tag_59\n      tag_44\n      jump\t// in\n    tag_59:\n    tag_58:\n      swap1\n      0x00\n      mstore\n      keccak256(0x00, 0x20)\n      swap1\n      0x03\n      mul\n      add\n        /* \"igrackanjeDva.sol\":1519:1534  pliskoti[i].ime */\n      0x00\n      add\n        /* \"igrackanjeDva.sol\":1502:1535  abi.encodePacked(pliskoti[i].ime) */\n      add(0x20, mload(0x40))\n      tag_61\n      swap2\n      swap1\n      tag_62\n      jump\t// in\n    tag_61:\n      mload(0x40)\n      0x20\n      dup2\n      dup4\n      sub\n      sub\n      dup2\n      mstore\n      swap1\n      0x40\n      mstore\n        /* \"igrackanjeDva.sol\":1492:1536  keccak256(abi.encodePacked(pliskoti[i].ime)) */\n      dup1\n      mload\n      swap1\n      0x20\n      add\n      keccak256\n        /* \"igrackanjeDva.sol\":1492:1573  keccak256(abi.encodePacked(pliskoti[i].ime)) == keccak256(abi.encodePacked(_ime)) */\n      sub\n        /* \"igrackanjeDva.sol\":1488:1675  if (keccak256(abi.encodePacked(pliskoti[i].ime)) == keccak256(abi.encodePacked(_ime))) {... */\n      tag_63\n      jumpi\n        /* \"igrackanjeDva.sol\":1602:1610  pliskoti */\n      0x00\n        /* \"igrackanjeDva.sol\":1611:1612  i */\n      dup2\n        /* \"igrackanjeDva.sol\":1602:1613  pliskoti[i] */\n      dup2\n      sload\n      dup2\n      lt\n      tag_64\n      jumpi\n      tag_65\n      tag_44\n      jump\t// in\n    tag_65:\n    tag_64:\n      swap1\n      0x00\n      mstore\n      keccak256(0x00, 0x20)\n      swap1\n      0x03\n      mul\n      add\n        /* \"igrackanjeDva.sol\":1602:1617  pliskoti[i].ime */\n      0x00\n      add\n        /* \"igrackanjeDva.sol\":1619:1627  pliskoti */\n      0x00\n        /* \"igrackanjeDva.sol\":1628:1629  i */\n      dup3\n        /* \"igrackanjeDva.sol\":1619:1630  pliskoti[i] */\n      dup2\n      sload\n      dup2\n      lt\n      tag_67\n      jumpi\n      tag_68\n      tag_44\n      jump\t// in\n    tag_68:\n    tag_67:\n      swap1\n      0x00\n      mstore\n      keccak256(0x00, 0x20)\n      swap1\n      0x03\n      mul\n      add\n        /* \"igrackanjeDva.sol\":1619:1638  pliskoti[i].starost */\n      0x01\n      add\n      sload\n        /* \"igrackanjeDva.sol\":1640:1648  pliskoti */\n      0x00\n        /* \"igrackanjeDva.sol\":1649:1650  i */\n      dup4\n        /* \"igrackanjeDva.sol\":1640:1651  pliskoti[i] */\n      dup2\n      sload\n      dup2\n      lt\n      tag_70\n      jumpi\n      tag_71\n      tag_44\n      jump\t// in\n    tag_71:\n    tag_70:\n      swap1\n      0x00\n      mstore\n      keccak256(0x00, 0x20)\n      swap1\n      0x03\n      mul\n      add\n        /* \"igrackanjeDva.sol\":1640:1658  pliskoti[i].vZvezi */\n      0x02\n      add\n      0x00\n      swap1\n      sload\n      swap1\n      0x0100\n      exp\n      swap1\n      div\n      0xff\n      and\n        /* \"igrackanjeDva.sol\":1594:1659  return (pliskoti[i].ime, pliskoti[i].starost, pliskoti[i].vZvezi) */\n      dup3\n      dup1\n      sload\n      tag_73\n      swap1\n      tag_47\n      jump\t// in\n    tag_73:\n      dup1\n      0x1f\n      add\n      0x20\n      dup1\n      swap2\n      div\n      mul\n      0x20\n      add\n      mload(0x40)\n      swap1\n      dup2\n      add\n      0x40\n      mstore\n      dup1\n      swap3\n      swap2\n      swap1\n      dup2\n      dup2\n      mstore\n      0x20\n      add\n      dup3\n      dup1\n      sload\n      tag_74\n      swap1\n      tag_47\n      jump\t// in\n    tag_74:\n      dup1\n      iszero\n      tag_75\n      jumpi\n      dup1\n      0x1f\n      lt\n      tag_76\n      jumpi\n      0x0100\n      dup1\n      dup4\n      sload\n      div\n      mul\n      dup4\n      mstore\n      swap2\n      0x20\n      add\n      swap2\n      jump(tag_75)\n    tag_76:\n      dup3\n      add\n      swap2\n      swap1\n      0x00\n      mstore\n      keccak256(0x00, 0x20)\n      swap1\n    tag_77:\n      dup2\n      sload\n      dup2\n      mstore\n      swap1\n      0x01\n      add\n      swap1\n      0x20\n      add\n      dup1\n      dup4\n      gt\n      tag_77\n      jumpi\n      dup3\n      swap1\n      sub\n      0x1f\n      and\n      dup3\n      add\n      swap2\n    tag_75:\n      pop\n      pop\n      pop\n      pop\n      pop\n      swap3\n      pop\n      swap4\n      pop\n      swap4\n      pop\n      swap4\n      pop\n      pop\n      jump(tag_52)\n        /* \"igrackanjeDva.sol\":1488:1675  if (keccak256(abi.encodePacked(pliskoti[i].ime)) == keccak256(abi.encodePacked(_ime))) {... */\n    tag_63:\n        /* \"igrackanjeDva.sol\":1468:1471  i++ */\n      dup1\n      dup1\n      0x01\n      add\n      swap2\n      pop\n      pop\n        /* \"igrackanjeDva.sol\":1427:1686  for (uint256 i = 0; i < pliskoti.length; i++) {... */\n      jump(tag_53)\n    tag_54:\n      pop\n        /* \"igrackanjeDva.sol\":1696:1735  revert(\"Plisko s tem imenom ni najden\") */\n      mload(0x40)\n      0x08c379a000000000000000000000000000000000000000000000000000000000\n      dup2\n      mstore\n      0x04\n      add\n      tag_78\n      swap1\n      tag_79\n      jump\t// in\n    tag_78:\n      mload(0x40)\n      dup1\n      swap2\n      sub\n      swap1\n      revert\n        /* \"igrackanjeDva.sol\":1320:1743  function getPliskoByName(string memory _ime) public view returns (string memory, uint256, bool) {... */\n    tag_52:\n      swap2\n      swap4\n      swap1\n      swap3\n      pop\n      jump\t// out\n        /* \"igrackanjeDva.sol\":654:678  Plisko[] public pliskoti */\n    tag_24:\n      0x00\n      dup2\n      dup2\n      sload\n      dup2\n      lt\n      tag_80\n      jumpi\n      0x00\n      dup1\n      revert\n    tag_80:\n      swap1\n      0x00\n      mstore\n      keccak256(0x00, 0x20)\n      swap1\n      0x03\n      mul\n      add\n      0x00\n      swap2\n      pop\n      swap1\n      pop\n      dup1\n      0x00\n      add\n      dup1\n      sload\n      tag_82\n      swap1\n      tag_47\n      jump\t// in\n    tag_82:\n      dup1\n      0x1f\n      add\n      0x20\n      dup1\n      swap2\n      div\n      mul\n      0x20\n      add\n      mload(0x40)\n      swap1\n      dup2\n      add\n      0x40\n      mstore\n      dup1\n      swap3\n      swap2\n      swap1\n      dup2\n      dup2\n      mstore\n      0x20\n      add\n      dup3\n      dup1\n      sload\n      tag_83\n      swap1\n      tag_47\n      jump\t// in\n    tag_83:\n      dup1\n      iszero\n      tag_84\n      jumpi\n      dup1\n      0x1f\n      lt\n      tag_85\n      jumpi\n      0x0100\n      dup1\n      dup4\n      sload\n      div\n      mul\n      dup4\n      mstore\n      swap2\n      0x20\n      add\n      swap2\n      jump(tag_84)\n    tag_85:\n      dup3\n      add\n      swap2\n      swap1\n      0x00\n      mstore\n      keccak256(0x00, 0x20)\n      swap1\n    tag_86:\n      dup2\n      sload\n      dup2\n      mstore\n      swap1\n      0x01\n      add\n      swap1\n      0x20\n      add\n      dup1\n      dup4\n      gt\n      tag_86\n      jumpi\n      dup3\n      swap1\n      sub\n      0x1f\n      and\n      dup3\n      add\n      swap2\n    tag_84:\n      pop\n      pop\n      pop\n      pop\n      pop\n      swap1\n      dup1\n      0x01\n      add\n      sload\n      swap1\n      dup1\n      0x02\n      add\n      0x00\n      swap1\n      sload\n      swap1\n      0x0100\n      exp\n      swap1\n      div\n      0xff\n      and\n      swap1\n      pop\n      dup4\n      jump\t// out\n        /* \"#utility.yul\":7:82   */\n    tag_87:\n        /* \"#utility.yul\":40:46   */\n      0x00\n        /* \"#utility.yul\":73:75   */\n      0x40\n        /* \"#utility.yul\":67:76   */\n      mload\n        /* \"#utility.yul\":57:76   */\n      swap1\n      pop\n        /* \"#utility.yul\":7:82   */\n      swap1\n      jump\t// out\n        /* \"#utility.yul\":88:205   */\n    tag_88:\n        /* \"#utility.yul\":197:198   */\n      0x00\n        /* \"#utility.yul\":194:195   */\n      dup1\n        /* \"#utility.yul\":187:199   */\n      revert\n        /* \"#utility.yul\":211:328   */\n    tag_89:\n        /* \"#utility.yul\":320:321   */\n      0x00\n        /* \"#utility.yul\":317:318   */\n      dup1\n        /* \"#utility.yul\":310:322   */\n      revert\n        /* \"#utility.yul\":334:451   */\n    tag_90:\n        /* \"#utility.yul\":443:444   */\n      0x00\n        /* \"#utility.yul\":440:441   */\n      dup1\n        /* \"#utility.yul\":433:445   */\n      revert\n        /* \"#utility.yul\":457:574   */\n    tag_91:\n        /* \"#utility.yul\":566:567   */\n      0x00\n        /* \"#utility.yul\":563:564   */\n      dup1\n        /* \"#utility.yul\":556:568   */\n      revert\n        /* \"#utility.yul\":580:682   */\n    tag_92:\n        /* \"#utility.yul\":621:627   */\n      0x00\n        /* \"#utility.yul\":672:674   */\n      0x1f\n        /* \"#utility.yul\":668:675   */\n      not\n        /* \"#utility.yul\":663:665   */\n      0x1f\n        /* \"#utility.yul\":656:661   */\n      dup4\n        /* \"#utility.yul\":652:666   */\n      add\n        /* \"#utility.yul\":648:676   */\n      and\n        /* \"#utility.yul\":638:676   */\n      swap1\n      pop\n        /* \"#utility.yul\":580:682   */\n      swap2\n      swap1\n      pop\n      jump\t// out\n        /* \"#utility.yul\":688:868   */\n    tag_93:\n        /* \"#utility.yul\":736:813   */\n      0x4e487b7100000000000000000000000000000000000000000000000000000000\n        /* \"#utility.yul\":733:734   */\n      0x00\n        /* \"#utility.yul\":726:814   */\n      mstore\n        /* \"#utility.yul\":833:837   */\n      0x41\n        /* \"#utility.yul\":830:831   */\n      0x04\n        /* \"#utility.yul\":823:838   */\n      mstore\n        /* \"#utility.yul\":857:861   */\n      0x24\n        /* \"#utility.yul\":854:855   */\n      0x00\n        /* \"#utility.yul\":847:862   */\n      revert\n        /* \"#utility.yul\":874:1155   */\n    tag_94:\n        /* \"#utility.yul\":957:984   */\n      tag_149\n        /* \"#utility.yul\":979:983   */\n      dup3\n        /* \"#utility.yul\":957:984   */\n      tag_92\n      jump\t// in\n    tag_149:\n        /* \"#utility.yul\":949:955   */\n      dup2\n        /* \"#utility.yul\":945:985   */\n      add\n        /* \"#utility.yul\":1087:1093   */\n      dup2\n        /* \"#utility.yul\":1075:1085   */\n      dup2\n        /* \"#utility.yul\":1072:1094   */\n      lt\n        /* \"#utility.yul\":1051:1069   */\n      0xffffffffffffffff\n        /* \"#utility.yul\":1039:1049   */\n      dup3\n        /* \"#utility.yul\":1036:1070   */\n      gt\n        /* \"#utility.yul\":1033:1095   */\n      or\n        /* \"#utility.yul\":1030:1118   */\n      iszero\n      tag_150\n      jumpi\n        /* \"#utility.yul\":1098:1116   */\n      tag_151\n      tag_93\n      jump\t// in\n    tag_151:\n        /* \"#utility.yul\":1030:1118   */\n    tag_150:\n        /* \"#utility.yul\":1138:1148   */\n      dup1\n        /* \"#utility.yul\":1134:1136   */\n      0x40\n        /* \"#utility.yul\":1127:1149   */\n      mstore\n        /* \"#utility.yul\":917:1155   */\n      pop\n        /* \"#utility.yul\":874:1155   */\n      pop\n      pop\n      jump\t// out\n        /* \"#utility.yul\":1161:1290   */\n    tag_95:\n        /* \"#utility.yul\":1195:1201   */\n      0x00\n        /* \"#utility.yul\":1222:1242   */\n      tag_153\n      tag_87\n      jump\t// in\n    tag_153:\n        /* \"#utility.yul\":1212:1242   */\n      swap1\n      pop\n        /* \"#utility.yul\":1251:1284   */\n      tag_154\n        /* \"#utility.yul\":1279:1283   */\n      dup3\n        /* \"#utility.yul\":1271:1277   */\n      dup3\n        /* \"#utility.yul\":1251:1284   */\n      tag_94\n      jump\t// in\n    tag_154:\n        /* \"#utility.yul\":1161:1290   */\n      swap2\n      swap1\n      pop\n      jump\t// out\n        /* \"#utility.yul\":1296:1604   */\n    tag_96:\n        /* \"#utility.yul\":1358:1362   */\n      0x00\n        /* \"#utility.yul\":1448:1466   */\n      0xffffffffffffffff\n        /* \"#utility.yul\":1440:1446   */\n      dup3\n        /* \"#utility.yul\":1437:1467   */\n      gt\n        /* \"#utility.yul\":1434:1490   */\n      iszero\n      tag_156\n      jumpi\n        /* \"#utility.yul\":1470:1488   */\n      tag_157\n      tag_93\n      jump\t// in\n    tag_157:\n        /* \"#utility.yul\":1434:1490   */\n    tag_156:\n        /* \"#utility.yul\":1508:1537   */\n      tag_158\n        /* \"#utility.yul\":1530:1536   */\n      dup3\n        /* \"#utility.yul\":1508:1537   */\n      tag_92\n      jump\t// in\n    tag_158:\n        /* \"#utility.yul\":1500:1537   */\n      swap1\n      pop\n        /* \"#utility.yul\":1592:1596   */\n      0x20\n        /* \"#utility.yul\":1586:1590   */\n      dup2\n        /* \"#utility.yul\":1582:1597   */\n      add\n        /* \"#utility.yul\":1574:1597   */\n      swap1\n      pop\n        /* \"#utility.yul\":1296:1604   */\n      swap2\n      swap1\n      pop\n      jump\t// out\n        /* \"#utility.yul\":1610:1758   */\n    tag_97:\n        /* \"#utility.yul\":1708:1714   */\n      dup3\n        /* \"#utility.yul\":1703:1706   */\n      dup2\n        /* \"#utility.yul\":1698:1701   */\n      dup4\n        /* \"#utility.yul\":1685:1715   */\n      calldatacopy\n        /* \"#utility.yul\":1749:1750   */\n      0x00\n        /* \"#utility.yul\":1740:1746   */\n      dup4\n        /* \"#utility.yul\":1735:1738   */\n      dup4\n        /* \"#utility.yul\":1731:1747   */\n      add\n        /* \"#utility.yul\":1724:1751   */\n      mstore\n        /* \"#utility.yul\":1610:1758   */\n      pop\n      pop\n      pop\n      jump\t// out\n        /* \"#utility.yul\":1764:2189   */\n    tag_98:\n        /* \"#utility.yul\":1842:1847   */\n      0x00\n        /* \"#utility.yul\":1867:1933   */\n      tag_161\n        /* \"#utility.yul\":1883:1932   */\n      tag_162\n        /* \"#utility.yul\":1925:1931   */\n      dup5\n        /* \"#utility.yul\":1883:1932   */\n      tag_96\n      jump\t// in\n    tag_162:\n        /* \"#utility.yul\":1867:1933   */\n      tag_95\n      jump\t// in\n    tag_161:\n        /* \"#utility.yul\":1858:1933   */\n      swap1\n      pop\n        /* \"#utility.yul\":1956:1962   */\n      dup3\n        /* \"#utility.yul\":1949:1954   */\n      dup2\n        /* \"#utility.yul\":1942:1963   */\n      mstore\n        /* \"#utility.yul\":1994:1998   */\n      0x20\n        /* \"#utility.yul\":1987:1992   */\n      dup2\n        /* \"#utility.yul\":1983:1999   */\n      add\n        /* \"#utility.yul\":2032:2035   */\n      dup5\n        /* \"#utility.yul\":2023:2029   */\n      dup5\n        /* \"#utility.yul\":2018:2021   */\n      dup5\n        /* \"#utility.yul\":2014:2030   */\n      add\n        /* \"#utility.yul\":2011:2036   */\n      gt\n        /* \"#utility.yul\":2008:2120   */\n      iszero\n      tag_163\n      jumpi\n        /* \"#utility.yul\":2039:2118   */\n      tag_164\n      tag_91\n      jump\t// in\n    tag_164:\n        /* \"#utility.yul\":2008:2120   */\n    tag_163:\n        /* \"#utility.yul\":2129:2183   */\n      tag_165\n        /* \"#utility.yul\":2176:2182   */\n      dup5\n        /* \"#utility.yul\":2171:2174   */\n      dup3\n        /* \"#utility.yul\":2166:2169   */\n      dup6\n        /* \"#utility.yul\":2129:2183   */\n      tag_97\n      jump\t// in\n    tag_165:\n        /* \"#utility.yul\":1848:2189   */\n      pop\n        /* \"#utility.yul\":1764:2189   */\n      swap4\n      swap3\n      pop\n      pop\n      pop\n      jump\t// out\n        /* \"#utility.yul\":2209:2549   */\n    tag_99:\n        /* \"#utility.yul\":2265:2270   */\n      0x00\n        /* \"#utility.yul\":2314:2317   */\n      dup3\n        /* \"#utility.yul\":2307:2311   */\n      0x1f\n        /* \"#utility.yul\":2299:2305   */\n      dup4\n        /* \"#utility.yul\":2295:2312   */\n      add\n        /* \"#utility.yul\":2291:2318   */\n      slt\n        /* \"#utility.yul\":2281:2403   */\n      tag_167\n      jumpi\n        /* \"#utility.yul\":2322:2401   */\n      tag_168\n      tag_90\n      jump\t// in\n    tag_168:\n        /* \"#utility.yul\":2281:2403   */\n    tag_167:\n        /* \"#utility.yul\":2439:2445   */\n      dup2\n        /* \"#utility.yul\":2426:2446   */\n      calldataload\n        /* \"#utility.yul\":2464:2543   */\n      tag_169\n        /* \"#utility.yul\":2539:2542   */\n      dup5\n        /* \"#utility.yul\":2531:2537   */\n      dup3\n        /* \"#utility.yul\":2524:2528   */\n      0x20\n        /* \"#utility.yul\":2516:2522   */\n      dup7\n        /* \"#utility.yul\":2512:2529   */\n      add\n        /* \"#utility.yul\":2464:2543   */\n      tag_98\n      jump\t// in\n    tag_169:\n        /* \"#utility.yul\":2455:2543   */\n      swap2\n      pop\n        /* \"#utility.yul\":2271:2549   */\n      pop\n        /* \"#utility.yul\":2209:2549   */\n      swap3\n      swap2\n      pop\n      pop\n      jump\t// out\n        /* \"#utility.yul\":2555:2632   */\n    tag_100:\n        /* \"#utility.yul\":2592:2599   */\n      0x00\n        /* \"#utility.yul\":2621:2626   */\n      dup2\n        /* \"#utility.yul\":2610:2626   */\n      swap1\n      pop\n        /* \"#utility.yul\":2555:2632   */\n      swap2\n      swap1\n      pop\n      jump\t// out\n        /* \"#utility.yul\":2638:2760   */\n    tag_101:\n        /* \"#utility.yul\":2711:2735   */\n      tag_172\n        /* \"#utility.yul\":2729:2734   */\n      dup2\n        /* \"#utility.yul\":2711:2735   */\n      tag_100\n      jump\t// in\n    tag_172:\n        /* \"#utility.yul\":2704:2709   */\n      dup2\n        /* \"#utility.yul\":2701:2736   */\n      eq\n        /* \"#utility.yul\":2691:2754   */\n      tag_173\n      jumpi\n        /* \"#utility.yul\":2750:2751   */\n      0x00\n        /* \"#utility.yul\":2747:2748   */\n      dup1\n        /* \"#utility.yul\":2740:2752   */\n      revert\n        /* \"#utility.yul\":2691:2754   */\n    tag_173:\n        /* \"#utility.yul\":2638:2760   */\n      pop\n      jump\t// out\n        /* \"#utility.yul\":2766:2905   */\n    tag_102:\n        /* \"#utility.yul\":2812:2817   */\n      0x00\n        /* \"#utility.yul\":2850:2856   */\n      dup2\n        /* \"#utility.yul\":2837:2857   */\n      calldataload\n        /* \"#utility.yul\":2828:2857   */\n      swap1\n      pop\n        /* \"#utility.yul\":2866:2899   */\n      tag_175\n        /* \"#utility.yul\":2893:2898   */\n      dup2\n        /* \"#utility.yul\":2866:2899   */\n      tag_101\n      jump\t// in\n    tag_175:\n        /* \"#utility.yul\":2766:2905   */\n      swap3\n      swap2\n      pop\n      pop\n      jump\t// out\n        /* \"#utility.yul\":2911:3001   */\n    tag_103:\n        /* \"#utility.yul\":2945:2952   */\n      0x00\n        /* \"#utility.yul\":2988:2993   */\n      dup2\n        /* \"#utility.yul\":2981:2994   */\n      iszero\n        /* \"#utility.yul\":2974:2995   */\n      iszero\n        /* \"#utility.yul\":2963:2995   */\n      swap1\n      pop\n        /* \"#utility.yul\":2911:3001   */\n      swap2\n      swap1\n      pop\n      jump\t// out\n        /* \"#utility.yul\":3007:3123   */\n    tag_104:\n        /* \"#utility.yul\":3077:3098   */\n      tag_178\n        /* \"#utility.yul\":3092:3097   */\n      dup2\n        /* \"#utility.yul\":3077:3098   */\n      tag_103\n      jump\t// in\n    tag_178:\n        /* \"#utility.yul\":3070:3075   */\n      dup2\n        /* \"#utility.yul\":3067:3099   */\n      eq\n        /* \"#utility.yul\":3057:3117   */\n      tag_179\n      jumpi\n        /* \"#utility.yul\":3113:3114   */\n      0x00\n        /* \"#utility.yul\":3110:3111   */\n      dup1\n        /* \"#utility.yul\":3103:3115   */\n      revert\n        /* \"#utility.yul\":3057:3117   */\n    tag_179:\n        /* \"#utility.yul\":3007:3123   */\n      pop\n      jump\t// out\n        /* \"#utility.yul\":3129:3262   */\n    tag_105:\n        /* \"#utility.yul\":3172:3177   */\n      0x00\n        /* \"#utility.yul\":3210:3216   */\n      dup2\n        /* \"#utility.yul\":3197:3217   */\n      calldataload\n        /* \"#utility.yul\":3188:3217   */\n      swap1\n      pop\n        /* \"#utility.yul\":3226:3256   */\n      tag_181\n        /* \"#utility.yul\":3250:3255   */\n      dup2\n        /* \"#utility.yul\":3226:3256   */\n      tag_104\n      jump\t// in\n    tag_181:\n        /* \"#utility.yul\":3129:3262   */\n      swap3\n      swap2\n      pop\n      pop\n      jump\t// out\n        /* \"#utility.yul\":3268:4061   */\n    tag_9:\n        /* \"#utility.yul\":3352:3358   */\n      0x00\n        /* \"#utility.yul\":3360:3366   */\n      dup1\n        /* \"#utility.yul\":3368:3374   */\n      0x00\n        /* \"#utility.yul\":3417:3419   */\n      0x60\n        /* \"#utility.yul\":3405:3414   */\n      dup5\n        /* \"#utility.yul\":3396:3403   */\n      dup7\n        /* \"#utility.yul\":3392:3415   */\n      sub\n        /* \"#utility.yul\":3388:3420   */\n      slt\n        /* \"#utility.yul\":3385:3504   */\n      iszero\n      tag_183\n      jumpi\n        /* \"#utility.yul\":3423:3502   */\n      tag_184\n      tag_88\n      jump\t// in\n    tag_184:\n        /* \"#utility.yul\":3385:3504   */\n    tag_183:\n        /* \"#utility.yul\":3571:3572   */\n      0x00\n        /* \"#utility.yul\":3560:3569   */\n      dup5\n        /* \"#utility.yul\":3556:3573   */\n      add\n        /* \"#utility.yul\":3543:3574   */\n      calldataload\n        /* \"#utility.yul\":3601:3619   */\n      0xffffffffffffffff\n        /* \"#utility.yul\":3593:3599   */\n      dup2\n        /* \"#utility.yul\":3590:3620   */\n      gt\n        /* \"#utility.yul\":3587:3704   */\n      iszero\n      tag_185\n      jumpi\n        /* \"#utility.yul\":3623:3702   */\n      tag_186\n      tag_89\n      jump\t// in\n    tag_186:\n        /* \"#utility.yul\":3587:3704   */\n    tag_185:\n        /* \"#utility.yul\":3728:3791   */\n      tag_187\n        /* \"#utility.yul\":3783:3790   */\n      dup7\n        /* \"#utility.yul\":3774:3780   */\n      dup3\n        /* \"#utility.yul\":3763:3772   */\n      dup8\n        /* \"#utility.yul\":3759:3781   */\n      add\n        /* \"#utility.yul\":3728:3791   */\n      tag_99\n      jump\t// in\n    tag_187:\n        /* \"#utility.yul\":3718:3791   */\n      swap4\n      pop\n        /* \"#utility.yul\":3514:3801   */\n      pop\n        /* \"#utility.yul\":3840:3842   */\n      0x20\n        /* \"#utility.yul\":3866:3919   */\n      tag_188\n        /* \"#utility.yul\":3911:3918   */\n      dup7\n        /* \"#utility.yul\":3902:3908   */\n      dup3\n        /* \"#utility.yul\":3891:3900   */\n      dup8\n        /* \"#utility.yul\":3887:3909   */\n      add\n        /* \"#utility.yul\":3866:3919   */\n      tag_102\n      jump\t// in\n    tag_188:\n        /* \"#utility.yul\":3856:3919   */\n      swap3\n      pop\n        /* \"#utility.yul\":3811:3929   */\n      pop\n        /* \"#utility.yul\":3968:3970   */\n      0x40\n        /* \"#utility.yul\":3994:4044   */\n      tag_189\n        /* \"#utility.yul\":4036:4043   */\n      dup7\n        /* \"#utility.yul\":4027:4033   */\n      dup3\n        /* \"#utility.yul\":4016:4025   */\n      dup8\n        /* \"#utility.yul\":4012:4034   */\n      add\n        /* \"#utility.yul\":3994:4044   */\n      tag_105\n      jump\t// in\n    tag_189:\n        /* \"#utility.yul\":3984:4044   */\n      swap2\n      pop\n        /* \"#utility.yul\":3939:4054   */\n      pop\n        /* \"#utility.yul\":3268:4061   */\n      swap3\n      pop\n      swap3\n      pop\n      swap3\n      jump\t// out\n        /* \"#utility.yul\":4067:4396   */\n    tag_13:\n        /* \"#utility.yul\":4126:4132   */\n      0x00\n        /* \"#utility.yul\":4175:4177   */\n      0x20\n        /* \"#utility.yul\":4163:4172   */\n      dup3\n        /* \"#utility.yul\":4154:4161   */\n      dup5\n        /* \"#utility.yul\":4150:4173   */\n      sub\n        /* \"#utility.yul\":4146:4178   */\n      slt\n        /* \"#utility.yul\":4143:4262   */\n      iszero\n      tag_191\n      jumpi\n        /* \"#utility.yul\":4181:4260   */\n      tag_192\n      tag_88\n      jump\t// in\n    tag_192:\n        /* \"#utility.yul\":4143:4262   */\n    tag_191:\n        /* \"#utility.yul\":4301:4302   */\n      0x00\n        /* \"#utility.yul\":4326:4379   */\n      tag_193\n        /* \"#utility.yul\":4371:4378   */\n      dup5\n        /* \"#utility.yul\":4362:4368   */\n      dup3\n        /* \"#utility.yul\":4351:4360   */\n      dup6\n        /* \"#utility.yul\":4347:4369   */\n      add\n        /* \"#utility.yul\":4326:4379   */\n      tag_102\n      jump\t// in\n    tag_193:\n        /* \"#utility.yul\":4316:4379   */\n      swap2\n      pop\n        /* \"#utility.yul\":4272:4389   */\n      pop\n        /* \"#utility.yul\":4067:4396   */\n      swap3\n      swap2\n      pop\n      pop\n      jump\t// out\n        /* \"#utility.yul\":4402:4501   */\n    tag_106:\n        /* \"#utility.yul\":4454:4460   */\n      0x00\n        /* \"#utility.yul\":4488:4493   */\n      dup2\n        /* \"#utility.yul\":4482:4494   */\n      mload\n        /* \"#utility.yul\":4472:4494   */\n      swap1\n      pop\n        /* \"#utility.yul\":4402:4501   */\n      swap2\n      swap1\n      pop\n      jump\t// out\n        /* \"#utility.yul\":4507:4676   */\n    tag_107:\n        /* \"#utility.yul\":4591:4602   */\n      0x00\n        /* \"#utility.yul\":4625:4631   */\n      dup3\n        /* \"#utility.yul\":4620:4623   */\n      dup3\n        /* \"#utility.yul\":4613:4632   */\n      mstore\n        /* \"#utility.yul\":4665:4669   */\n      0x20\n        /* \"#utility.yul\":4660:4663   */\n      dup3\n        /* \"#utility.yul\":4656:4670   */\n      add\n        /* \"#utility.yul\":4641:4670   */\n      swap1\n      pop\n        /* \"#utility.yul\":4507:4676   */\n      swap3\n      swap2\n      pop\n      pop\n      jump\t// out\n        /* \"#utility.yul\":4682:4821   */\n    tag_108:\n        /* \"#utility.yul\":4771:4777   */\n      dup3\n        /* \"#utility.yul\":4766:4769   */\n      dup2\n        /* \"#utility.yul\":4761:4764   */\n      dup4\n        /* \"#utility.yul\":4755:4778   */\n      mcopy\n        /* \"#utility.yul\":4812:4813   */\n      0x00\n        /* \"#utility.yul\":4803:4809   */\n      dup4\n        /* \"#utility.yul\":4798:4801   */\n      dup4\n        /* \"#utility.yul\":4794:4810   */\n      add\n        /* \"#utility.yul\":4787:4814   */\n      mstore\n        /* \"#utility.yul\":4682:4821   */\n      pop\n      pop\n      pop\n      jump\t// out\n        /* \"#utility.yul\":4827:5204   */\n    tag_109:\n        /* \"#utility.yul\":4915:4918   */\n      0x00\n        /* \"#utility.yul\":4943:4982   */\n      tag_198\n        /* \"#utility.yul\":4976:4981   */\n      dup3\n        /* \"#utility.yul\":4943:4982   */\n      tag_106\n      jump\t// in\n    tag_198:\n        /* \"#utility.yul\":4998:5069   */\n      tag_199\n        /* \"#utility.yul\":5062:5068   */\n      dup2\n        /* \"#utility.yul\":5057:5060   */\n      dup6\n        /* \"#utility.yul\":4998:5069   */\n      tag_107\n      jump\t// in\n    tag_199:\n        /* \"#utility.yul\":4991:5069   */\n      swap4\n      pop\n        /* \"#utility.yul\":5078:5143   */\n      tag_200\n        /* \"#utility.yul\":5136:5142   */\n      dup2\n        /* \"#utility.yul\":5131:5134   */\n      dup6\n        /* \"#utility.yul\":5124:5128   */\n      0x20\n        /* \"#utility.yul\":5117:5122   */\n      dup7\n        /* \"#utility.yul\":5113:5129   */\n      add\n        /* \"#utility.yul\":5078:5143   */\n      tag_108\n      jump\t// in\n    tag_200:\n        /* \"#utility.yul\":5168:5197   */\n      tag_201\n        /* \"#utility.yul\":5190:5196   */\n      dup2\n        /* \"#utility.yul\":5168:5197   */\n      tag_92\n      jump\t// in\n    tag_201:\n        /* \"#utility.yul\":5163:5166   */\n      dup5\n        /* \"#utility.yul\":5159:5198   */\n      add\n        /* \"#utility.yul\":5152:5198   */\n      swap2\n      pop\n        /* \"#utility.yul\":4919:5204   */\n      pop\n        /* \"#utility.yul\":4827:5204   */\n      swap3\n      swap2\n      pop\n      pop\n      jump\t// out\n        /* \"#utility.yul\":5210:5328   */\n    tag_110:\n        /* \"#utility.yul\":5297:5321   */\n      tag_203\n        /* \"#utility.yul\":5315:5320   */\n      dup2\n        /* \"#utility.yul\":5297:5321   */\n      tag_100\n      jump\t// in\n    tag_203:\n        /* \"#utility.yul\":5292:5295   */\n      dup3\n        /* \"#utility.yul\":5285:5322   */\n      mstore\n        /* \"#utility.yul\":5210:5328   */\n      pop\n      pop\n      jump\t// out\n        /* \"#utility.yul\":5334:5443   */\n    tag_111:\n        /* \"#utility.yul\":5415:5436   */\n      tag_205\n        /* \"#utility.yul\":5430:5435   */\n      dup2\n        /* \"#utility.yul\":5415:5436   */\n      tag_103\n      jump\t// in\n    tag_205:\n        /* \"#utility.yul\":5410:5413   */\n      dup3\n        /* \"#utility.yul\":5403:5437   */\n      mstore\n        /* \"#utility.yul\":5334:5443   */\n      pop\n      pop\n      jump\t// out\n        /* \"#utility.yul\":5449:5970   */\n    tag_16:\n        /* \"#utility.yul\":5612:5616   */\n      0x00\n        /* \"#utility.yul\":5650:5652   */\n      0x60\n        /* \"#utility.yul\":5639:5648   */\n      dup3\n        /* \"#utility.yul\":5635:5653   */\n      add\n        /* \"#utility.yul\":5627:5653   */\n      swap1\n      pop\n        /* \"#utility.yul\":5699:5708   */\n      dup2\n        /* \"#utility.yul\":5693:5697   */\n      dup2\n        /* \"#utility.yul\":5689:5709   */\n      sub\n        /* \"#utility.yul\":5685:5686   */\n      0x00\n        /* \"#utility.yul\":5674:5683   */\n      dup4\n        /* \"#utility.yul\":5670:5687   */\n      add\n        /* \"#utility.yul\":5663:5710   */\n      mstore\n        /* \"#utility.yul\":5727:5805   */\n      tag_207\n        /* \"#utility.yul\":5800:5804   */\n      dup2\n        /* \"#utility.yul\":5791:5797   */\n      dup7\n        /* \"#utility.yul\":5727:5805   */\n      tag_109\n      jump\t// in\n    tag_207:\n        /* \"#utility.yul\":5719:5805   */\n      swap1\n      pop\n        /* \"#utility.yul\":5815:5887   */\n      tag_208\n        /* \"#utility.yul\":5883:5885   */\n      0x20\n        /* \"#utility.yul\":5872:5881   */\n      dup4\n        /* \"#utility.yul\":5868:5886   */\n      add\n        /* \"#utility.yul\":5859:5865   */\n      dup6\n        /* \"#utility.yul\":5815:5887   */\n      tag_110\n      jump\t// in\n    tag_208:\n        /* \"#utility.yul\":5897:5963   */\n      tag_209\n        /* \"#utility.yul\":5959:5961   */\n      0x40\n        /* \"#utility.yul\":5948:5957   */\n      dup4\n        /* \"#utility.yul\":5944:5962   */\n      add\n        /* \"#utility.yul\":5935:5941   */\n      dup5\n        /* \"#utility.yul\":5897:5963   */\n      tag_111\n      jump\t// in\n    tag_209:\n        /* \"#utility.yul\":5449:5970   */\n      swap5\n      swap4\n      pop\n      pop\n      pop\n      pop\n      jump\t// out\n        /* \"#utility.yul\":5976:6485   */\n    tag_19:\n        /* \"#utility.yul\":6045:6051   */\n      0x00\n        /* \"#utility.yul\":6094:6096   */\n      0x20\n        /* \"#utility.yul\":6082:6091   */\n      dup3\n        /* \"#utility.yul\":6073:6080   */\n      dup5\n        /* \"#utility.yul\":6069:6092   */\n      sub\n        /* \"#utility.yul\":6065:6097   */\n      slt\n        /* \"#utility.yul\":6062:6181   */\n      iszero\n      tag_211\n      jumpi\n        /* \"#utility.yul\":6100:6179   */\n      tag_212\n      tag_88\n      jump\t// in\n    tag_212:\n        /* \"#utility.yul\":6062:6181   */\n    tag_211:\n        /* \"#utility.yul\":6248:6249   */\n      0x00\n        /* \"#utility.yul\":6237:6246   */\n      dup3\n        /* \"#utility.yul\":6233:6250   */\n      add\n        /* \"#utility.yul\":6220:6251   */\n      calldataload\n        /* \"#utility.yul\":6278:6296   */\n      0xffffffffffffffff\n        /* \"#utility.yul\":6270:6276   */\n      dup2\n        /* \"#utility.yul\":6267:6297   */\n      gt\n        /* \"#utility.yul\":6264:6381   */\n      iszero\n      tag_213\n      jumpi\n        /* \"#utility.yul\":6300:6379   */\n      tag_214\n      tag_89\n      jump\t// in\n    tag_214:\n        /* \"#utility.yul\":6264:6381   */\n    tag_213:\n        /* \"#utility.yul\":6405:6468   */\n      tag_215\n        /* \"#utility.yul\":6460:6467   */\n      dup5\n        /* \"#utility.yul\":6451:6457   */\n      dup3\n        /* \"#utility.yul\":6440:6449   */\n      dup6\n        /* \"#utility.yul\":6436:6458   */\n      add\n        /* \"#utility.yul\":6405:6468   */\n      tag_99\n      jump\t// in\n    tag_215:\n        /* \"#utility.yul\":6395:6468   */\n      swap2\n      pop\n        /* \"#utility.yul\":6191:6478   */\n      pop\n        /* \"#utility.yul\":5976:6485   */\n      swap3\n      swap2\n      pop\n      pop\n      jump\t// out\n        /* \"#utility.yul\":6491:6735   */\n    tag_112:\n        /* \"#utility.yul\":6631:6665   */\n      0x496d65206d6f7261206269746920706f64616e6f206d6564206e6172656b6f76\n        /* \"#utility.yul\":6627:6628   */\n      0x00\n        /* \"#utility.yul\":6619:6625   */\n      dup3\n        /* \"#utility.yul\":6615:6629   */\n      add\n        /* \"#utility.yul\":6608:6666   */\n      mstore\n        /* \"#utility.yul\":6700:6727   */\n      0x616a6920696e206e6520736d652062697469207072617a6e6f00000000000000\n        /* \"#utility.yul\":6695:6697   */\n      0x20\n        /* \"#utility.yul\":6687:6693   */\n      dup3\n        /* \"#utility.yul\":6683:6698   */\n      add\n        /* \"#utility.yul\":6676:6728   */\n      mstore\n        /* \"#utility.yul\":6491:6735   */\n      pop\n      jump\t// out\n        /* \"#utility.yul\":6741:7107   */\n    tag_113:\n        /* \"#utility.yul\":6883:6886   */\n      0x00\n        /* \"#utility.yul\":6904:6971   */\n      tag_218\n        /* \"#utility.yul\":6968:6970   */\n      0x39\n        /* \"#utility.yul\":6963:6966   */\n      dup4\n        /* \"#utility.yul\":6904:6971   */\n      tag_107\n      jump\t// in\n    tag_218:\n        /* \"#utility.yul\":6897:6971   */\n      swap2\n      pop\n        /* \"#utility.yul\":6980:7073   */\n      tag_219\n        /* \"#utility.yul\":7069:7072   */\n      dup3\n        /* \"#utility.yul\":6980:7073   */\n      tag_112\n      jump\t// in\n    tag_219:\n        /* \"#utility.yul\":7098:7100   */\n      0x40\n        /* \"#utility.yul\":7093:7096   */\n      dup3\n        /* \"#utility.yul\":7089:7101   */\n      add\n        /* \"#utility.yul\":7082:7101   */\n      swap1\n      pop\n        /* \"#utility.yul\":6741:7107   */\n      swap2\n      swap1\n      pop\n      jump\t// out\n        /* \"#utility.yul\":7113:7532   */\n    tag_29:\n        /* \"#utility.yul\":7279:7283   */\n      0x00\n        /* \"#utility.yul\":7317:7319   */\n      0x20\n        /* \"#utility.yul\":7306:7315   */\n      dup3\n        /* \"#utility.yul\":7302:7320   */\n      add\n        /* \"#utility.yul\":7294:7320   */\n      swap1\n      pop\n        /* \"#utility.yul\":7366:7375   */\n      dup2\n        /* \"#utility.yul\":7360:7364   */\n      dup2\n        /* \"#utility.yul\":7356:7376   */\n      sub\n        /* \"#utility.yul\":7352:7353   */\n      0x00\n        /* \"#utility.yul\":7341:7350   */\n      dup4\n        /* \"#utility.yul\":7337:7354   */\n      add\n        /* \"#utility.yul\":7330:7377   */\n      mstore\n        /* \"#utility.yul\":7394:7525   */\n      tag_221\n        /* \"#utility.yul\":7520:7524   */\n      dup2\n        /* \"#utility.yul\":7394:7525   */\n      tag_113\n      jump\t// in\n    tag_221:\n        /* \"#utility.yul\":7386:7525   */\n      swap1\n      pop\n        /* \"#utility.yul\":7113:7532   */\n      swap2\n      swap1\n      pop\n      jump\t// out\n        /* \"#utility.yul\":7538:7760   */\n    tag_114:\n        /* \"#utility.yul\":7678:7712   */\n      0x537461726f7374206d6f7261206269746920706f7a697469766e6f2073746576\n        /* \"#utility.yul\":7674:7675   */\n      0x00\n        /* \"#utility.yul\":7666:7672   */\n      dup3\n        /* \"#utility.yul\":7662:7676   */\n      add\n        /* \"#utility.yul\":7655:7713   */\n      mstore\n        /* \"#utility.yul\":7747:7752   */\n      0x696c6f0000000000000000000000000000000000000000000000000000000000\n        /* \"#utility.yul\":7742:7744   */\n      0x20\n        /* \"#utility.yul\":7734:7740   */\n      dup3\n        /* \"#utility.yul\":7730:7745   */\n      add\n        /* \"#utility.yul\":7723:7753   */\n      mstore\n        /* \"#utility.yul\":7538:7760   */\n      pop\n      jump\t// out\n        /* \"#utility.yul\":7766:8132   */\n    tag_115:\n        /* \"#utility.yul\":7908:7911   */\n      0x00\n        /* \"#utility.yul\":7929:7996   */\n      tag_224\n        /* \"#utility.yul\":7993:7995   */\n      0x23\n        /* \"#utility.yul\":7988:7991   */\n      dup4\n        /* \"#utility.yul\":7929:7996   */\n      tag_107\n      jump\t// in\n    tag_224:\n        /* \"#utility.yul\":7922:7996   */\n      swap2\n      pop\n        /* \"#utility.yul\":8005:8098   */\n      tag_225\n        /* \"#utility.yul\":8094:8097   */\n      dup3\n        /* \"#utility.yul\":8005:8098   */\n      tag_114\n      jump\t// in\n    tag_225:\n        /* \"#utility.yul\":8123:8125   */\n      0x40\n        /* \"#utility.yul\":8118:8121   */\n      dup3\n        /* \"#utility.yul\":8114:8126   */\n      add\n        /* \"#utility.yul\":8107:8126   */\n      swap1\n      pop\n        /* \"#utility.yul\":7766:8132   */\n      swap2\n      swap1\n      pop\n      jump\t// out\n        /* \"#utility.yul\":8138:8557   */\n    tag_32:\n        /* \"#utility.yul\":8304:8308   */\n      0x00\n        /* \"#utility.yul\":8342:8344   */\n      0x20\n        /* \"#utility.yul\":8331:8340   */\n      dup3\n        /* \"#utility.yul\":8327:8345   */\n      add\n        /* \"#utility.yul\":8319:8345   */\n      swap1\n      pop\n        /* \"#utility.yul\":8391:8400   */\n      dup2\n        /* \"#utility.yul\":8385:8389   */\n      dup2\n        /* \"#utility.yul\":8381:8401   */\n      sub\n        /* \"#utility.yul\":8377:8378   */\n      0x00\n        /* \"#utility.yul\":8366:8375   */\n      dup4\n        /* \"#utility.yul\":8362:8379   */\n      add\n        /* \"#utility.yul\":8355:8402   */\n      mstore\n        /* \"#utility.yul\":8419:8550   */\n      tag_227\n        /* \"#utility.yul\":8545:8549   */\n      dup2\n        /* \"#utility.yul\":8419:8550   */\n      tag_115\n      jump\t// in\n    tag_227:\n        /* \"#utility.yul\":8411:8550   */\n      swap1\n      pop\n        /* \"#utility.yul\":8138:8557   */\n      swap2\n      swap1\n      pop\n      jump\t// out\n        /* \"#utility.yul\":8563:8743   */\n    tag_116:\n        /* \"#utility.yul\":8611:8688   */\n      0x4e487b7100000000000000000000000000000000000000000000000000000000\n        /* \"#utility.yul\":8608:8609   */\n      0x00\n        /* \"#utility.yul\":8601:8689   */\n      mstore\n        /* \"#utility.yul\":8708:8712   */\n      0x22\n        /* \"#utility.yul\":8705:8706   */\n      0x04\n        /* \"#utility.yul\":8698:8713   */\n      mstore\n        /* \"#utility.yul\":8732:8736   */\n      0x24\n        /* \"#utility.yul\":8729:8730   */\n      0x00\n        /* \"#utility.yul\":8722:8737   */\n      revert\n        /* \"#utility.yul\":8749:9069   */\n    tag_47:\n        /* \"#utility.yul\":8793:8799   */\n      0x00\n        /* \"#utility.yul\":8830:8831   */\n      0x02\n        /* \"#utility.yul\":8824:8828   */\n      dup3\n        /* \"#utility.yul\":8820:8832   */\n      div\n        /* \"#utility.yul\":8810:8832   */\n      swap1\n      pop\n        /* \"#utility.yul\":8877:8878   */\n      0x01\n        /* \"#utility.yul\":8871:8875   */\n      dup3\n        /* \"#utility.yul\":8867:8879   */\n      and\n        /* \"#utility.yul\":8898:8916   */\n      dup1\n        /* \"#utility.yul\":8888:8969   */\n      tag_230\n      jumpi\n        /* \"#utility.yul\":8954:8958   */\n      0x7f\n        /* \"#utility.yul\":8946:8952   */\n      dup3\n        /* \"#utility.yul\":8942:8959   */\n      and\n        /* \"#utility.yul\":8932:8959   */\n      swap2\n      pop\n        /* \"#utility.yul\":8888:8969   */\n    tag_230:\n        /* \"#utility.yul\":9016:9018   */\n      0x20\n        /* \"#utility.yul\":9008:9014   */\n      dup3\n        /* \"#utility.yul\":9005:9019   */\n      lt\n        /* \"#utility.yul\":8985:9003   */\n      dup2\n        /* \"#utility.yul\":8982:9020   */\n      sub\n        /* \"#utility.yul\":8979:9063   */\n      tag_231\n      jumpi\n        /* \"#utility.yul\":9035:9053   */\n      tag_232\n      tag_116\n      jump\t// in\n    tag_232:\n        /* \"#utility.yul\":8979:9063   */\n    tag_231:\n        /* \"#utility.yul\":8800:9069   */\n      pop\n        /* \"#utility.yul\":8749:9069   */\n      swap2\n      swap1\n      pop\n      jump\t// out\n        /* \"#utility.yul\":9075:9216   */\n    tag_117:\n        /* \"#utility.yul\":9124:9128   */\n      0x00\n        /* \"#utility.yul\":9147:9150   */\n      dup2\n        /* \"#utility.yul\":9139:9150   */\n      swap1\n      pop\n        /* \"#utility.yul\":9170:9173   */\n      dup2\n        /* \"#utility.yul\":9167:9168   */\n      0x00\n        /* \"#utility.yul\":9160:9174   */\n      mstore\n        /* \"#utility.yul\":9204:9208   */\n      0x20\n        /* \"#utility.yul\":9201:9202   */\n      0x00\n        /* \"#utility.yul\":9191:9209   */\n      keccak256\n        /* \"#utility.yul\":9183:9209   */\n      swap1\n      pop\n        /* \"#utility.yul\":9075:9216   */\n      swap2\n      swap1\n      pop\n      jump\t// out\n        /* \"#utility.yul\":9222:9315   */\n    tag_118:\n        /* \"#utility.yul\":9259:9265   */\n      0x00\n        /* \"#utility.yul\":9306:9308   */\n      0x20\n        /* \"#utility.yul\":9301:9303   */\n      0x1f\n        /* \"#utility.yul\":9294:9299   */\n      dup4\n        /* \"#utility.yul\":9290:9304   */\n      add\n        /* \"#utility.yul\":9286:9309   */\n      div\n        /* \"#utility.yul\":9276:9309   */\n      swap1\n      pop\n        /* \"#utility.yul\":9222:9315   */\n      swap2\n      swap1\n      pop\n      jump\t// out\n        /* \"#utility.yul\":9321:9428   */\n    tag_119:\n        /* \"#utility.yul\":9365:9373   */\n      0x00\n        /* \"#utility.yul\":9415:9420   */\n      dup3\n        /* \"#utility.yul\":9409:9413   */\n      dup3\n        /* \"#utility.yul\":9405:9421   */\n      shl\n        /* \"#utility.yul\":9384:9421   */\n      swap1\n      pop\n        /* \"#utility.yul\":9321:9428   */\n      swap3\n      swap2\n      pop\n      pop\n      jump\t// out\n        /* \"#utility.yul\":9434:9827   */\n    tag_120:\n        /* \"#utility.yul\":9503:9509   */\n      0x00\n        /* \"#utility.yul\":9553:9554   */\n      0x08\n        /* \"#utility.yul\":9541:9551   */\n      dup4\n        /* \"#utility.yul\":9537:9555   */\n      mul\n        /* \"#utility.yul\":9576:9673   */\n      tag_237\n        /* \"#utility.yul\":9606:9672   */\n      0xffffffffffffffffffffffffffffffffffffffffffffffffffffffffffffffff\n        /* \"#utility.yul\":9595:9604   */\n      dup3\n        /* \"#utility.yul\":9576:9673   */\n      tag_119\n      jump\t// in\n    tag_237:\n        /* \"#utility.yul\":9694:9733   */\n      tag_238\n        /* \"#utility.yul\":9724:9732   */\n      dup7\n        /* \"#utility.yul\":9713:9722   */\n      dup4\n        /* \"#utility.yul\":9694:9733   */\n      tag_119\n      jump\t// in\n    tag_238:\n        /* \"#utility.yul\":9682:9733   */\n      swap6\n      pop\n        /* \"#utility.yul\":9766:9770   */\n      dup1\n        /* \"#utility.yul\":9762:9771   */\n      not\n        /* \"#utility.yul\":9755:9760   */\n      dup5\n        /* \"#utility.yul\":9751:9772   */\n      and\n        /* \"#utility.yul\":9742:9772   */\n      swap4\n      pop\n        /* \"#utility.yul\":9815:9819   */\n      dup1\n        /* \"#utility.yul\":9805:9813   */\n      dup7\n        /* \"#utility.yul\":9801:9820   */\n      and\n        /* \"#utility.yul\":9794:9799   */\n      dup5\n        /* \"#utility.yul\":9791:9821   */\n      or\n        /* \"#utility.yul\":9781:9821   */\n      swap3\n      pop\n        /* \"#utility.yul\":9510:9827   */\n      pop\n      pop\n        /* \"#utility.yul\":9434:9827   */\n      swap4\n      swap3\n      pop\n      pop\n      pop\n      jump\t// out\n        /* \"#utility.yul\":9833:9893   */\n    tag_121:\n        /* \"#utility.yul\":9861:9864   */\n      0x00\n        /* \"#utility.yul\":9882:9887   */\n      dup2\n        /* \"#utility.yul\":9875:9887   */\n      swap1\n      pop\n        /* \"#utility.yul\":9833:9893   */\n      swap2\n      swap1\n      pop\n      jump\t// out\n        /* \"#utility.yul\":9899:10041   */\n    tag_122:\n        /* \"#utility.yul\":9949:9958   */\n      0x00\n        /* \"#utility.yul\":9982:10035   */\n      tag_241\n        /* \"#utility.yul\":10000:10034   */\n      tag_242\n        /* \"#utility.yul\":10009:10033   */\n      tag_243\n        /* \"#utility.yul\":10027:10032   */\n      dup5\n        /* \"#utility.yul\":10009:10033   */\n      tag_100\n      jump\t// in\n    tag_243:\n        /* \"#utility.yul\":10000:10034   */\n      tag_121\n      jump\t// in\n    tag_242:\n        /* \"#utility.yul\":9982:10035   */\n      tag_100\n      jump\t// in\n    tag_241:\n        /* \"#utility.yul\":9969:10035   */\n      swap1\n      pop\n        /* \"#utility.yul\":9899:10041   */\n      swap2\n      swap1\n      pop\n      jump\t// out\n        /* \"#utility.yul\":10047:10122   */\n    tag_123:\n        /* \"#utility.yul\":10090:10093   */\n      0x00\n        /* \"#utility.yul\":10111:10116   */\n      dup2\n        /* \"#utility.yul\":10104:10116   */\n      swap1\n      pop\n        /* \"#utility.yul\":10047:10122   */\n      swap2\n      swap1\n      pop\n      jump\t// out\n        /* \"#utility.yul\":10128:10397   */\n    tag_124:\n        /* \"#utility.yul\":10238:10277   */\n      tag_246\n        /* \"#utility.yul\":10269:10276   */\n      dup4\n        /* \"#utility.yul\":10238:10277   */\n      tag_122\n      jump\t// in\n    tag_246:\n        /* \"#utility.yul\":10299:10390   */\n      tag_247\n        /* \"#utility.yul\":10348:10389   */\n      tag_248\n        /* \"#utility.yul\":10372:10388   */\n      dup3\n        /* \"#utility.yul\":10348:10389   */\n      tag_123\n      jump\t// in\n    tag_248:\n        /* \"#utility.yul\":10340:10346   */\n      dup5\n        /* \"#utility.yul\":10333:10337   */\n      dup5\n        /* \"#utility.yul\":10327:10338   */\n      sload\n        /* \"#utility.yul\":10299:10390   */\n      tag_120\n      jump\t// in\n    tag_247:\n        /* \"#utility.yul\":10293:10297   */\n      dup3\n        /* \"#utility.yul\":10286:10391   */\n      sstore\n        /* \"#utility.yul\":10204:10397   */\n      pop\n        /* \"#utility.yul\":10128:10397   */\n      pop\n      pop\n      pop\n      jump\t// out\n        /* \"#utility.yul\":10403:10476   */\n    tag_125:\n        /* \"#utility.yul\":10448:10451   */\n      0x00\n        /* \"#utility.yul\":10403:10476   */\n      swap1\n      jump\t// out\n        /* \"#utility.yul\":10482:10671   */\n    tag_126:\n        /* \"#utility.yul\":10559:10591   */\n      tag_251\n      tag_125\n      jump\t// in\n    tag_251:\n        /* \"#utility.yul\":10600:10665   */\n      tag_252\n        /* \"#utility.yul\":10658:10664   */\n      dup2\n        /* \"#utility.yul\":10650:10656   */\n      dup5\n        /* \"#utility.yul\":10644:10648   */\n      dup5\n        /* \"#utility.yul\":10600:10665   */\n      tag_124\n      jump\t// in\n    tag_252:\n        /* \"#utility.yul\":10535:10671   */\n      pop\n        /* \"#utility.yul\":10482:10671   */\n      pop\n      pop\n      jump\t// out\n        /* \"#utility.yul\":10677:10863   */\n    tag_127:\n        /* \"#utility.yul\":10737:10857   */\n    tag_254:\n        /* \"#utility.yul\":10754:10757   */\n      dup2\n        /* \"#utility.yul\":10747:10752   */\n      dup2\n        /* \"#utility.yul\":10744:10758   */\n      lt\n        /* \"#utility.yul\":10737:10857   */\n      iszero\n      tag_256\n      jumpi\n        /* \"#utility.yul\":10808:10847   */\n      tag_257\n        /* \"#utility.yul\":10845:10846   */\n      0x00\n        /* \"#utility.yul\":10838:10843   */\n      dup3\n        /* \"#utility.yul\":10808:10847   */\n      tag_126\n      jump\t// in\n    tag_257:\n        /* \"#utility.yul\":10781:10782   */\n      0x01\n        /* \"#utility.yul\":10774:10779   */\n      dup2\n        /* \"#utility.yul\":10770:10783   */\n      add\n        /* \"#utility.yul\":10761:10783   */\n      swap1\n      pop\n        /* \"#utility.yul\":10737:10857   */\n      jump(tag_254)\n    tag_256:\n        /* \"#utility.yul\":10677:10863   */\n      pop\n      pop\n      jump\t// out\n        /* \"#utility.yul\":10869:11412   */\n    tag_128:\n        /* \"#utility.yul\":10970:10972   */\n      0x1f\n        /* \"#utility.yul\":10965:10968   */\n      dup3\n        /* \"#utility.yul\":10962:10973   */\n      gt\n        /* \"#utility.yul\":10959:11405   */\n      iszero\n      tag_259\n      jumpi\n        /* \"#utility.yul\":11004:11042   */\n      tag_260\n        /* \"#utility.yul\":11036:11041   */\n      dup2\n        /* \"#utility.yul\":11004:11042   */\n      tag_117\n      jump\t// in\n    tag_260:\n        /* \"#utility.yul\":11088:11117   */\n      tag_261\n        /* \"#utility.yul\":11106:11116   */\n      dup5\n        /* \"#utility.yul\":11088:11117   */\n      tag_118\n      jump\t// in\n    tag_261:\n        /* \"#utility.yul\":11078:11086   */\n      dup2\n        /* \"#utility.yul\":11074:11118   */\n      add\n        /* \"#utility.yul\":11271:11273   */\n      0x20\n        /* \"#utility.yul\":11259:11269   */\n      dup6\n        /* \"#utility.yul\":11256:11274   */\n      lt\n        /* \"#utility.yul\":11253:11302   */\n      iszero\n      tag_262\n      jumpi\n        /* \"#utility.yul\":11292:11300   */\n      dup2\n        /* \"#utility.yul\":11277:11300   */\n      swap1\n      pop\n        /* \"#utility.yul\":11253:11302   */\n    tag_262:\n        /* \"#utility.yul\":11315:11395   */\n      tag_263\n        /* \"#utility.yul\":11371:11393   */\n      tag_264\n        /* \"#utility.yul\":11389:11392   */\n      dup6\n        /* \"#utility.yul\":11371:11393   */\n      tag_118\n      jump\t// in\n    tag_264:\n        /* \"#utility.yul\":11361:11369   */\n      dup4\n        /* \"#utility.yul\":11357:11394   */\n      add\n        /* \"#utility.yul\":11344:11355   */\n      dup3\n        /* \"#utility.yul\":11315:11395   */\n      tag_127\n      jump\t// in\n    tag_263:\n        /* \"#utility.yul\":10974:11405   */\n      pop\n      pop\n        /* \"#utility.yul\":10959:11405   */\n    tag_259:\n        /* \"#utility.yul\":10869:11412   */\n      pop\n      pop\n      pop\n      jump\t// out\n        /* \"#utility.yul\":11418:11535   */\n    tag_129:\n        /* \"#utility.yul\":11472:11480   */\n      0x00\n        /* \"#utility.yul\":11522:11527   */\n      dup3\n        /* \"#utility.yul\":11516:11520   */\n      dup3\n        /* \"#utility.yul\":11512:11528   */\n      shr\n        /* \"#utility.yul\":11491:11528   */\n      swap1\n      pop\n        /* \"#utility.yul\":11418:11535   */\n      swap3\n      swap2\n      pop\n      pop\n      jump\t// out\n        /* \"#utility.yul\":11541:11710   */\n    tag_130:\n        /* \"#utility.yul\":11585:11591   */\n      0x00\n        /* \"#utility.yul\":11618:11669   */\n      tag_267\n        /* \"#utility.yul\":11666:11667   */\n      0x00\n        /* \"#utility.yul\":11662:11668   */\n      not\n        /* \"#utility.yul\":11654:11659   */\n      dup5\n        /* \"#utility.yul\":11651:11652   */\n      0x08\n        /* \"#utility.yul\":11647:11660   */\n      mul\n        /* \"#utility.yul\":11618:11669   */\n      tag_129\n      jump\t// in\n    tag_267:\n        /* \"#utility.yul\":11614:11670   */\n      not\n        /* \"#utility.yul\":11699:11703   */\n      dup1\n        /* \"#utility.yul\":11693:11697   */\n      dup4\n        /* \"#utility.yul\":11689:11704   */\n      and\n        /* \"#utility.yul\":11679:11704   */\n      swap2\n      pop\n        /* \"#utility.yul\":11592:11710   */\n      pop\n        /* \"#utility.yul\":11541:11710   */\n      swap3\n      swap2\n      pop\n      pop\n      jump\t// out\n        /* \"#utility.yul\":11715:12010   */\n    tag_131:\n        /* \"#utility.yul\":11791:11795   */\n      0x00\n        /* \"#utility.yul\":11937:11966   */\n      tag_269\n        /* \"#utility.yul\":11962:11965   */\n      dup4\n        /* \"#utility.yul\":11956:11960   */\n      dup4\n        /* \"#utility.yul\":11937:11966   */\n      tag_130\n      jump\t// in\n    tag_269:\n        /* \"#utility.yul\":11929:11966   */\n      swap2\n      pop\n        /* \"#utility.yul\":11999:12002   */\n      dup3\n        /* \"#utility.yul\":11996:11997   */\n      0x02\n        /* \"#utility.yul\":11992:12003   */\n      mul\n        /* \"#utility.yul\":11986:11990   */\n      dup3\n        /* \"#utility.yul\":11983:12004   */\n      or\n        /* \"#utility.yul\":11975:12004   */\n      swap1\n      pop\n        /* \"#utility.yul\":11715:12010   */\n      swap3\n      swap2\n      pop\n      pop\n      jump\t// out\n        /* \"#utility.yul\":12015:13410   */\n    tag_35:\n        /* \"#utility.yul\":12132:12169   */\n      tag_271\n        /* \"#utility.yul\":12165:12168   */\n      dup3\n        /* \"#utility.yul\":12132:12169   */\n      tag_106\n      jump\t// in\n    tag_271:\n        /* \"#utility.yul\":12234:12252   */\n      0xffffffffffffffff\n        /* \"#utility.yul\":12226:12232   */\n      dup2\n        /* \"#utility.yul\":12223:12253   */\n      gt\n        /* \"#utility.yul\":12220:12276   */\n      iszero\n      tag_272\n      jumpi\n        /* \"#utility.yul\":12256:12274   */\n      tag_273\n      tag_93\n      jump\t// in\n    tag_273:\n        /* \"#utility.yul\":12220:12276   */\n    tag_272:\n        /* \"#utility.yul\":12300:12338   */\n      tag_274\n        /* \"#utility.yul\":12332:12336   */\n      dup3\n        /* \"#utility.yul\":12326:12337   */\n      sload\n        /* \"#utility.yul\":12300:12338   */\n      tag_47\n      jump\t// in\n    tag_274:\n        /* \"#utility.yul\":12385:12452   */\n      tag_275\n        /* \"#utility.yul\":12445:12451   */\n      dup3\n        /* \"#utility.yul\":12437:12443   */\n      dup3\n        /* \"#utility.yul\":12431:12435   */\n      dup6\n        /* \"#utility.yul\":12385:12452   */\n      tag_128\n      jump\t// in\n    tag_275:\n        /* \"#utility.yul\":12479:12480   */\n      0x00\n        /* \"#utility.yul\":12503:12507   */\n      0x20\n        /* \"#utility.yul\":12490:12507   */\n      swap1\n      pop\n        /* \"#utility.yul\":12535:12537   */\n      0x1f\n        /* \"#utility.yul\":12527:12533   */\n      dup4\n        /* \"#utility.yul\":12524:12538   */\n      gt\n        /* \"#utility.yul\":12552:12553   */\n      0x01\n        /* \"#utility.yul\":12547:13165   */\n      dup2\n      eq\n      tag_277\n      jumpi\n        /* \"#utility.yul\":13209:13210   */\n      0x00\n        /* \"#utility.yul\":13226:13232   */\n      dup5\n        /* \"#utility.yul\":13223:13300   */\n      iszero\n      tag_278\n      jumpi\n        /* \"#utility.yul\":13275:13284   */\n      dup3\n        /* \"#utility.yul\":13270:13273   */\n      dup8\n        /* \"#utility.yul\":13266:13285   */\n      add\n        /* \"#utility.yul\":13260:13286   */\n      mload\n        /* \"#utility.yul\":13251:13286   */\n      swap1\n      pop\n        /* \"#utility.yul\":13223:13300   */\n    tag_278:\n        /* \"#utility.yul\":13326:13393   */\n      tag_279\n        /* \"#utility.yul\":13386:13392   */\n      dup6\n        /* \"#utility.yul\":13379:13384   */\n      dup3\n        /* \"#utility.yul\":13326:13393   */\n      tag_131\n      jump\t// in\n    tag_279:\n        /* \"#utility.yul\":13320:13324   */\n      dup7\n        /* \"#utility.yul\":13313:13394   */\n      sstore\n        /* \"#utility.yul\":13182:13404   */\n      pop\n        /* \"#utility.yul\":12517:13404   */\n      jump(tag_276)\n        /* \"#utility.yul\":12547:13165   */\n    tag_277:\n        /* \"#utility.yul\":12599:12603   */\n      0x1f\n        /* \"#utility.yul\":12595:12604   */\n      not\n        /* \"#utility.yul\":12587:12593   */\n      dup5\n        /* \"#utility.yul\":12583:12605   */\n      and\n        /* \"#utility.yul\":12633:12670   */\n      tag_280\n        /* \"#utility.yul\":12665:12669   */\n      dup7\n        /* \"#utility.yul\":12633:12670   */\n      tag_117\n      jump\t// in\n    tag_280:\n        /* \"#utility.yul\":12692:12693   */\n      0x00\n        /* \"#utility.yul\":12706:12914   */\n    tag_281:\n        /* \"#utility.yul\":12720:12727   */\n      dup3\n        /* \"#utility.yul\":12717:12718   */\n      dup2\n        /* \"#utility.yul\":12714:12728   */\n      lt\n        /* \"#utility.yul\":12706:12914   */\n      iszero\n      tag_283\n      jumpi\n        /* \"#utility.yul\":12799:12808   */\n      dup5\n        /* \"#utility.yul\":12794:12797   */\n      dup10\n        /* \"#utility.yul\":12790:12809   */\n      add\n        /* \"#utility.yul\":12784:12810   */\n      mload\n        /* \"#utility.yul\":12776:12782   */\n      dup3\n        /* \"#utility.yul\":12769:12811   */\n      sstore\n        /* \"#utility.yul\":12850:12851   */\n      0x01\n        /* \"#utility.yul\":12842:12848   */\n      dup3\n        /* \"#utility.yul\":12838:12852   */\n      add\n        /* \"#utility.yul\":12828:12852   */\n      swap2\n      pop\n        /* \"#utility.yul\":12897:12899   */\n      0x20\n        /* \"#utility.yul\":12886:12895   */\n      dup6\n        /* \"#utility.yul\":12882:12900   */\n      add\n        /* \"#utility.yul\":12869:12900   */\n      swap5\n      pop\n        /* \"#utility.yul\":12743:12747   */\n      0x20\n        /* \"#utility.yul\":12740:12741   */\n      dup2\n        /* \"#utility.yul\":12736:12748   */\n      add\n        /* \"#utility.yul\":12731:12748   */\n      swap1\n      pop\n        /* \"#utility.yul\":12706:12914   */\n      jump(tag_281)\n    tag_283:\n        /* \"#utility.yul\":12942:12948   */\n      dup7\n        /* \"#utility.yul\":12933:12940   */\n      dup4\n        /* \"#utility.yul\":12930:12949   */\n      lt\n        /* \"#utility.yul\":12927:13106   */\n      iszero\n      tag_284\n      jumpi\n        /* \"#utility.yul\":13000:13009   */\n      dup5\n        /* \"#utility.yul\":12995:12998   */\n      dup10\n        /* \"#utility.yul\":12991:13010   */\n      add\n        /* \"#utility.yul\":12985:13011   */\n      mload\n        /* \"#utility.yul\":13043:13091   */\n      tag_285\n        /* \"#utility.yul\":13085:13089   */\n      0x1f\n        /* \"#utility.yul\":13077:13083   */\n      dup10\n        /* \"#utility.yul\":13073:13090   */\n      and\n        /* \"#utility.yul\":13062:13071   */\n      dup3\n        /* \"#utility.yul\":13043:13091   */\n      tag_130\n      jump\t// in\n    tag_285:\n        /* \"#utility.yul\":13035:13041   */\n      dup4\n        /* \"#utility.yul\":13028:13092   */\n      sstore\n        /* \"#utility.yul\":12950:13106   */\n      pop\n        /* \"#utility.yul\":12927:13106   */\n    tag_284:\n        /* \"#utility.yul\":13152:13153   */\n      0x01\n        /* \"#utility.yul\":13148:13149   */\n      0x02\n        /* \"#utility.yul\":13140:13146   */\n      dup9\n        /* \"#utility.yul\":13136:13150   */\n      mul\n        /* \"#utility.yul\":13132:13154   */\n      add\n        /* \"#utility.yul\":13126:13130   */\n      dup9\n        /* \"#utility.yul\":13119:13155   */\n      sstore\n        /* \"#utility.yul\":12554:13165   */\n      pop\n      pop\n      pop\n        /* \"#utility.yul\":12517:13404   */\n    tag_276:\n      pop\n        /* \"#utility.yul\":12107:13410   */\n      pop\n      pop\n      pop\n        /* \"#utility.yul\":12015:13410   */\n      pop\n      pop\n      jump\t// out\n        /* \"#utility.yul\":13416:13596   */\n    tag_132:\n        /* \"#utility.yul\":13464:13541   */\n      0x4e487b7100000000000000000000000000000000000000000000000000000000\n        /* \"#utility.yul\":13461:13462   */\n      0x00\n        /* \"#utility.yul\":13454:13542   */\n      mstore\n        /* \"#utility.yul\":13561:13565   */\n      0x11\n        /* \"#utility.yul\":13558:13559   */\n      0x04\n        /* \"#utility.yul\":13551:13566   */\n      mstore\n        /* \"#utility.yul\":13585:13589   */\n      0x24\n        /* \"#utility.yul\":13582:13583   */\n      0x00\n        /* \"#utility.yul\":13575:13590   */\n      revert\n        /* \"#utility.yul\":13602:13796   */\n    tag_38:\n        /* \"#utility.yul\":13642:13646   */\n      0x00\n        /* \"#utility.yul\":13662:13682   */\n      tag_288\n        /* \"#utility.yul\":13680:13681   */\n      dup3\n        /* \"#utility.yul\":13662:13682   */\n      tag_100\n      jump\t// in\n    tag_288:\n        /* \"#utility.yul\":13657:13682   */\n      swap2\n      pop\n        /* \"#utility.yul\":13696:13716   */\n      tag_289\n        /* \"#utility.yul\":13714:13715   */\n      dup4\n        /* \"#utility.yul\":13696:13716   */\n      tag_100\n      jump\t// in\n    tag_289:\n        /* \"#utility.yul\":13691:13716   */\n      swap3\n      pop\n        /* \"#utility.yul\":13740:13741   */\n      dup3\n        /* \"#utility.yul\":13737:13738   */\n      dup3\n        /* \"#utility.yul\":13733:13742   */\n      sub\n        /* \"#utility.yul\":13725:13742   */\n      swap1\n      pop\n        /* \"#utility.yul\":13764:13765   */\n      dup2\n        /* \"#utility.yul\":13758:13762   */\n      dup2\n        /* \"#utility.yul\":13755:13766   */\n      gt\n        /* \"#utility.yul\":13752:13789   */\n      iszero\n      tag_290\n      jumpi\n        /* \"#utility.yul\":13769:13787   */\n      tag_291\n      tag_132\n      jump\t// in\n    tag_291:\n        /* \"#utility.yul\":13752:13789   */\n    tag_290:\n        /* \"#utility.yul\":13602:13796   */\n      swap3\n      swap2\n      pop\n      pop\n      jump\t// out\n        /* \"#utility.yul\":13802:14054   */\n    tag_133:\n        /* \"#utility.yul\":13942:14008   */\n      0x706f642074656d20696e64656b736f6d20c5a165206e6920706c69c5a16b6f74\n        /* \"#utility.yul\":13938:13939   */\n      0x00\n        /* \"#utility.yul\":13930:13936   */\n      dup3\n        /* \"#utility.yul\":13926:13940   */\n      add\n        /* \"#utility.yul\":13919:14009   */\n      mstore\n        /* \"#utility.yul\":14043:14046   */\n      0x6100000000000000000000000000000000000000000000000000000000000000\n        /* \"#utility.yul\":14038:14040   */\n      0x20\n        /* \"#utility.yul\":14030:14036   */\n      dup3\n        /* \"#utility.yul\":14026:14041   */\n      add\n        /* \"#utility.yul\":14019:14047   */\n      mstore\n        /* \"#utility.yul\":13802:14054   */\n      pop\n      jump\t// out\n        /* \"#utility.yul\":14060:14426   */\n    tag_134:\n        /* \"#utility.yul\":14202:14205   */\n      0x00\n        /* \"#utility.yul\":14223:14290   */\n      tag_294\n        /* \"#utility.yul\":14287:14289   */\n      0x21\n        /* \"#utility.yul\":14282:14285   */\n      dup4\n        /* \"#utility.yul\":14223:14290   */\n      tag_107\n      jump\t// in\n    tag_294:\n        /* \"#utility.yul\":14216:14290   */\n      swap2\n      pop\n        /* \"#utility.yul\":14299:14392   */\n      tag_295\n        /* \"#utility.yul\":14388:14391   */\n      dup3\n        /* \"#utility.yul\":14299:14392   */\n      tag_133\n      jump\t// in\n    tag_295:\n        /* \"#utility.yul\":14417:14419   */\n      0x40\n        /* \"#utility.yul\":14412:14415   */\n      dup3\n        /* \"#utility.yul\":14408:14420   */\n      add\n        /* \"#utility.yul\":14401:14420   */\n      swap1\n      pop\n        /* \"#utility.yul\":14060:14426   */\n      swap2\n      swap1\n      pop\n      jump\t// out\n        /* \"#utility.yul\":14432:14851   */\n    tag_41:\n        /* \"#utility.yul\":14598:14602   */\n      0x00\n        /* \"#utility.yul\":14636:14638   */\n      0x20\n        /* \"#utility.yul\":14625:14634   */\n      dup3\n        /* \"#utility.yul\":14621:14639   */\n      add\n        /* \"#utility.yul\":14613:14639   */\n      swap1\n      pop\n        /* \"#utility.yul\":14685:14694   */\n      dup2\n        /* \"#utility.yul\":14679:14683   */\n      dup2\n        /* \"#utility.yul\":14675:14695   */\n      sub\n        /* \"#utility.yul\":14671:14672   */\n      0x00\n        /* \"#utility.yul\":14660:14669   */\n      dup4\n        /* \"#utility.yul\":14656:14673   */\n      add\n        /* \"#utility.yul\":14649:14696   */\n      mstore\n        /* \"#utility.yul\":14713:14844   */\n      tag_297\n        /* \"#utility.yul\":14839:14843   */\n      dup2\n        /* \"#utility.yul\":14713:14844   */\n      tag_134\n      jump\t// in\n    tag_297:\n        /* \"#utility.yul\":14705:14844   */\n      swap1\n      pop\n        /* \"#utility.yul\":14432:14851   */\n      swap2\n      swap1\n      pop\n      jump\t// out\n        /* \"#utility.yul\":14857:15037   */\n    tag_44:\n        /* \"#utility.yul\":14905:14982   */\n      0x4e487b7100000000000000000000000000000000000000000000000000000000\n        /* \"#utility.yul\":14902:14903   */\n      0x00\n        /* \"#utility.yul\":14895:14983   */\n      mstore\n        /* \"#utility.yul\":15002:15006   */\n      0x32\n        /* \"#utility.yul\":14999:15000   */\n      0x04\n        /* \"#utility.yul\":14992:15007   */\n      mstore\n        /* \"#utility.yul\":15026:15030   */\n      0x24\n        /* \"#utility.yul\":15023:15024   */\n      0x00\n        /* \"#utility.yul\":15016:15031   */\n      revert\n        /* \"#utility.yul\":15043:15191   */\n    tag_135:\n        /* \"#utility.yul\":15145:15156   */\n      0x00\n        /* \"#utility.yul\":15182:15185   */\n      dup2\n        /* \"#utility.yul\":15167:15185   */\n      swap1\n      pop\n        /* \"#utility.yul\":15043:15191   */\n      swap3\n      swap2\n      pop\n      pop\n      jump\t// out\n        /* \"#utility.yul\":15197:15587   */\n    tag_136:\n        /* \"#utility.yul\":15303:15306   */\n      0x00\n        /* \"#utility.yul\":15331:15370   */\n      tag_301\n        /* \"#utility.yul\":15364:15369   */\n      dup3\n        /* \"#utility.yul\":15331:15370   */\n      tag_106\n      jump\t// in\n    tag_301:\n        /* \"#utility.yul\":15386:15475   */\n      tag_302\n        /* \"#utility.yul\":15468:15474   */\n      dup2\n        /* \"#utility.yul\":15463:15466   */\n      dup6\n        /* \"#utility.yul\":15386:15475   */\n      tag_135\n      jump\t// in\n    tag_302:\n        /* \"#utility.yul\":15379:15475   */\n      swap4\n      pop\n        /* \"#utility.yul\":15484:15549   */\n      tag_303\n        /* \"#utility.yul\":15542:15548   */\n      dup2\n        /* \"#utility.yul\":15537:15540   */\n      dup6\n        /* \"#utility.yul\":15530:15534   */\n      0x20\n        /* \"#utility.yul\":15523:15528   */\n      dup7\n        /* \"#utility.yul\":15519:15535   */\n      add\n        /* \"#utility.yul\":15484:15549   */\n      tag_108\n      jump\t// in\n    tag_303:\n        /* \"#utility.yul\":15574:15580   */\n      dup1\n        /* \"#utility.yul\":15569:15572   */\n      dup5\n        /* \"#utility.yul\":15565:15581   */\n      add\n        /* \"#utility.yul\":15558:15581   */\n      swap2\n      pop\n        /* \"#utility.yul\":15307:15587   */\n      pop\n        /* \"#utility.yul\":15197:15587   */\n      swap3\n      swap2\n      pop\n      pop\n      jump\t// out\n        /* \"#utility.yul\":15593:15868   */\n    tag_57:\n        /* \"#utility.yul\":15725:15728   */\n      0x00\n        /* \"#utility.yul\":15747:15842   */\n      tag_305\n        /* \"#utility.yul\":15838:15841   */\n      dup3\n        /* \"#utility.yul\":15829:15835   */\n      dup5\n        /* \"#utility.yul\":15747:15842   */\n      tag_136\n      jump\t// in\n    tag_305:\n        /* \"#utility.yul\":15740:15842   */\n      swap2\n      pop\n        /* \"#utility.yul\":15859:15862   */\n      dup2\n        /* \"#utility.yul\":15852:15862   */\n      swap1\n      pop\n        /* \"#utility.yul\":15593:15868   */\n      swap3\n      swap2\n      pop\n      pop\n      jump\t// out\n        /* \"#utility.yul\":15898:16772   */\n    tag_137:\n        /* \"#utility.yul\":16001:16004   */\n      0x00\n        /* \"#utility.yul\":16038:16043   */\n      dup2\n        /* \"#utility.yul\":16032:16044   */\n      sload\n        /* \"#utility.yul\":16067:16103   */\n      tag_307\n        /* \"#utility.yul\":16093:16102   */\n      dup2\n        /* \"#utility.yul\":16067:16103   */\n      tag_47\n      jump\t// in\n    tag_307:\n        /* \"#utility.yul\":16119:16208   */\n      tag_308\n        /* \"#utility.yul\":16201:16207   */\n      dup2\n        /* \"#utility.yul\":16196:16199   */\n      dup7\n        /* \"#utility.yul\":16119:16208   */\n      tag_135\n      jump\t// in\n    tag_308:\n        /* \"#utility.yul\":16112:16208   */\n      swap5\n      pop\n        /* \"#utility.yul\":16239:16240   */\n      0x01\n        /* \"#utility.yul\":16228:16237   */\n      dup3\n        /* \"#utility.yul\":16224:16241   */\n      and\n        /* \"#utility.yul\":16255:16256   */\n      0x00\n        /* \"#utility.yul\":16250:16416   */\n      dup2\n      eq\n      tag_310\n      jumpi\n        /* \"#utility.yul\":16430:16431   */\n      0x01\n        /* \"#utility.yul\":16425:16766   */\n      dup2\n      eq\n      tag_311\n      jumpi\n        /* \"#utility.yul\":16217:16766   */\n      jump(tag_309)\n        /* \"#utility.yul\":16250:16416   */\n    tag_310:\n        /* \"#utility.yul\":16334:16338   */\n      0xff\n        /* \"#utility.yul\":16330:16339   */\n      not\n        /* \"#utility.yul\":16319:16328   */\n      dup4\n        /* \"#utility.yul\":16315:16340   */\n      and\n        /* \"#utility.yul\":16310:16313   */\n      dup7\n        /* \"#utility.yul\":16303:16341   */\n      mstore\n        /* \"#utility.yul\":16396:16402   */\n      dup2\n        /* \"#utility.yul\":16389:16403   */\n      iszero\n        /* \"#utility.yul\":16382:16404   */\n      iszero\n        /* \"#utility.yul\":16374:16380   */\n      dup3\n        /* \"#utility.yul\":16370:16405   */\n      mul\n        /* \"#utility.yul\":16365:16368   */\n      dup7\n        /* \"#utility.yul\":16361:16406   */\n      add\n        /* \"#utility.yul\":16354:16406   */\n      swap4\n      pop\n        /* \"#utility.yul\":16250:16416   */\n      jump(tag_309)\n        /* \"#utility.yul\":16425:16766   */\n    tag_311:\n        /* \"#utility.yul\":16492:16530   */\n      tag_312\n        /* \"#utility.yul\":16524:16529   */\n      dup6\n        /* \"#utility.yul\":16492:16530   */\n      tag_117\n      jump\t// in\n    tag_312:\n        /* \"#utility.yul\":16552:16553   */\n      0x00\n        /* \"#utility.yul\":16566:16720   */\n    tag_313:\n        /* \"#utility.yul\":16580:16586   */\n      dup4\n        /* \"#utility.yul\":16577:16578   */\n      dup2\n        /* \"#utility.yul\":16574:16587   */\n      lt\n        /* \"#utility.yul\":16566:16720   */\n      iszero\n      tag_315\n      jumpi\n        /* \"#utility.yul\":16654:16661   */\n      dup2\n        /* \"#utility.yul\":16648:16662   */\n      sload\n        /* \"#utility.yul\":16644:16645   */\n      dup2\n        /* \"#utility.yul\":16639:16642   */\n      dup10\n        /* \"#utility.yul\":16635:16646   */\n      add\n        /* \"#utility.yul\":16628:16663   */\n      mstore\n        /* \"#utility.yul\":16704:16705   */\n      0x01\n        /* \"#utility.yul\":16695:16702   */\n      dup3\n        /* \"#utility.yul\":16691:16706   */\n      add\n        /* \"#utility.yul\":16680:16706   */\n      swap2\n      pop\n        /* \"#utility.yul\":16602:16606   */\n      0x20\n        /* \"#utility.yul\":16599:16600   */\n      dup2\n        /* \"#utility.yul\":16595:16607   */\n      add\n        /* \"#utility.yul\":16590:16607   */\n      swap1\n      pop\n        /* \"#utility.yul\":16566:16720   */\n      jump(tag_313)\n    tag_315:\n        /* \"#utility.yul\":16749:16755   */\n      dup4\n        /* \"#utility.yul\":16744:16747   */\n      dup9\n        /* \"#utility.yul\":16740:16756   */\n      add\n        /* \"#utility.yul\":16733:16756   */\n      swap6\n      pop\n        /* \"#utility.yul\":16432:16766   */\n      pop\n      pop\n        /* \"#utility.yul\":16217:16766   */\n    tag_309:\n      pop\n        /* \"#utility.yul\":16005:16772   */\n      pop\n      pop\n        /* \"#utility.yul\":15898:16772   */\n      swap3\n      swap2\n      pop\n      pop\n      jump\t// out\n        /* \"#utility.yul\":16778:17047   */\n    tag_62:\n        /* \"#utility.yul\":16907:16910   */\n      0x00\n        /* \"#utility.yul\":16929:17021   */\n      tag_317\n        /* \"#utility.yul\":17017:17020   */\n      dup3\n        /* \"#utility.yul\":17008:17014   */\n      dup5\n        /* \"#utility.yul\":16929:17021   */\n      tag_137\n      jump\t// in\n    tag_317:\n        /* \"#utility.yul\":16922:17021   */\n      swap2\n      pop\n        /* \"#utility.yul\":17038:17041   */\n      dup2\n        /* \"#utility.yul\":17031:17041   */\n      swap1\n      pop\n        /* \"#utility.yul\":16778:17047   */\n      swap3\n      swap2\n      pop\n      pop\n      jump\t// out\n        /* \"#utility.yul\":17053:17232   */\n    tag_138:\n        /* \"#utility.yul\":17193:17224   */\n      0x506c69736b6f20732074656d20696d656e6f6d206e69206e616a64656e000000\n        /* \"#utility.yul\":17189:17190   */\n      0x00\n        /* \"#utility.yul\":17181:17187   */\n      dup3\n        /* \"#utility.yul\":17177:17191   */\n      add\n        /* \"#utility.yul\":17170:17225   */\n      mstore\n        /* \"#utility.yul\":17053:17232   */\n      pop\n      jump\t// out\n        /* \"#utility.yul\":17238:17604   */\n    tag_139:\n        /* \"#utility.yul\":17380:17383   */\n      0x00\n        /* \"#utility.yul\":17401:17468   */\n      tag_320\n        /* \"#utility.yul\":17465:17467   */\n      0x1d\n        /* \"#utility.yul\":17460:17463   */\n      dup4\n        /* \"#utility.yul\":17401:17468   */\n      tag_107\n      jump\t// in\n    tag_320:\n        /* \"#utility.yul\":17394:17468   */\n      swap2\n      pop\n        /* \"#utility.yul\":17477:17570   */\n      tag_321\n        /* \"#utility.yul\":17566:17569   */\n      dup3\n        /* \"#utility.yul\":17477:17570   */\n      tag_138\n      jump\t// in\n    tag_321:\n        /* \"#utility.yul\":17595:17597   */\n      0x20\n        /* \"#utility.yul\":17590:17593   */\n      dup3\n        /* \"#utility.yul\":17586:17598   */\n      add\n        /* \"#utility.yul\":17579:17598   */\n      swap1\n      pop\n        /* \"#utility.yul\":17238:17604   */\n      swap2\n      swap1\n      pop\n      jump\t// out\n        /* \"#utility.yul\":17610:18029   */\n    tag_79:\n        /* \"#utility.yul\":17776:17780   */\n      0x00\n        /* \"#utility.yul\":17814:17816   */\n      0x20\n        /* \"#utility.yul\":17803:17812   */\n      dup3\n        /* \"#utility.yul\":17799:17817   */\n      add\n        /* \"#utility.yul\":17791:17817   */\n      swap1\n      pop\n        /* \"#utility.yul\":17863:17872   */\n      dup2\n        /* \"#utility.yul\":17857:17861   */\n      dup2\n        /* \"#utility.yul\":17853:17873   */\n      sub\n        /* \"#utility.yul\":17849:17850   */\n      0x00\n        /* \"#utility.yul\":17838:17847   */\n      dup4\n        /* \"#utility.yul\":17834:17851   */\n      add\n        /* \"#utility.yul\":17827:17874   */\n      mstore\n        /* \"#utility.yul\":17891:18022   */\n      tag_323\n        /* \"#utility.yul\":18017:18021   */\n      dup2\n        /* \"#utility.yul\":17891:18022   */\n      tag_139\n      jump\t// in\n    tag_323:\n        /* \"#utility.yul\":17883:18022   */\n      swap1\n      pop\n        /* \"#utility.yul\":17610:18029   */\n      swap2\n      swap1\n      pop\n      jump\t// out\n\n    auxdata: 0xa2646970667358221220277eb7b9ea7a34b216be9e3bb731d7e36a6fb5061f0dc85eee6cf545eb061dfc64736f6c634300081a0033\n}\n",
				"bytecode": {
					"linkReferences": {},
					"object": "608060405234801561000f575f80fd5b505f60405180606001604052806040518060400160405280600581526020017f4f706963610000000000000000000000000000000000000000000000000000008152508152602001600a815260200160011515815250908060018154018082558091505060019003905f5260205f2090600302015f909190919091505f820151815f01908161009e919061047c565b50602082015181600101556040820151816002015f6101000a81548160ff02191690831515021790555050505f60405180606001604052806040518060400160405280600481526020017f4d65646f000000000000000000000000000000000000000000000000000000008152508152602001600d815260200160011515815250908060018154018082558091505060019003905f5260205f2090600302015f909190919091505f820151815f019081610158919061047c565b50602082015181600101556040820151816002015f6101000a81548160ff02191690831515021790555050505f60405180606001604052806040518060400160405280600481526020017f52696e6f000000000000000000000000000000000000000000000000000000008152508152602001600881526020015f1515815250908060018154018082558091505060019003905f5260205f2090600302015f909190919091505f820151815f019081610211919061047c565b50602082015181600101556040820151816002015f6101000a81548160ff021916908315150217905550505061054b565b5f81519050919050565b7f4e487b71000000000000000000000000000000000000000000000000000000005f52604160045260245ffd5b7f4e487b71000000000000000000000000000000000000000000000000000000005f52602260045260245ffd5b5f60028204905060018216806102bd57607f821691505b6020821081036102d0576102cf610279565b5b50919050565b5f819050815f5260205f209050919050565b5f6020601f8301049050919050565b5f82821b905092915050565b5f600883026103327fffffffffffffffffffffffffffffffffffffffffffffffffffffffffffffffff826102f7565b61033c86836102f7565b95508019841693508086168417925050509392505050565b5f819050919050565b5f819050919050565b5f61038061037b61037684610354565b61035d565b610354565b9050919050565b5f819050919050565b61039983610366565b6103ad6103a582610387565b848454610303565b825550505050565b5f90565b6103c16103b5565b6103cc818484610390565b505050565b5b818110156103ef576103e45f826103b9565b6001810190506103d2565b5050565b601f82111561043457610405816102d6565b61040e846102e8565b8101602085101561041d578190505b610431610429856102e8565b8301826103d1565b50505b505050565b5f82821c905092915050565b5f6104545f1984600802610439565b1980831691505092915050565b5f61046c8383610445565b9150826002028217905092915050565b61048582610242565b67ffffffffffffffff81111561049e5761049d61024c565b5b6104a882546102a6565b6104b38282856103f3565b5f60209050601f8311600181146104e4575f84156104d2578287015190505b6104dc8582610461565b865550610543565b601f1984166104f2866102d6565b5f5b82811015610519578489015182556001820191506020850194506020810190506104f4565b868310156105365784890151610532601f891682610445565b8355505b6001600288020188555050505b505050505050565b610fd5806105585f395ff3fe608060405234801561000f575f80fd5b506004361061004a575f3560e01c80632ad0e3691461004e5780632cfefd8d1461006a5780633f17a3b21461009c5780636898c126146100ce575b5f80fd5b610068600480360381019061006391906107b9565b610100565b005b610084600480360381019061007f9190610825565b61020d565b604051610093939291906108ce565b60405180910390f35b6100b660048036038101906100b1919061090a565b610360565b6040516100c5939291906108ce565b60405180910390f35b6100e860048036038101906100e39190610825565b61053e565b6040516100f7939291906108ce565b60405180910390f35b5f835111610143576040517f08c379a000000000000000000000000000000000000000000000000000000000815260040161013a906109c1565b60405180910390fd5b5f8211610185576040517f08c379a000000000000000000000000000000000000000000000000000000000815260040161017c90610a4f565b60405180910390fd5b5f6040518060600160405280858152602001848152602001831515815250908060018154018082558091505060019003905f5260205f2090600302015f909190919091505f820151815f0190816101dc9190610c67565b50602082015181600101556040820151816002015f6101000a81548160ff0219169083151502179055505050505050565b60605f8060015f805490506102229190610d63565b841115610264576040517f08c379a000000000000000000000000000000000000000000000000000000000815260040161025b90610e06565b60405180910390fd5b5f80858154811061027857610277610e24565b5b905f5260205f2090600302016040518060600160405290815f8201805461029e90610a9a565b80601f01602080910402602001604051908101604052809291908181526020018280546102ca90610a9a565b80156103155780601f106102ec57610100808354040283529160200191610315565b820191905f5260205f20905b8154815290600101906020018083116102f857829003601f168201915b5050505050815260200160018201548152602001600282015f9054906101000a900460ff1615151515815250509050805f015181602001518260400151935093509350509193909250565b60605f805f5b5f805490508110156104fb57846040516020016103839190610e8b565b604051602081830303815290604052805190602001205f82815481106103ac576103ab610e24565b5b905f5260205f2090600302015f016040516020016103ca9190610f21565b60405160208183030381529060405280519060200120036104ee575f81815481106103f8576103f7610e24565b5b905f5260205f2090600302015f015f828154811061041957610418610e24565b5b905f5260205f209060030201600101545f838154811061043c5761043b610e24565b5b905f5260205f2090600302016002015f9054906101000a900460ff1682805461046490610a9a565b80601f016020809104026020016040519081016040528092919081815260200182805461049090610a9a565b80156104db5780601f106104b2576101008083540402835291602001916104db565b820191905f5260205f20905b8154815290600101906020018083116104be57829003601f168201915b5050505050925093509350935050610537565b8080600101915050610366565b506040517f08c379a000000000000000000000000000000000000000000000000000000000815260040161052e90610f81565b60405180910390fd5b9193909250565b5f818154811061054c575f80fd5b905f5260205f2090600302015f91509050805f01805461056b90610a9a565b80601f016020809104026020016040519081016040528092919081815260200182805461059790610a9a565b80156105e25780601f106105b9576101008083540402835291602001916105e2565b820191905f5260205f20905b8154815290600101906020018083116105c557829003601f168201915b505050505090806001015490806002015f9054906101000a900460ff16905083565b5f604051905090565b5f80fd5b5f80fd5b5f80fd5b5f80fd5b5f601f19601f8301169050919050565b7f4e487b71000000000000000000000000000000000000000000000000000000005f52604160045260245ffd5b6106638261061d565b810181811067ffffffffffffffff821117156106825761068161062d565b5b80604052505050565b5f610694610604565b90506106a0828261065a565b919050565b5f67ffffffffffffffff8211156106bf576106be61062d565b5b6106c88261061d565b9050602081019050919050565b828183375f83830152505050565b5f6106f56106f0846106a5565b61068b565b90508281526020810184848401111561071157610710610619565b5b61071c8482856106d5565b509392505050565b5f82601f83011261073857610737610615565b5b81356107488482602086016106e3565b91505092915050565b5f819050919050565b61076381610751565b811461076d575f80fd5b50565b5f8135905061077e8161075a565b92915050565b5f8115159050919050565b61079881610784565b81146107a2575f80fd5b50565b5f813590506107b38161078f565b92915050565b5f805f606084860312156107d0576107cf61060d565b5b5f84013567ffffffffffffffff8111156107ed576107ec610611565b5b6107f986828701610724565b935050602061080a86828701610770565b925050604061081b868287016107a5565b9150509250925092565b5f6020828403121561083a5761083961060d565b5b5f61084784828501610770565b91505092915050565b5f81519050919050565b5f82825260208201905092915050565b8281835e5f83830152505050565b5f61088282610850565b61088c818561085a565b935061089c81856020860161086a565b6108a58161061d565b840191505092915050565b6108b981610751565b82525050565b6108c881610784565b82525050565b5f6060820190508181035f8301526108e68186610878565b90506108f560208301856108b0565b61090260408301846108bf565b949350505050565b5f6020828403121561091f5761091e61060d565b5b5f82013567ffffffffffffffff81111561093c5761093b610611565b5b61094884828501610724565b91505092915050565b7f496d65206d6f7261206269746920706f64616e6f206d6564206e6172656b6f765f8201527f616a6920696e206e6520736d652062697469207072617a6e6f00000000000000602082015250565b5f6109ab60398361085a565b91506109b682610951565b604082019050919050565b5f6020820190508181035f8301526109d88161099f565b9050919050565b7f537461726f7374206d6f7261206269746920706f7a697469766e6f20737465765f8201527f696c6f0000000000000000000000000000000000000000000000000000000000602082015250565b5f610a3960238361085a565b9150610a44826109df565b604082019050919050565b5f6020820190508181035f830152610a6681610a2d565b9050919050565b7f4e487b71000000000000000000000000000000000000000000000000000000005f52602260045260245ffd5b5f6002820490506001821680610ab157607f821691505b602082108103610ac457610ac3610a6d565b5b50919050565b5f819050815f5260205f209050919050565b5f6020601f8301049050919050565b5f82821b905092915050565b5f60088302610b267fffffffffffffffffffffffffffffffffffffffffffffffffffffffffffffffff82610aeb565b610b308683610aeb565b95508019841693508086168417925050509392505050565b5f819050919050565b5f610b6b610b66610b6184610751565b610b48565b610751565b9050919050565b5f819050919050565b610b8483610b51565b610b98610b9082610b72565b848454610af7565b825550505050565b5f90565b610bac610ba0565b610bb7818484610b7b565b505050565b5b81811015610bda57610bcf5f82610ba4565b600181019050610bbd565b5050565b601f821115610c1f57610bf081610aca565b610bf984610adc565b81016020851015610c08578190505b610c1c610c1485610adc565b830182610bbc565b50505b505050565b5f82821c905092915050565b5f610c3f5f1984600802610c24565b1980831691505092915050565b5f610c578383610c30565b9150826002028217905092915050565b610c7082610850565b67ffffffffffffffff811115610c8957610c8861062d565b5b610c938254610a9a565b610c9e828285610bde565b5f60209050601f831160018114610ccf575f8415610cbd578287015190505b610cc78582610c4c565b865550610d2e565b601f198416610cdd86610aca565b5f5b82811015610d0457848901518255600182019150602085019450602081019050610cdf565b86831015610d215784890151610d1d601f891682610c30565b8355505b6001600288020188555050505b505050505050565b7f4e487b71000000000000000000000000000000000000000000000000000000005f52601160045260245ffd5b5f610d6d82610751565b9150610d7883610751565b9250828203905081811115610d9057610d8f610d36565b5b92915050565b7f706f642074656d20696e64656b736f6d20c5a165206e6920706c69c5a16b6f745f8201527f6100000000000000000000000000000000000000000000000000000000000000602082015250565b5f610df060218361085a565b9150610dfb82610d96565b604082019050919050565b5f6020820190508181035f830152610e1d81610de4565b9050919050565b7f4e487b71000000000000000000000000000000000000000000000000000000005f52603260045260245ffd5b5f81905092915050565b5f610e6582610850565b610e6f8185610e51565b9350610e7f81856020860161086a565b80840191505092915050565b5f610e968284610e5b565b915081905092915050565b5f8154610ead81610a9a565b610eb78186610e51565b9450600182165f8114610ed15760018114610ee657610f18565b60ff1983168652811515820286019350610f18565b610eef85610aca565b5f5b83811015610f1057815481890152600182019150602081019050610ef1565b838801955050505b50505092915050565b5f610f2c8284610ea1565b915081905092915050565b7f506c69736b6f20732074656d20696d656e6f6d206e69206e616a64656e0000005f82015250565b5f610f6b601d8361085a565b9150610f7682610f37565b602082019050919050565b5f6020820190508181035f830152610f9881610f5f565b905091905056fea2646970667358221220277eb7b9ea7a34b216be9e3bb731d7e36a6fb5061f0dc85eee6cf545eb061dfc64736f6c634300081a0033",
					"opcodes": "PUSH1 0x80 PUSH1 0x40 MSTORE CALLVALUE DUP1 ISZERO PUSH2 0xF JUMPI PUSH0 DUP1 REVERT JUMPDEST POP PUSH0 PUSH1 0x40 MLOAD DUP1 PUSH1 0x60 ADD PUSH1 0x40 MSTORE DUP1 PUSH1 0x40 MLOAD DUP1 PUSH1 0x40 ADD PUSH1 0x40 MSTORE DUP1 PUSH1 0x5 DUP2 MSTORE PUSH1 0x20 ADD PUSH32 0x4F70696361000000000000000000000000000000000000000000000000000000 DUP2 MSTORE POP DUP2 MSTORE PUSH1 0x20 ADD PUSH1 0xA DUP2 MSTORE PUSH1 0x20 ADD PUSH1 0x1 ISZERO ISZERO DUP2 MSTORE POP SWAP1 DUP1 PUSH1 0x1 DUP2 SLOAD ADD DUP1 DUP3 SSTORE DUP1 SWAP2 POP POP PUSH1 0x1 SWAP1 SUB SWAP1 PUSH0 MSTORE PUSH1 0x20 PUSH0 KECCAK256 SWAP1 PUSH1 0x3 MUL ADD PUSH0 SWAP1 SWAP2 SWAP1 SWAP2 SWAP1 SWAP2 POP PUSH0 DUP3 ADD MLOAD DUP2 PUSH0 ADD SWAP1 DUP2 PUSH2 0x9E SWAP2 SWAP1 PUSH2 0x47C JUMP JUMPDEST POP PUSH1 0x20 DUP3 ADD MLOAD DUP2 PUSH1 0x1 ADD SSTORE PUSH1 0x40 DUP3 ADD MLOAD DUP2 PUSH1 0x2 ADD PUSH0 PUSH2 0x100 EXP DUP2 SLOAD DUP2 PUSH1 0xFF MUL NOT AND SWAP1 DUP4 ISZERO ISZERO MUL OR SWAP1 SSTORE POP POP POP PUSH0 PUSH1 0x40 MLOAD DUP1 PUSH1 0x60 ADD PUSH1 0x40 MSTORE DUP1 PUSH1 0x40 MLOAD DUP1 PUSH1 0x40 ADD PUSH1 0x40 MSTORE DUP1 PUSH1 0x4 DUP2 MSTORE PUSH1 0x20 ADD PUSH32 0x4D65646F00000000000000000000000000000000000000000000000000000000 DUP2 MSTORE POP DUP2 MSTORE PUSH1 0x20 ADD PUSH1 0xD DUP2 MSTORE PUSH1 0x20 ADD PUSH1 0x1 ISZERO ISZERO DUP2 MSTORE POP SWAP1 DUP1 PUSH1 0x1 DUP2 SLOAD ADD DUP1 DUP3 SSTORE DUP1 SWAP2 POP POP PUSH1 0x1 SWAP1 SUB SWAP1 PUSH0 MSTORE PUSH1 0x20 PUSH0 KECCAK256 SWAP1 PUSH1 0x3 MUL ADD PUSH0 SWAP1 SWAP2 SWAP1 SWAP2 SWAP1 SWAP2 POP PUSH0 DUP3 ADD MLOAD DUP2 PUSH0 ADD SWAP1 DUP2 PUSH2 0x158 SWAP2 SWAP1 PUSH2 0x47C JUMP JUMPDEST POP PUSH1 0x20 DUP3 ADD MLOAD DUP2 PUSH1 0x1 ADD SSTORE PUSH1 0x40 DUP3 ADD MLOAD DUP2 PUSH1 0x2 ADD PUSH0 PUSH2 0x100 EXP DUP2 SLOAD DUP2 PUSH1 0xFF MUL NOT AND SWAP1 DUP4 ISZERO ISZERO MUL OR SWAP1 SSTORE POP POP POP PUSH0 PUSH1 0x40 MLOAD DUP1 PUSH1 0x60 ADD PUSH1 0x40 MSTORE DUP1 PUSH1 0x40 MLOAD DUP1 PUSH1 0x40 ADD PUSH1 0x40 MSTORE DUP1 PUSH1 0x4 DUP2 MSTORE PUSH1 0x20 ADD PUSH32 0x52696E6F00000000000000000000000000000000000000000000000000000000 DUP2 MSTORE POP DUP2 MSTORE PUSH1 0x20 ADD PUSH1 0x8 DUP2 MSTORE PUSH1 0x20 ADD PUSH0 ISZERO ISZERO DUP2 MSTORE POP SWAP1 DUP1 PUSH1 0x1 DUP2 SLOAD ADD DUP1 DUP3 SSTORE DUP1 SWAP2 POP POP PUSH1 0x1 SWAP1 SUB SWAP1 PUSH0 MSTORE PUSH1 0x20 PUSH0 KECCAK256 SWAP1 PUSH1 0x3 MUL ADD PUSH0 SWAP1 SWAP2 SWAP1 SWAP2 SWAP1 SWAP2 POP PUSH0 DUP3 ADD MLOAD DUP2 PUSH0 ADD SWAP1 DUP2 PUSH2 0x211 SWAP2 SWAP1 PUSH2 0x47C JUMP JUMPDEST POP PUSH1 0x20 DUP3 ADD MLOAD DUP2 PUSH1 0x1 ADD SSTORE PUSH1 0x40 DUP3 ADD MLOAD DUP2 PUSH1 0x2 ADD PUSH0 PUSH2 0x100 EXP DUP2 SLOAD DUP2 PUSH1 0xFF MUL NOT AND SWAP1 DUP4 ISZERO ISZERO MUL OR SWAP1 SSTORE POP POP POP PUSH2 0x54B JUMP JUMPDEST PUSH0 DUP2 MLOAD SWAP1 POP SWAP2 SWAP1 POP JUMP JUMPDEST PUSH32 0x4E487B7100000000000000000000000000000000000000000000000000000000 PUSH0 MSTORE PUSH1 0x41 PUSH1 0x4 MSTORE PUSH1 0x24 PUSH0 REVERT JUMPDEST PUSH32 0x4E487B7100000000000000000000000000000000000000000000000000000000 PUSH0 MSTORE PUSH1 0x22 PUSH1 0x4 MSTORE PUSH1 0x24 PUSH0 REVERT JUMPDEST PUSH0 PUSH1 0x2 DUP3 DIV SWAP1 POP PUSH1 0x1 DUP3 AND DUP1 PUSH2 0x2BD JUMPI PUSH1 0x7F DUP3 AND SWAP2 POP JUMPDEST PUSH1 0x20 DUP3 LT DUP2 SUB PUSH2 0x2D0 JUMPI PUSH2 0x2CF PUSH2 0x279 JUMP JUMPDEST JUMPDEST POP SWAP2 SWAP1 POP JUMP JUMPDEST PUSH0 DUP2 SWAP1 POP DUP2 PUSH0 MSTORE PUSH1 0x20 PUSH0 KECCAK256 SWAP1 POP SWAP2 SWAP1 POP JUMP JUMPDEST PUSH0 PUSH1 0x20 PUSH1 0x1F DUP4 ADD DIV SWAP1 POP SWAP2 SWAP1 POP JUMP JUMPDEST PUSH0 DUP3 DUP3 SHL SWAP1 POP SWAP3 SWAP2 POP POP JUMP JUMPDEST PUSH0 PUSH1 0x8 DUP4 MUL PUSH2 0x332 PUSH32 0xFFFFFFFFFFFFFFFFFFFFFFFFFFFFFFFFFFFFFFFFFFFFFFFFFFFFFFFFFFFFFFFF DUP3 PUSH2 0x2F7 JUMP JUMPDEST PUSH2 0x33C DUP7 DUP4 PUSH2 0x2F7 JUMP JUMPDEST SWAP6 POP DUP1 NOT DUP5 AND SWAP4 POP DUP1 DUP7 AND DUP5 OR SWAP3 POP POP POP SWAP4 SWAP3 POP POP POP JUMP JUMPDEST PUSH0 DUP2 SWAP1 POP SWAP2 SWAP1 POP JUMP JUMPDEST PUSH0 DUP2 SWAP1 POP SWAP2 SWAP1 POP JUMP JUMPDEST PUSH0 PUSH2 0x380 PUSH2 0x37B PUSH2 0x376 DUP5 PUSH2 0x354 JUMP JUMPDEST PUSH2 0x35D JUMP JUMPDEST PUSH2 0x354 JUMP JUMPDEST SWAP1 POP SWAP2 SWAP1 POP JUMP JUMPDEST PUSH0 DUP2 SWAP1 POP SWAP2 SWAP1 POP JUMP JUMPDEST PUSH2 0x399 DUP4 PUSH2 0x366 JUMP JUMPDEST PUSH2 0x3AD PUSH2 0x3A5 DUP3 PUSH2 0x387 JUMP JUMPDEST DUP5 DUP5 SLOAD PUSH2 0x303 JUMP JUMPDEST DUP3 SSTORE POP POP POP POP JUMP JUMPDEST PUSH0 SWAP1 JUMP JUMPDEST PUSH2 0x3C1 PUSH2 0x3B5 JUMP JUMPDEST PUSH2 0x3CC DUP2 DUP5 DUP5 PUSH2 0x390 JUMP JUMPDEST POP POP POP JUMP JUMPDEST JUMPDEST DUP2 DUP2 LT ISZERO PUSH2 0x3EF JUMPI PUSH2 0x3E4 PUSH0 DUP3 PUSH2 0x3B9 JUMP JUMPDEST PUSH1 0x1 DUP2 ADD SWAP1 POP PUSH2 0x3D2 JUMP JUMPDEST POP POP JUMP JUMPDEST PUSH1 0x1F DUP3 GT ISZERO PUSH2 0x434 JUMPI PUSH2 0x405 DUP2 PUSH2 0x2D6 JUMP JUMPDEST PUSH2 0x40E DUP5 PUSH2 0x2E8 JUMP JUMPDEST DUP2 ADD PUSH1 0x20 DUP6 LT ISZERO PUSH2 0x41D JUMPI DUP2 SWAP1 POP JUMPDEST PUSH2 0x431 PUSH2 0x429 DUP6 PUSH2 0x2E8 JUMP JUMPDEST DUP4 ADD DUP3 PUSH2 0x3D1 JUMP JUMPDEST POP POP JUMPDEST POP POP POP JUMP JUMPDEST PUSH0 DUP3 DUP3 SHR SWAP1 POP SWAP3 SWAP2 POP POP JUMP JUMPDEST PUSH0 PUSH2 0x454 PUSH0 NOT DUP5 PUSH1 0x8 MUL PUSH2 0x439 JUMP JUMPDEST NOT DUP1 DUP4 AND SWAP2 POP POP SWAP3 SWAP2 POP POP JUMP JUMPDEST PUSH0 PUSH2 0x46C DUP4 DUP4 PUSH2 0x445 JUMP JUMPDEST SWAP2 POP DUP3 PUSH1 0x2 MUL DUP3 OR SWAP1 POP SWAP3 SWAP2 POP POP JUMP JUMPDEST PUSH2 0x485 DUP3 PUSH2 0x242 JUMP JUMPDEST PUSH8 0xFFFFFFFFFFFFFFFF DUP2 GT ISZERO PUSH2 0x49E JUMPI PUSH2 0x49D PUSH2 0x24C JUMP JUMPDEST JUMPDEST PUSH2 0x4A8 DUP3 SLOAD PUSH2 0x2A6 JUMP JUMPDEST PUSH2 0x4B3 DUP3 DUP3 DUP6 PUSH2 0x3F3 JUMP JUMPDEST PUSH0 PUSH1 0x20 SWAP1 POP PUSH1 0x1F DUP4 GT PUSH1 0x1 DUP2 EQ PUSH2 0x4E4 JUMPI PUSH0 DUP5 ISZERO PUSH2 0x4D2 JUMPI DUP3 DUP8 ADD MLOAD SWAP1 POP JUMPDEST PUSH2 0x4DC DUP6 DUP3 PUSH2 0x461 JUMP JUMPDEST DUP7 SSTORE POP PUSH2 0x543 JUMP JUMPDEST PUSH1 0x1F NOT DUP5 AND PUSH2 0x4F2 DUP7 PUSH2 0x2D6 JUMP JUMPDEST PUSH0 JUMPDEST DUP3 DUP2 LT ISZERO PUSH2 0x519 JUMPI DUP5 DUP10 ADD MLOAD DUP3 SSTORE PUSH1 0x1 DUP3 ADD SWAP2 POP PUSH1 0x20 DUP6 ADD SWAP5 POP PUSH1 0x20 DUP2 ADD SWAP1 POP PUSH2 0x4F4 JUMP JUMPDEST DUP7 DUP4 LT ISZERO PUSH2 0x536 JUMPI DUP5 DUP10 ADD MLOAD PUSH2 0x532 PUSH1 0x1F DUP10 AND DUP3 PUSH2 0x445 JUMP JUMPDEST DUP4 SSTORE POP JUMPDEST PUSH1 0x1 PUSH1 0x2 DUP9 MUL ADD DUP9 SSTORE POP POP POP JUMPDEST POP POP POP POP POP POP JUMP JUMPDEST PUSH2 0xFD5 DUP1 PUSH2 0x558 PUSH0 CODECOPY PUSH0 RETURN INVALID PUSH1 0x80 PUSH1 0x40 MSTORE CALLVALUE DUP1 ISZERO PUSH2 0xF JUMPI PUSH0 DUP1 REVERT JUMPDEST POP PUSH1 0x4 CALLDATASIZE LT PUSH2 0x4A JUMPI PUSH0 CALLDATALOAD PUSH1 0xE0 SHR DUP1 PUSH4 0x2AD0E369 EQ PUSH2 0x4E JUMPI DUP1 PUSH4 0x2CFEFD8D EQ PUSH2 0x6A JUMPI DUP1 PUSH4 0x3F17A3B2 EQ PUSH2 0x9C JUMPI DUP1 PUSH4 0x6898C126 EQ PUSH2 0xCE JUMPI JUMPDEST PUSH0 DUP1 REVERT JUMPDEST PUSH2 0x68 PUSH1 0x4 DUP1 CALLDATASIZE SUB DUP2 ADD SWAP1 PUSH2 0x63 SWAP2 SWAP1 PUSH2 0x7B9 JUMP JUMPDEST PUSH2 0x100 JUMP JUMPDEST STOP JUMPDEST PUSH2 0x84 PUSH1 0x4 DUP1 CALLDATASIZE SUB DUP2 ADD SWAP1 PUSH2 0x7F SWAP2 SWAP1 PUSH2 0x825 JUMP JUMPDEST PUSH2 0x20D JUMP JUMPDEST PUSH1 0x40 MLOAD PUSH2 0x93 SWAP4 SWAP3 SWAP2 SWAP1 PUSH2 0x8CE JUMP JUMPDEST PUSH1 0x40 MLOAD DUP1 SWAP2 SUB SWAP1 RETURN JUMPDEST PUSH2 0xB6 PUSH1 0x4 DUP1 CALLDATASIZE SUB DUP2 ADD SWAP1 PUSH2 0xB1 SWAP2 SWAP1 PUSH2 0x90A JUMP JUMPDEST PUSH2 0x360 JUMP JUMPDEST PUSH1 0x40 MLOAD PUSH2 0xC5 SWAP4 SWAP3 SWAP2 SWAP1 PUSH2 0x8CE JUMP JUMPDEST PUSH1 0x40 MLOAD DUP1 SWAP2 SUB SWAP1 RETURN JUMPDEST PUSH2 0xE8 PUSH1 0x4 DUP1 CALLDATASIZE SUB DUP2 ADD SWAP1 PUSH2 0xE3 SWAP2 SWAP1 PUSH2 0x825 JUMP JUMPDEST PUSH2 0x53E JUMP JUMPDEST PUSH1 0x40 MLOAD PUSH2 0xF7 SWAP4 SWAP3 SWAP2 SWAP1 PUSH2 0x8CE JUMP JUMPDEST PUSH1 0x40 MLOAD DUP1 SWAP2 SUB SWAP1 RETURN JUMPDEST PUSH0 DUP4 MLOAD GT PUSH2 0x143 JUMPI PUSH1 0x40 MLOAD PUSH32 0x8C379A000000000000000000000000000000000000000000000000000000000 DUP2 MSTORE PUSH1 0x4 ADD PUSH2 0x13A SWAP1 PUSH2 0x9C1 JUMP JUMPDEST PUSH1 0x40 MLOAD DUP1 SWAP2 SUB SWAP1 REVERT JUMPDEST PUSH0 DUP3 GT PUSH2 0x185 JUMPI PUSH1 0x40 MLOAD PUSH32 0x8C379A000000000000000000000000000000000000000000000000000000000 DUP2 MSTORE PUSH1 0x4 ADD PUSH2 0x17C SWAP1 PUSH2 0xA4F JUMP JUMPDEST PUSH1 0x40 MLOAD DUP1 SWAP2 SUB SWAP1 REVERT JUMPDEST PUSH0 PUSH1 0x40 MLOAD DUP1 PUSH1 0x60 ADD PUSH1 0x40 MSTORE DUP1 DUP6 DUP2 MSTORE PUSH1 0x20 ADD DUP5 DUP2 MSTORE PUSH1 0x20 ADD DUP4 ISZERO ISZERO DUP2 MSTORE POP SWAP1 DUP1 PUSH1 0x1 DUP2 SLOAD ADD DUP1 DUP3 SSTORE DUP1 SWAP2 POP POP PUSH1 0x1 SWAP1 SUB SWAP1 PUSH0 MSTORE PUSH1 0x20 PUSH0 KECCAK256 SWAP1 PUSH1 0x3 MUL ADD PUSH0 SWAP1 SWAP2 SWAP1 SWAP2 SWAP1 SWAP2 POP PUSH0 DUP3 ADD MLOAD DUP2 PUSH0 ADD SWAP1 DUP2 PUSH2 0x1DC SWAP2 SWAP1 PUSH2 0xC67 JUMP JUMPDEST POP PUSH1 0x20 DUP3 ADD MLOAD DUP2 PUSH1 0x1 ADD SSTORE PUSH1 0x40 DUP3 ADD MLOAD DUP2 PUSH1 0x2 ADD PUSH0 PUSH2 0x100 EXP DUP2 SLOAD DUP2 PUSH1 0xFF MUL NOT AND SWAP1 DUP4 ISZERO ISZERO MUL OR SWAP1 SSTORE POP POP POP POP POP POP JUMP JUMPDEST PUSH1 0x60 PUSH0 DUP1 PUSH1 0x1 PUSH0 DUP1 SLOAD SWAP1 POP PUSH2 0x222 SWAP2 SWAP1 PUSH2 0xD63 JUMP JUMPDEST DUP5 GT ISZERO PUSH2 0x264 JUMPI PUSH1 0x40 MLOAD PUSH32 0x8C379A000000000000000000000000000000000000000000000000000000000 DUP2 MSTORE PUSH1 0x4 ADD PUSH2 0x25B SWAP1 PUSH2 0xE06 JUMP JUMPDEST PUSH1 0x40 MLOAD DUP1 SWAP2 SUB SWAP1 REVERT JUMPDEST PUSH0 DUP1 DUP6 DUP2 SLOAD DUP2 LT PUSH2 0x278 JUMPI PUSH2 0x277 PUSH2 0xE24 JUMP JUMPDEST JUMPDEST SWAP1 PUSH0 MSTORE PUSH1 0x20 PUSH0 KECCAK256 SWAP1 PUSH1 0x3 MUL ADD PUSH1 0x40 MLOAD DUP1 PUSH1 0x60 ADD PUSH1 0x40 MSTORE SWAP1 DUP2 PUSH0 DUP3 ADD DUP1 SLOAD PUSH2 0x29E SWAP1 PUSH2 0xA9A JUMP JUMPDEST DUP1 PUSH1 0x1F ADD PUSH1 0x20 DUP1 SWAP2 DIV MUL PUSH1 0x20 ADD PUSH1 0x40 MLOAD SWAP1 DUP2 ADD PUSH1 0x40 MSTORE DUP1 SWAP3 SWAP2 SWAP1 DUP2 DUP2 MSTORE PUSH1 0x20 ADD DUP3 DUP1 SLOAD PUSH2 0x2CA SWAP1 PUSH2 0xA9A JUMP JUMPDEST DUP1 ISZERO PUSH2 0x315 JUMPI DUP1 PUSH1 0x1F LT PUSH2 0x2EC JUMPI PUSH2 0x100 DUP1 DUP4 SLOAD DIV MUL DUP4 MSTORE SWAP2 PUSH1 0x20 ADD SWAP2 PUSH2 0x315 JUMP JUMPDEST DUP3 ADD SWAP2 SWAP1 PUSH0 MSTORE PUSH1 0x20 PUSH0 KECCAK256 SWAP1 JUMPDEST DUP2 SLOAD DUP2 MSTORE SWAP1 PUSH1 0x1 ADD SWAP1 PUSH1 0x20 ADD DUP1 DUP4 GT PUSH2 0x2F8 JUMPI DUP3 SWAP1 SUB PUSH1 0x1F AND DUP3 ADD SWAP2 JUMPDEST POP POP POP POP POP DUP2 MSTORE PUSH1 0x20 ADD PUSH1 0x1 DUP3 ADD SLOAD DUP2 MSTORE PUSH1 0x20 ADD PUSH1 0x2 DUP3 ADD PUSH0 SWAP1 SLOAD SWAP1 PUSH2 0x100 EXP SWAP1 DIV PUSH1 0xFF AND ISZERO ISZERO ISZERO ISZERO DUP2 MSTORE POP POP SWAP1 POP DUP1 PUSH0 ADD MLOAD DUP2 PUSH1 0x20 ADD MLOAD DUP3 PUSH1 0x40 ADD MLOAD SWAP4 POP SWAP4 POP SWAP4 POP POP SWAP2 SWAP4 SWAP1 SWAP3 POP JUMP JUMPDEST PUSH1 0x60 PUSH0 DUP1 PUSH0 JUMPDEST PUSH0 DUP1 SLOAD SWAP1 POP DUP2 LT ISZERO PUSH2 0x4FB JUMPI DUP5 PUSH1 0x40 MLOAD PUSH1 0x20 ADD PUSH2 0x383 SWAP2 SWAP1 PUSH2 0xE8B JUMP JUMPDEST PUSH1 0x40 MLOAD PUSH1 0x20 DUP2 DUP4 SUB SUB DUP2 MSTORE SWAP1 PUSH1 0x40 MSTORE DUP1 MLOAD SWAP1 PUSH1 0x20 ADD KECCAK256 PUSH0 DUP3 DUP2 SLOAD DUP2 LT PUSH2 0x3AC JUMPI PUSH2 0x3AB PUSH2 0xE24 JUMP JUMPDEST JUMPDEST SWAP1 PUSH0 MSTORE PUSH1 0x20 PUSH0 KECCAK256 SWAP1 PUSH1 0x3 MUL ADD PUSH0 ADD PUSH1 0x40 MLOAD PUSH1 0x20 ADD PUSH2 0x3CA SWAP2 SWAP1 PUSH2 0xF21 JUMP JUMPDEST PUSH1 0x40 MLOAD PUSH1 0x20 DUP2 DUP4 SUB SUB DUP2 MSTORE SWAP1 PUSH1 0x40 MSTORE DUP1 MLOAD SWAP1 PUSH1 0x20 ADD KECCAK256 SUB PUSH2 0x4EE JUMPI PUSH0 DUP2 DUP2 SLOAD DUP2 LT PUSH2 0x3F8 JUMPI PUSH2 0x3F7 PUSH2 0xE24 JUMP JUMPDEST JUMPDEST SWAP1 PUSH0 MSTORE PUSH1 0x20 PUSH0 KECCAK256 SWAP1 PUSH1 0x3 MUL ADD PUSH0 ADD PUSH0 DUP3 DUP2 SLOAD DUP2 LT PUSH2 0x419 JUMPI PUSH2 0x418 PUSH2 0xE24 JUMP JUMPDEST JUMPDEST SWAP1 PUSH0 MSTORE PUSH1 0x20 PUSH0 KECCAK256 SWAP1 PUSH1 0x3 MUL ADD PUSH1 0x1 ADD SLOAD PUSH0 DUP4 DUP2 SLOAD DUP2 LT PUSH2 0x43C JUMPI PUSH2 0x43B PUSH2 0xE24 JUMP JUMPDEST JUMPDEST SWAP1 PUSH0 MSTORE PUSH1 0x20 PUSH0 KECCAK256 SWAP1 PUSH1 0x3 MUL ADD PUSH1 0x2 ADD PUSH0 SWAP1 SLOAD SWAP1 PUSH2 0x100 EXP SWAP1 DIV PUSH1 0xFF AND DUP3 DUP1 SLOAD PUSH2 0x464 SWAP1 PUSH2 0xA9A JUMP JUMPDEST DUP1 PUSH1 0x1F ADD PUSH1 0x20 DUP1 SWAP2 DIV MUL PUSH1 0x20 ADD PUSH1 0x40 MLOAD SWAP1 DUP2 ADD PUSH1 0x40 MSTORE DUP1 SWAP3 SWAP2 SWAP1 DUP2 DUP2 MSTORE PUSH1 0x20 ADD DUP3 DUP1 SLOAD PUSH2 0x490 SWAP1 PUSH2 0xA9A JUMP JUMPDEST DUP1 ISZERO PUSH2 0x4DB JUMPI DUP1 PUSH1 0x1F LT PUSH2 0x4B2 JUMPI PUSH2 0x100 DUP1 DUP4 SLOAD DIV MUL DUP4 MSTORE SWAP2 PUSH1 0x20 ADD SWAP2 PUSH2 0x4DB JUMP JUMPDEST DUP3 ADD SWAP2 SWAP1 PUSH0 MSTORE PUSH1 0x20 PUSH0 KECCAK256 SWAP1 JUMPDEST DUP2 SLOAD DUP2 MSTORE SWAP1 PUSH1 0x1 ADD SWAP1 PUSH1 0x20 ADD DUP1 DUP4 GT PUSH2 0x4BE JUMPI DUP3 SWAP1 SUB PUSH1 0x1F AND DUP3 ADD SWAP2 JUMPDEST POP POP POP POP POP SWAP3 POP SWAP4 POP SWAP4 POP SWAP4 POP POP PUSH2 0x537 JUMP JUMPDEST DUP1 DUP1 PUSH1 0x1 ADD SWAP2 POP POP PUSH2 0x366 JUMP JUMPDEST POP PUSH1 0x40 MLOAD PUSH32 0x8C379A000000000000000000000000000000000000000000000000000000000 DUP2 MSTORE PUSH1 0x4 ADD PUSH2 0x52E SWAP1 PUSH2 0xF81 JUMP JUMPDEST PUSH1 0x40 MLOAD DUP1 SWAP2 SUB SWAP1 REVERT JUMPDEST SWAP2 SWAP4 SWAP1 SWAP3 POP JUMP JUMPDEST PUSH0 DUP2 DUP2 SLOAD DUP2 LT PUSH2 0x54C JUMPI PUSH0 DUP1 REVERT JUMPDEST SWAP1 PUSH0 MSTORE PUSH1 0x20 PUSH0 KECCAK256 SWAP1 PUSH1 0x3 MUL ADD PUSH0 SWAP2 POP SWAP1 POP DUP1 PUSH0 ADD DUP1 SLOAD PUSH2 0x56B SWAP1 PUSH2 0xA9A JUMP JUMPDEST DUP1 PUSH1 0x1F ADD PUSH1 0x20 DUP1 SWAP2 DIV MUL PUSH1 0x20 ADD PUSH1 0x40 MLOAD SWAP1 DUP2 ADD PUSH1 0x40 MSTORE DUP1 SWAP3 SWAP2 SWAP1 DUP2 DUP2 MSTORE PUSH1 0x20 ADD DUP3 DUP1 SLOAD PUSH2 0x597 SWAP1 PUSH2 0xA9A JUMP JUMPDEST DUP1 ISZERO PUSH2 0x5E2 JUMPI DUP1 PUSH1 0x1F LT PUSH2 0x5B9 JUMPI PUSH2 0x100 DUP1 DUP4 SLOAD DIV MUL DUP4 MSTORE SWAP2 PUSH1 0x20 ADD SWAP2 PUSH2 0x5E2 JUMP JUMPDEST DUP3 ADD SWAP2 SWAP1 PUSH0 MSTORE PUSH1 0x20 PUSH0 KECCAK256 SWAP1 JUMPDEST DUP2 SLOAD DUP2 MSTORE SWAP1 PUSH1 0x1 ADD SWAP1 PUSH1 0x20 ADD DUP1 DUP4 GT PUSH2 0x5C5 JUMPI DUP3 SWAP1 SUB PUSH1 0x1F AND DUP3 ADD SWAP2 JUMPDEST POP POP POP POP POP SWAP1 DUP1 PUSH1 0x1 ADD SLOAD SWAP1 DUP1 PUSH1 0x2 ADD PUSH0 SWAP1 SLOAD SWAP1 PUSH2 0x100 EXP SWAP1 DIV PUSH1 0xFF AND SWAP1 POP DUP4 JUMP JUMPDEST PUSH0 PUSH1 0x40 MLOAD SWAP1 POP SWAP1 JUMP JUMPDEST PUSH0 DUP1 REVERT JUMPDEST PUSH0 DUP1 REVERT JUMPDEST PUSH0 DUP1 REVERT JUMPDEST PUSH0 DUP1 REVERT JUMPDEST PUSH0 PUSH1 0x1F NOT PUSH1 0x1F DUP4 ADD AND SWAP1 POP SWAP2 SWAP1 POP JUMP JUMPDEST PUSH32 0x4E487B7100000000000000000000000000000000000000000000000000000000 PUSH0 MSTORE PUSH1 0x41 PUSH1 0x4 MSTORE PUSH1 0x24 PUSH0 REVERT JUMPDEST PUSH2 0x663 DUP3 PUSH2 0x61D JUMP JUMPDEST DUP2 ADD DUP2 DUP2 LT PUSH8 0xFFFFFFFFFFFFFFFF DUP3 GT OR ISZERO PUSH2 0x682 JUMPI PUSH2 0x681 PUSH2 0x62D JUMP JUMPDEST JUMPDEST DUP1 PUSH1 0x40 MSTORE POP POP POP JUMP JUMPDEST PUSH0 PUSH2 0x694 PUSH2 0x604 JUMP JUMPDEST SWAP1 POP PUSH2 0x6A0 DUP3 DUP3 PUSH2 0x65A JUMP JUMPDEST SWAP2 SWAP1 POP JUMP JUMPDEST PUSH0 PUSH8 0xFFFFFFFFFFFFFFFF DUP3 GT ISZERO PUSH2 0x6BF JUMPI PUSH2 0x6BE PUSH2 0x62D JUMP JUMPDEST JUMPDEST PUSH2 0x6C8 DUP3 PUSH2 0x61D JUMP JUMPDEST SWAP1 POP PUSH1 0x20 DUP2 ADD SWAP1 POP SWAP2 SWAP1 POP JUMP JUMPDEST DUP3 DUP2 DUP4 CALLDATACOPY PUSH0 DUP4 DUP4 ADD MSTORE POP POP POP JUMP JUMPDEST PUSH0 PUSH2 0x6F5 PUSH2 0x6F0 DUP5 PUSH2 0x6A5 JUMP JUMPDEST PUSH2 0x68B JUMP JUMPDEST SWAP1 POP DUP3 DUP2 MSTORE PUSH1 0x20 DUP2 ADD DUP5 DUP5 DUP5 ADD GT ISZERO PUSH2 0x711 JUMPI PUSH2 0x710 PUSH2 0x619 JUMP JUMPDEST JUMPDEST PUSH2 0x71C DUP5 DUP3 DUP6 PUSH2 0x6D5 JUMP JUMPDEST POP SWAP4 SWAP3 POP POP POP JUMP JUMPDEST PUSH0 DUP3 PUSH1 0x1F DUP4 ADD SLT PUSH2 0x738 JUMPI PUSH2 0x737 PUSH2 0x615 JUMP JUMPDEST JUMPDEST DUP2 CALLDATALOAD PUSH2 0x748 DUP5 DUP3 PUSH1 0x20 DUP7 ADD PUSH2 0x6E3 JUMP JUMPDEST SWAP2 POP POP SWAP3 SWAP2 POP POP JUMP JUMPDEST PUSH0 DUP2 SWAP1 POP SWAP2 SWAP1 POP JUMP JUMPDEST PUSH2 0x763 DUP2 PUSH2 0x751 JUMP JUMPDEST DUP2 EQ PUSH2 0x76D JUMPI PUSH0 DUP1 REVERT JUMPDEST POP JUMP JUMPDEST PUSH0 DUP2 CALLDATALOAD SWAP1 POP PUSH2 0x77E DUP2 PUSH2 0x75A JUMP JUMPDEST SWAP3 SWAP2 POP POP JUMP JUMPDEST PUSH0 DUP2 ISZERO ISZERO SWAP1 POP SWAP2 SWAP1 POP JUMP JUMPDEST PUSH2 0x798 DUP2 PUSH2 0x784 JUMP JUMPDEST DUP2 EQ PUSH2 0x7A2 JUMPI PUSH0 DUP1 REVERT JUMPDEST POP JUMP JUMPDEST PUSH0 DUP2 CALLDATALOAD SWAP1 POP PUSH2 0x7B3 DUP2 PUSH2 0x78F JUMP JUMPDEST SWAP3 SWAP2 POP POP JUMP JUMPDEST PUSH0 DUP1 PUSH0 PUSH1 0x60 DUP5 DUP7 SUB SLT ISZERO PUSH2 0x7D0 JUMPI PUSH2 0x7CF PUSH2 0x60D JUMP JUMPDEST JUMPDEST PUSH0 DUP5 ADD CALLDATALOAD PUSH8 0xFFFFFFFFFFFFFFFF DUP2 GT ISZERO PUSH2 0x7ED JUMPI PUSH2 0x7EC PUSH2 0x611 JUMP JUMPDEST JUMPDEST PUSH2 0x7F9 DUP7 DUP3 DUP8 ADD PUSH2 0x724 JUMP JUMPDEST SWAP4 POP POP PUSH1 0x20 PUSH2 0x80A DUP7 DUP3 DUP8 ADD PUSH2 0x770 JUMP JUMPDEST SWAP3 POP POP PUSH1 0x40 PUSH2 0x81B DUP7 DUP3 DUP8 ADD PUSH2 0x7A5 JUMP JUMPDEST SWAP2 POP POP SWAP3 POP SWAP3 POP SWAP3 JUMP JUMPDEST PUSH0 PUSH1 0x20 DUP3 DUP5 SUB SLT ISZERO PUSH2 0x83A JUMPI PUSH2 0x839 PUSH2 0x60D JUMP JUMPDEST JUMPDEST PUSH0 PUSH2 0x847 DUP5 DUP3 DUP6 ADD PUSH2 0x770 JUMP JUMPDEST SWAP2 POP POP SWAP3 SWAP2 POP POP JUMP JUMPDEST PUSH0 DUP2 MLOAD SWAP1 POP SWAP2 SWAP1 POP JUMP JUMPDEST PUSH0 DUP3 DUP3 MSTORE PUSH1 0x20 DUP3 ADD SWAP1 POP SWAP3 SWAP2 POP POP JUMP JUMPDEST DUP3 DUP2 DUP4 MCOPY PUSH0 DUP4 DUP4 ADD MSTORE POP POP POP JUMP JUMPDEST PUSH0 PUSH2 0x882 DUP3 PUSH2 0x850 JUMP JUMPDEST PUSH2 0x88C DUP2 DUP6 PUSH2 0x85A JUMP JUMPDEST SWAP4 POP PUSH2 0x89C DUP2 DUP6 PUSH1 0x20 DUP7 ADD PUSH2 0x86A JUMP JUMPDEST PUSH2 0x8A5 DUP2 PUSH2 0x61D JUMP JUMPDEST DUP5 ADD SWAP2 POP POP SWAP3 SWAP2 POP POP JUMP JUMPDEST PUSH2 0x8B9 DUP2 PUSH2 0x751 JUMP JUMPDEST DUP3 MSTORE POP POP JUMP JUMPDEST PUSH2 0x8C8 DUP2 PUSH2 0x784 JUMP JUMPDEST DUP3 MSTORE POP POP JUMP JUMPDEST PUSH0 PUSH1 0x60 DUP3 ADD SWAP1 POP DUP2 DUP2 SUB PUSH0 DUP4 ADD MSTORE PUSH2 0x8E6 DUP2 DUP7 PUSH2 0x878 JUMP JUMPDEST SWAP1 POP PUSH2 0x8F5 PUSH1 0x20 DUP4 ADD DUP6 PUSH2 0x8B0 JUMP JUMPDEST PUSH2 0x902 PUSH1 0x40 DUP4 ADD DUP5 PUSH2 0x8BF JUMP JUMPDEST SWAP5 SWAP4 POP POP POP POP JUMP JUMPDEST PUSH0 PUSH1 0x20 DUP3 DUP5 SUB SLT ISZERO PUSH2 0x91F JUMPI PUSH2 0x91E PUSH2 0x60D JUMP JUMPDEST JUMPDEST PUSH0 DUP3 ADD CALLDATALOAD PUSH8 0xFFFFFFFFFFFFFFFF DUP2 GT ISZERO PUSH2 0x93C JUMPI PUSH2 0x93B PUSH2 0x611 JUMP JUMPDEST JUMPDEST PUSH2 0x948 DUP5 DUP3 DUP6 ADD PUSH2 0x724 JUMP JUMPDEST SWAP2 POP POP SWAP3 SWAP2 POP POP JUMP JUMPDEST PUSH32 0x496D65206D6F7261206269746920706F64616E6F206D6564206E6172656B6F76 PUSH0 DUP3 ADD MSTORE PUSH32 0x616A6920696E206E6520736D652062697469207072617A6E6F00000000000000 PUSH1 0x20 DUP3 ADD MSTORE POP JUMP JUMPDEST PUSH0 PUSH2 0x9AB PUSH1 0x39 DUP4 PUSH2 0x85A JUMP JUMPDEST SWAP2 POP PUSH2 0x9B6 DUP3 PUSH2 0x951 JUMP JUMPDEST PUSH1 0x40 DUP3 ADD SWAP1 POP SWAP2 SWAP1 POP JUMP JUMPDEST PUSH0 PUSH1 0x20 DUP3 ADD SWAP1 POP DUP2 DUP2 SUB PUSH0 DUP4 ADD MSTORE PUSH2 0x9D8 DUP2 PUSH2 0x99F JUMP JUMPDEST SWAP1 POP SWAP2 SWAP1 POP JUMP JUMPDEST PUSH32 0x537461726F7374206D6F7261206269746920706F7A697469766E6F2073746576 PUSH0 DUP3 ADD MSTORE PUSH32 0x696C6F0000000000000000000000000000000000000000000000000000000000 PUSH1 0x20 DUP3 ADD MSTORE POP JUMP JUMPDEST PUSH0 PUSH2 0xA39 PUSH1 0x23 DUP4 PUSH2 0x85A JUMP JUMPDEST SWAP2 POP PUSH2 0xA44 DUP3 PUSH2 0x9DF JUMP JUMPDEST PUSH1 0x40 DUP3 ADD SWAP1 POP SWAP2 SWAP1 POP JUMP JUMPDEST PUSH0 PUSH1 0x20 DUP3 ADD SWAP1 POP DUP2 DUP2 SUB PUSH0 DUP4 ADD MSTORE PUSH2 0xA66 DUP2 PUSH2 0xA2D JUMP JUMPDEST SWAP1 POP SWAP2 SWAP1 POP JUMP JUMPDEST PUSH32 0x4E487B7100000000000000000000000000000000000000000000000000000000 PUSH0 MSTORE PUSH1 0x22 PUSH1 0x4 MSTORE PUSH1 0x24 PUSH0 REVERT JUMPDEST PUSH0 PUSH1 0x2 DUP3 DIV SWAP1 POP PUSH1 0x1 DUP3 AND DUP1 PUSH2 0xAB1 JUMPI PUSH1 0x7F DUP3 AND SWAP2 POP JUMPDEST PUSH1 0x20 DUP3 LT DUP2 SUB PUSH2 0xAC4 JUMPI PUSH2 0xAC3 PUSH2 0xA6D JUMP JUMPDEST JUMPDEST POP SWAP2 SWAP1 POP JUMP JUMPDEST PUSH0 DUP2 SWAP1 POP DUP2 PUSH0 MSTORE PUSH1 0x20 PUSH0 KECCAK256 SWAP1 POP SWAP2 SWAP1 POP JUMP JUMPDEST PUSH0 PUSH1 0x20 PUSH1 0x1F DUP4 ADD DIV SWAP1 POP SWAP2 SWAP1 POP JUMP JUMPDEST PUSH0 DUP3 DUP3 SHL SWAP1 POP SWAP3 SWAP2 POP POP JUMP JUMPDEST PUSH0 PUSH1 0x8 DUP4 MUL PUSH2 0xB26 PUSH32 0xFFFFFFFFFFFFFFFFFFFFFFFFFFFFFFFFFFFFFFFFFFFFFFFFFFFFFFFFFFFFFFFF DUP3 PUSH2 0xAEB JUMP JUMPDEST PUSH2 0xB30 DUP7 DUP4 PUSH2 0xAEB JUMP JUMPDEST SWAP6 POP DUP1 NOT DUP5 AND SWAP4 POP DUP1 DUP7 AND DUP5 OR SWAP3 POP POP POP SWAP4 SWAP3 POP POP POP JUMP JUMPDEST PUSH0 DUP2 SWAP1 POP SWAP2 SWAP1 POP JUMP JUMPDEST PUSH0 PUSH2 0xB6B PUSH2 0xB66 PUSH2 0xB61 DUP5 PUSH2 0x751 JUMP JUMPDEST PUSH2 0xB48 JUMP JUMPDEST PUSH2 0x751 JUMP JUMPDEST SWAP1 POP SWAP2 SWAP1 POP JUMP JUMPDEST PUSH0 DUP2 SWAP1 POP SWAP2 SWAP1 POP JUMP JUMPDEST PUSH2 0xB84 DUP4 PUSH2 0xB51 JUMP JUMPDEST PUSH2 0xB98 PUSH2 0xB90 DUP3 PUSH2 0xB72 JUMP JUMPDEST DUP5 DUP5 SLOAD PUSH2 0xAF7 JUMP JUMPDEST DUP3 SSTORE POP POP POP POP JUMP JUMPDEST PUSH0 SWAP1 JUMP JUMPDEST PUSH2 0xBAC PUSH2 0xBA0 JUMP JUMPDEST PUSH2 0xBB7 DUP2 DUP5 DUP5 PUSH2 0xB7B JUMP JUMPDEST POP POP POP JUMP JUMPDEST JUMPDEST DUP2 DUP2 LT ISZERO PUSH2 0xBDA JUMPI PUSH2 0xBCF PUSH0 DUP3 PUSH2 0xBA4 JUMP JUMPDEST PUSH1 0x1 DUP2 ADD SWAP1 POP PUSH2 0xBBD JUMP JUMPDEST POP POP JUMP JUMPDEST PUSH1 0x1F DUP3 GT ISZERO PUSH2 0xC1F JUMPI PUSH2 0xBF0 DUP2 PUSH2 0xACA JUMP JUMPDEST PUSH2 0xBF9 DUP5 PUSH2 0xADC JUMP JUMPDEST DUP2 ADD PUSH1 0x20 DUP6 LT ISZERO PUSH2 0xC08 JUMPI DUP2 SWAP1 POP JUMPDEST PUSH2 0xC1C PUSH2 0xC14 DUP6 PUSH2 0xADC JUMP JUMPDEST DUP4 ADD DUP3 PUSH2 0xBBC JUMP JUMPDEST POP POP JUMPDEST POP POP POP JUMP JUMPDEST PUSH0 DUP3 DUP3 SHR SWAP1 POP SWAP3 SWAP2 POP POP JUMP JUMPDEST PUSH0 PUSH2 0xC3F PUSH0 NOT DUP5 PUSH1 0x8 MUL PUSH2 0xC24 JUMP JUMPDEST NOT DUP1 DUP4 AND SWAP2 POP POP SWAP3 SWAP2 POP POP JUMP JUMPDEST PUSH0 PUSH2 0xC57 DUP4 DUP4 PUSH2 0xC30 JUMP JUMPDEST SWAP2 POP DUP3 PUSH1 0x2 MUL DUP3 OR SWAP1 POP SWAP3 SWAP2 POP POP JUMP JUMPDEST PUSH2 0xC70 DUP3 PUSH2 0x850 JUMP JUMPDEST PUSH8 0xFFFFFFFFFFFFFFFF DUP2 GT ISZERO PUSH2 0xC89 JUMPI PUSH2 0xC88 PUSH2 0x62D JUMP JUMPDEST JUMPDEST PUSH2 0xC93 DUP3 SLOAD PUSH2 0xA9A JUMP JUMPDEST PUSH2 0xC9E DUP3 DUP3 DUP6 PUSH2 0xBDE JUMP JUMPDEST PUSH0 PUSH1 0x20 SWAP1 POP PUSH1 0x1F DUP4 GT PUSH1 0x1 DUP2 EQ PUSH2 0xCCF JUMPI PUSH0 DUP5 ISZERO PUSH2 0xCBD JUMPI DUP3 DUP8 ADD MLOAD SWAP1 POP JUMPDEST PUSH2 0xCC7 DUP6 DUP3 PUSH2 0xC4C JUMP JUMPDEST DUP7 SSTORE POP PUSH2 0xD2E JUMP JUMPDEST PUSH1 0x1F NOT DUP5 AND PUSH2 0xCDD DUP7 PUSH2 0xACA JUMP JUMPDEST PUSH0 JUMPDEST DUP3 DUP2 LT ISZERO PUSH2 0xD04 JUMPI DUP5 DUP10 ADD MLOAD DUP3 SSTORE PUSH1 0x1 DUP3 ADD SWAP2 POP PUSH1 0x20 DUP6 ADD SWAP5 POP PUSH1 0x20 DUP2 ADD SWAP1 POP PUSH2 0xCDF JUMP JUMPDEST DUP7 DUP4 LT ISZERO PUSH2 0xD21 JUMPI DUP5 DUP10 ADD MLOAD PUSH2 0xD1D PUSH1 0x1F DUP10 AND DUP3 PUSH2 0xC30 JUMP JUMPDEST DUP4 SSTORE POP JUMPDEST PUSH1 0x1 PUSH1 0x2 DUP9 MUL ADD DUP9 SSTORE POP POP POP JUMPDEST POP POP POP POP POP POP JUMP JUMPDEST PUSH32 0x4E487B7100000000000000000000000000000000000000000000000000000000 PUSH0 MSTORE PUSH1 0x11 PUSH1 0x4 MSTORE PUSH1 0x24 PUSH0 REVERT JUMPDEST PUSH0 PUSH2 0xD6D DUP3 PUSH2 0x751 JUMP JUMPDEST SWAP2 POP PUSH2 0xD78 DUP4 PUSH2 0x751 JUMP JUMPDEST SWAP3 POP DUP3 DUP3 SUB SWAP1 POP DUP2 DUP2 GT ISZERO PUSH2 0xD90 JUMPI PUSH2 0xD8F PUSH2 0xD36 JUMP JUMPDEST JUMPDEST SWAP3 SWAP2 POP POP JUMP JUMPDEST PUSH32 0x706F642074656D20696E64656B736F6D20C5A165206E6920706C69C5A16B6F74 PUSH0 DUP3 ADD MSTORE PUSH32 0x6100000000000000000000000000000000000000000000000000000000000000 PUSH1 0x20 DUP3 ADD MSTORE POP JUMP JUMPDEST PUSH0 PUSH2 0xDF0 PUSH1 0x21 DUP4 PUSH2 0x85A JUMP JUMPDEST SWAP2 POP PUSH2 0xDFB DUP3 PUSH2 0xD96 JUMP JUMPDEST PUSH1 0x40 DUP3 ADD SWAP1 POP SWAP2 SWAP1 POP JUMP JUMPDEST PUSH0 PUSH1 0x20 DUP3 ADD SWAP1 POP DUP2 DUP2 SUB PUSH0 DUP4 ADD MSTORE PUSH2 0xE1D DUP2 PUSH2 0xDE4 JUMP JUMPDEST SWAP1 POP SWAP2 SWAP1 POP JUMP JUMPDEST PUSH32 0x4E487B7100000000000000000000000000000000000000000000000000000000 PUSH0 MSTORE PUSH1 0x32 PUSH1 0x4 MSTORE PUSH1 0x24 PUSH0 REVERT JUMPDEST PUSH0 DUP2 SWAP1 POP SWAP3 SWAP2 POP POP JUMP JUMPDEST PUSH0 PUSH2 0xE65 DUP3 PUSH2 0x850 JUMP JUMPDEST PUSH2 0xE6F DUP2 DUP6 PUSH2 0xE51 JUMP JUMPDEST SWAP4 POP PUSH2 0xE7F DUP2 DUP6 PUSH1 0x20 DUP7 ADD PUSH2 0x86A JUMP JUMPDEST DUP1 DUP5 ADD SWAP2 POP POP SWAP3 SWAP2 POP POP JUMP JUMPDEST PUSH0 PUSH2 0xE96 DUP3 DUP5 PUSH2 0xE5B JUMP JUMPDEST SWAP2 POP DUP2 SWAP1 POP SWAP3 SWAP2 POP POP JUMP JUMPDEST PUSH0 DUP2 SLOAD PUSH2 0xEAD DUP2 PUSH2 0xA9A JUMP JUMPDEST PUSH2 0xEB7 DUP2 DUP7 PUSH2 0xE51 JUMP JUMPDEST SWAP5 POP PUSH1 0x1 DUP3 AND PUSH0 DUP2 EQ PUSH2 0xED1 JUMPI PUSH1 0x1 DUP2 EQ PUSH2 0xEE6 JUMPI PUSH2 0xF18 JUMP JUMPDEST PUSH1 0xFF NOT DUP4 AND DUP7 MSTORE DUP2 ISZERO ISZERO DUP3 MUL DUP7 ADD SWAP4 POP PUSH2 0xF18 JUMP JUMPDEST PUSH2 0xEEF DUP6 PUSH2 0xACA JUMP JUMPDEST PUSH0 JUMPDEST DUP4 DUP2 LT ISZERO PUSH2 0xF10 JUMPI DUP2 SLOAD DUP2 DUP10 ADD MSTORE PUSH1 0x1 DUP3 ADD SWAP2 POP PUSH1 0x20 DUP2 ADD SWAP1 POP PUSH2 0xEF1 JUMP JUMPDEST DUP4 DUP9 ADD SWAP6 POP POP POP JUMPDEST POP POP POP SWAP3 SWAP2 POP POP JUMP JUMPDEST PUSH0 PUSH2 0xF2C DUP3 DUP5 PUSH2 0xEA1 JUMP JUMPDEST SWAP2 POP DUP2 SWAP1 POP SWAP3 SWAP2 POP POP JUMP JUMPDEST PUSH32 0x506C69736B6F20732074656D20696D656E6F6D206E69206E616A64656E000000 PUSH0 DUP3 ADD MSTORE POP JUMP JUMPDEST PUSH0 PUSH2 0xF6B PUSH1 0x1D DUP4 PUSH2 0x85A JUMP JUMPDEST SWAP2 POP PUSH2 0xF76 DUP3 PUSH2 0xF37 JUMP JUMPDEST PUSH1 0x20 DUP3 ADD SWAP1 POP SWAP2 SWAP1 POP JUMP JUMPDEST PUSH0 PUSH1 0x20 DUP3 ADD SWAP1 POP DUP2 DUP2 SUB PUSH0 DUP4 ADD MSTORE PUSH2 0xF98 DUP2 PUSH2 0xF5F JUMP JUMPDEST SWAP1 POP SWAP2 SWAP1 POP JUMP INVALID LOG2 PUSH5 0x6970667358 0x22 SLT KECCAK256 0x27 PUSH31 0xB7B9EA7A34B216BE9E3BB731D7E36A6FB5061F0DC85EEE6CF545EB061DFC64 PUSH20 0x6F6C634300081A00330000000000000000000000 "
				},
				"gasEstimates": {
					"creation": {
						"codeDepositCost": "810600",
						"executionCost": "infinite",
						"totalCost": "infinite"
					},
					"external": {
						"getPliskoByIndex(uint256)": "infinite",
						"getPliskoByName(string)": "infinite",
						"pliskoAdd(string,uint256,bool)": "infinite",
						"pliskoti(uint256)": "infinite"
					}
				},
				"methodIdentifiers": {
					"getPliskoByIndex(uint256)": "2cfefd8d",
					"getPliskoByName(string)": "3f17a3b2",
					"pliskoAdd(string,uint256,bool)": "2ad0e369",
					"pliskoti(uint256)": "6898c126"
				}
			},
			"storageLayout": {
				"storage": [
					{
						"astId": 12,
						"contract": "igrackanjeDva.sol:Pagadba",
						"label": "pliskoti",
						"offset": 0,
						"slot": "0",
						"type": "t_array(t_struct(Plisko)8_storage)dyn_storage"
					}
				],
				"types": {
					"t_array(t_struct(Plisko)8_storage)dyn_storage": {
						"base": "t_struct(Plisko)8_storage",
						"encoding": "dynamic_array",
						"label": "struct Pagadba.Plisko[]",
						"numberOfBytes": "32"
					},
					"t_bool": {
						"encoding": "inplace",
						"label": "bool",
						"numberOfBytes": "1"
					},
					"t_string_storage": {
						"encoding": "bytes",
						"label": "string",
						"numberOfBytes": "32"
					},
					"t_struct(Plisko)8_storage": {
						"encoding": "inplace",
						"label": "struct Pagadba.Plisko",
						"members": [
							{
								"astId": 3,
								"contract": "igrackanjeDva.sol:Pagadba",
								"label": "ime",
								"offset": 0,
								"slot": "0",
								"type": "t_string_storage"
							},
							{
								"astId": 5,
								"contract": "igrackanjeDva.sol:Pagadba",
								"label": "starost",
								"offset": 0,
								"slot": "1",
								"type": "t_uint256"
							},
							{
								"astId": 7,
								"contract": "igrackanjeDva.sol:Pagadba",
								"label": "vZvezi",
								"offset": 0,
								"slot": "2",
								"type": "t_bool"
							}
						],
						"numberOfBytes": "96"
					},
					"t_uint256": {
						"encoding": "inplace",
						"label": "uint256",
						"numberOfBytes": "32"
					}
				}
			},
			"userdoc": {
				"kind": "user",
				"methods": {},
				"version": 1
			}
		}
	}
}